{
	"ExemploStruct.sol": {
		"ExemploStruct": {
			"abi": [
				{
					"inputs": [
						{
							"internalType": "string",
							"name": "_nome",
							"type": "string"
						},
						{
							"internalType": "uint8",
							"name": "_idade",
							"type": "uint8"
						}
					],
					"name": "makePessoa",
					"outputs": [],
					"stateMutability": "nonpayable",
					"type": "function"
				},
				{
					"inputs": [],
					"name": "pessoa",
					"outputs": [
						{
							"internalType": "uint8",
							"name": "idade",
							"type": "uint8"
						},
						{
							"internalType": "string",
							"name": "nome",
							"type": "string"
						},
						{
							"internalType": "bool",
							"name": "ativo",
							"type": "bool"
						}
					],
					"stateMutability": "view",
					"type": "function"
				},
				{
					"inputs": [
						{
							"internalType": "address",
							"name": "wallet",
							"type": "address"
						},
						{
							"internalType": "uint256",
							"name": "",
							"type": "uint256"
						}
					],
					"name": "s_mappingArrayPessoa",
					"outputs": [
						{
							"internalType": "uint8",
							"name": "idade",
							"type": "uint8"
						},
						{
							"internalType": "string",
							"name": "nome",
							"type": "string"
						},
						{
							"internalType": "bool",
							"name": "ativo",
							"type": "bool"
						}
					],
					"stateMutability": "view",
					"type": "function"
				},
				{
					"inputs": [
						{
							"internalType": "address",
							"name": "wallet",
							"type": "address"
						}
					],
					"name": "s_mappingPessoa",
					"outputs": [
						{
							"internalType": "uint8",
							"name": "idade",
							"type": "uint8"
						},
						{
							"internalType": "string",
							"name": "nome",
							"type": "string"
						},
						{
							"internalType": "bool",
							"name": "ativo",
							"type": "bool"
						}
					],
					"stateMutability": "view",
					"type": "function"
				},
				{
					"inputs": [
						{
							"internalType": "uint256",
							"name": "",
							"type": "uint256"
						}
					],
					"name": "s_pessoa",
					"outputs": [
						{
							"internalType": "uint8",
							"name": "idade",
							"type": "uint8"
						},
						{
							"internalType": "string",
							"name": "nome",
							"type": "string"
						},
						{
							"internalType": "bool",
							"name": "ativo",
							"type": "bool"
						}
					],
					"stateMutability": "view",
					"type": "function"
				}
			],
			"devdoc": {
				"kind": "dev",
				"methods": {},
				"version": 1
			},
			"evm": {
				"assembly": "    /* \"ExemploStruct.sol\":60:595  contract ExemploStruct{... */\n  mstore(0x40, 0x80)\n  callvalue\n  dup1\n  iszero\n  tag_1\n  jumpi\n  0x00\n  dup1\n  revert\ntag_1:\n  pop\n  dataSize(sub_0)\n  dup1\n  dataOffset(sub_0)\n  0x00\n  codecopy\n  0x00\n  return\nstop\n\nsub_0: assembly {\n        /* \"ExemploStruct.sol\":60:595  contract ExemploStruct{... */\n      mstore(0x40, 0x80)\n      callvalue\n      dup1\n      iszero\n      tag_1\n      jumpi\n      0x00\n      dup1\n      revert\n    tag_1:\n      pop\n      jumpi(tag_2, lt(calldatasize, 0x04))\n      shr(0xe0, calldataload(0x00))\n      dup1\n      0x2631cfde\n      eq\n      tag_3\n      jumpi\n      dup1\n      0x300b730d\n      eq\n      tag_4\n      jumpi\n      dup1\n      0x36108f3f\n      eq\n      tag_5\n      jumpi\n      dup1\n      0x6b3be3f8\n      eq\n      tag_6\n      jumpi\n      dup1\n      0xfeac0a31\n      eq\n      tag_7\n      jumpi\n    tag_2:\n      0x00\n      dup1\n      revert\n        /* \"ExemploStruct.sol\":235:259  Pessoa[] public s_pessoa */\n    tag_3:\n      tag_8\n      0x04\n      dup1\n      calldatasize\n      sub\n      dup2\n      add\n      swap1\n      tag_9\n      swap2\n      swap1\n      tag_10\n      jump\t// in\n    tag_9:\n      tag_11\n      jump\t// in\n    tag_8:\n      mload(0x40)\n      tag_12\n      swap4\n      swap3\n      swap2\n      swap1\n      tag_13\n      jump\t// in\n    tag_12:\n      mload(0x40)\n      dup1\n      swap2\n      sub\n      swap1\n      return\n        /* \"ExemploStruct.sol\":403:592  function makePessoa(string memory _nome, uint8 _idade) public {... */\n    tag_4:\n      tag_14\n      0x04\n      dup1\n      calldatasize\n      sub\n      dup2\n      add\n      swap1\n      tag_15\n      swap2\n      swap1\n      tag_16\n      jump\t// in\n    tag_15:\n      tag_17\n      jump\t// in\n    tag_14:\n      stop\n        /* \"ExemploStruct.sol\":266:323  mapping (address wallet => Pessoa) public s_mappingPessoa */\n    tag_5:\n      tag_18\n      0x04\n      dup1\n      calldatasize\n      sub\n      dup2\n      add\n      swap1\n      tag_19\n      swap2\n      swap1\n      tag_20\n      jump\t// in\n    tag_19:\n      tag_21\n      jump\t// in\n    tag_18:\n      mload(0x40)\n      tag_22\n      swap4\n      swap3\n      swap2\n      swap1\n      tag_13\n      jump\t// in\n    tag_22:\n      mload(0x40)\n      dup1\n      swap2\n      sub\n      swap1\n      return\n        /* \"ExemploStruct.sol\":330:394  mapping (address wallet => Pessoa[]) public s_mappingArrayPessoa */\n    tag_6:\n      tag_23\n      0x04\n      dup1\n      calldatasize\n      sub\n      dup2\n      add\n      swap1\n      tag_24\n      swap2\n      swap1\n      tag_25\n      jump\t// in\n    tag_24:\n      tag_26\n      jump\t// in\n    tag_23:\n      mload(0x40)\n      tag_27\n      swap4\n      swap3\n      swap2\n      swap1\n      tag_13\n      jump\t// in\n    tag_27:\n      mload(0x40)\n      dup1\n      swap2\n      sub\n      swap1\n      return\n        /* \"ExemploStruct.sol\":185:205  Pessoa public pessoa */\n    tag_7:\n      tag_28\n      tag_29\n      jump\t// in\n    tag_28:\n      mload(0x40)\n      tag_30\n      swap4\n      swap3\n      swap2\n      swap1\n      tag_13\n      jump\t// in\n    tag_30:\n      mload(0x40)\n      dup1\n      swap2\n      sub\n      swap1\n      return\n        /* \"ExemploStruct.sol\":235:259  Pessoa[] public s_pessoa */\n    tag_11:\n      0x03\n      dup2\n      dup2\n      sload\n      dup2\n      lt\n      tag_31\n      jumpi\n      0x00\n      dup1\n      revert\n    tag_31:\n      swap1\n      0x00\n      mstore\n      keccak256(0x00, 0x20)\n      swap1\n      0x03\n      mul\n      add\n      0x00\n      swap2\n      pop\n      swap1\n      pop\n      dup1\n      0x00\n      add\n      0x00\n      swap1\n      sload\n      swap1\n      0x0100\n      exp\n      swap1\n      div\n      0xff\n      and\n      swap1\n      dup1\n      0x01\n      add\n      dup1\n      sload\n      tag_33\n      swap1\n      tag_34\n      jump\t// in\n    tag_33:\n      dup1\n      0x1f\n      add\n      0x20\n      dup1\n      swap2\n      div\n      mul\n      0x20\n      add\n      mload(0x40)\n      swap1\n      dup2\n      add\n      0x40\n      mstore\n      dup1\n      swap3\n      swap2\n      swap1\n      dup2\n      dup2\n      mstore\n      0x20\n      add\n      dup3\n      dup1\n      sload\n      tag_35\n      swap1\n      tag_34\n      jump\t// in\n    tag_35:\n      dup1\n      iszero\n      tag_36\n      jumpi\n      dup1\n      0x1f\n      lt\n      tag_37\n      jumpi\n      0x0100\n      dup1\n      dup4\n      sload\n      div\n      mul\n      dup4\n      mstore\n      swap2\n      0x20\n      add\n      swap2\n      jump(tag_36)\n    tag_37:\n      dup3\n      add\n      swap2\n      swap1\n      0x00\n      mstore\n      keccak256(0x00, 0x20)\n      swap1\n    tag_38:\n      dup2\n      sload\n      dup2\n      mstore\n      swap1\n      0x01\n      add\n      swap1\n      0x20\n      add\n      dup1\n      dup4\n      gt\n      tag_38\n      jumpi\n      dup3\n      swap1\n      sub\n      0x1f\n      and\n      dup3\n      add\n      swap2\n    tag_36:\n      pop\n      pop\n      pop\n      pop\n      pop\n      swap1\n      dup1\n      0x02\n      add\n      0x00\n      swap1\n      sload\n      swap1\n      0x0100\n      exp\n      swap1\n      div\n      0xff\n      and\n      swap1\n      pop\n      dup4\n      jump\t// out\n        /* \"ExemploStruct.sol\":403:592  function makePessoa(string memory _nome, uint8 _idade) public {... */\n    tag_17:\n        /* \"ExemploStruct.sol\":485:584  Pessoa({... */\n      mload(0x40)\n      dup1\n      0x60\n      add\n      0x40\n      mstore\n      dup1\n        /* \"ExemploStruct.sol\":540:546  _idade */\n      dup3\n        /* \"ExemploStruct.sol\":485:584  Pessoa({... */\n      0xff\n      and\n      dup2\n      mstore\n      0x20\n      add\n        /* \"ExemploStruct.sol\":513:518  _nome */\n      dup4\n        /* \"ExemploStruct.sol\":485:584  Pessoa({... */\n      dup2\n      mstore\n      0x20\n      add\n        /* \"ExemploStruct.sol\":568:572  true */\n      0x01\n        /* \"ExemploStruct.sol\":485:584  Pessoa({... */\n      iszero\n      iszero\n      dup2\n      mstore\n      pop\n        /* \"ExemploStruct.sol\":476:482  pessoa */\n      0x00\n        /* \"ExemploStruct.sol\":476:584  pessoa = Pessoa({... */\n      dup1\n      dup3\n      add\n      mload\n      dup2\n      0x00\n      add\n      exp(0x0100, 0x00)\n      dup2\n      sload\n      dup2\n      0xff\n      mul\n      not\n      and\n      swap1\n      dup4\n      0xff\n      and\n      mul\n      or\n      swap1\n      sstore\n      pop\n      0x20\n      dup3\n      add\n      mload\n      dup2\n      0x01\n      add\n      swap1\n      dup2\n      tag_40\n      swap2\n      swap1\n      tag_41\n      jump\t// in\n    tag_40:\n      pop\n      0x40\n      dup3\n      add\n      mload\n      dup2\n      0x02\n      add\n      exp(0x0100, 0x00)\n      dup2\n      sload\n      dup2\n      0xff\n      mul\n      not\n      and\n      swap1\n      dup4\n      iszero\n      iszero\n      mul\n      or\n      swap1\n      sstore\n      pop\n      swap1\n      pop\n      pop\n        /* \"ExemploStruct.sol\":403:592  function makePessoa(string memory _nome, uint8 _idade) public {... */\n      pop\n      pop\n      jump\t// out\n        /* \"ExemploStruct.sol\":266:323  mapping (address wallet => Pessoa) public s_mappingPessoa */\n    tag_21:\n      mstore(0x20, 0x04)\n      dup1\n      0x00\n      mstore\n      keccak256(0x00, 0x40)\n      0x00\n      swap2\n      pop\n      swap1\n      pop\n      dup1\n      0x00\n      add\n      0x00\n      swap1\n      sload\n      swap1\n      0x0100\n      exp\n      swap1\n      div\n      0xff\n      and\n      swap1\n      dup1\n      0x01\n      add\n      dup1\n      sload\n      tag_42\n      swap1\n      tag_34\n      jump\t// in\n    tag_42:\n      dup1\n      0x1f\n      add\n      0x20\n      dup1\n      swap2\n      div\n      mul\n      0x20\n      add\n      mload(0x40)\n      swap1\n      dup2\n      add\n      0x40\n      mstore\n      dup1\n      swap3\n      swap2\n      swap1\n      dup2\n      dup2\n      mstore\n      0x20\n      add\n      dup3\n      dup1\n      sload\n      tag_43\n      swap1\n      tag_34\n      jump\t// in\n    tag_43:\n      dup1\n      iszero\n      tag_44\n      jumpi\n      dup1\n      0x1f\n      lt\n      tag_45\n      jumpi\n      0x0100\n      dup1\n      dup4\n      sload\n      div\n      mul\n      dup4\n      mstore\n      swap2\n      0x20\n      add\n      swap2\n      jump(tag_44)\n    tag_45:\n      dup3\n      add\n      swap2\n      swap1\n      0x00\n      mstore\n      keccak256(0x00, 0x20)\n      swap1\n    tag_46:\n      dup2\n      sload\n      dup2\n      mstore\n      swap1\n      0x01\n      add\n      swap1\n      0x20\n      add\n      dup1\n      dup4\n      gt\n      tag_46\n      jumpi\n      dup3\n      swap1\n      sub\n      0x1f\n      and\n      dup3\n      add\n      swap2\n    tag_44:\n      pop\n      pop\n      pop\n      pop\n      pop\n      swap1\n      dup1\n      0x02\n      add\n      0x00\n      swap1\n      sload\n      swap1\n      0x0100\n      exp\n      swap1\n      div\n      0xff\n      and\n      swap1\n      pop\n      dup4\n      jump\t// out\n        /* \"ExemploStruct.sol\":330:394  mapping (address wallet => Pessoa[]) public s_mappingArrayPessoa */\n    tag_26:\n      mstore(0x20, 0x05)\n      dup2\n      0x00\n      mstore\n      keccak256(0x00, 0x40)\n      dup2\n      dup2\n      sload\n      dup2\n      lt\n      tag_47\n      jumpi\n      0x00\n      dup1\n      revert\n    tag_47:\n      swap1\n      0x00\n      mstore\n      keccak256(0x00, 0x20)\n      swap1\n      0x03\n      mul\n      add\n      0x00\n      swap2\n      pop\n      swap2\n      pop\n      pop\n      dup1\n      0x00\n      add\n      0x00\n      swap1\n      sload\n      swap1\n      0x0100\n      exp\n      swap1\n      div\n      0xff\n      and\n      swap1\n      dup1\n      0x01\n      add\n      dup1\n      sload\n      tag_49\n      swap1\n      tag_34\n      jump\t// in\n    tag_49:\n      dup1\n      0x1f\n      add\n      0x20\n      dup1\n      swap2\n      div\n      mul\n      0x20\n      add\n      mload(0x40)\n      swap1\n      dup2\n      add\n      0x40\n      mstore\n      dup1\n      swap3\n      swap2\n      swap1\n      dup2\n      dup2\n      mstore\n      0x20\n      add\n      dup3\n      dup1\n      sload\n      tag_50\n      swap1\n      tag_34\n      jump\t// in\n    tag_50:\n      dup1\n      iszero\n      tag_51\n      jumpi\n      dup1\n      0x1f\n      lt\n      tag_52\n      jumpi\n      0x0100\n      dup1\n      dup4\n      sload\n      div\n      mul\n      dup4\n      mstore\n      swap2\n      0x20\n      add\n      swap2\n      jump(tag_51)\n    tag_52:\n      dup3\n      add\n      swap2\n      swap1\n      0x00\n      mstore\n      keccak256(0x00, 0x20)\n      swap1\n    tag_53:\n      dup2\n      sload\n      dup2\n      mstore\n      swap1\n      0x01\n      add\n      swap1\n      0x20\n      add\n      dup1\n      dup4\n      gt\n      tag_53\n      jumpi\n      dup3\n      swap1\n      sub\n      0x1f\n      and\n      dup3\n      add\n      swap2\n    tag_51:\n      pop\n      pop\n      pop\n      pop\n      pop\n      swap1\n      dup1\n      0x02\n      add\n      0x00\n      swap1\n      sload\n      swap1\n      0x0100\n      exp\n      swap1\n      div\n      0xff\n      and\n      swap1\n      pop\n      dup4\n      jump\t// out\n        /* \"ExemploStruct.sol\":185:205  Pessoa public pessoa */\n    tag_29:\n      0x00\n      dup1\n      0x00\n      add\n      0x00\n      swap1\n      sload\n      swap1\n      0x0100\n      exp\n      swap1\n      div\n      0xff\n      and\n      swap1\n      dup1\n      0x01\n      add\n      dup1\n      sload\n      tag_54\n      swap1\n      tag_34\n      jump\t// in\n    tag_54:\n      dup1\n      0x1f\n      add\n      0x20\n      dup1\n      swap2\n      div\n      mul\n      0x20\n      add\n      mload(0x40)\n      swap1\n      dup2\n      add\n      0x40\n      mstore\n      dup1\n      swap3\n      swap2\n      swap1\n      dup2\n      dup2\n      mstore\n      0x20\n      add\n      dup3\n      dup1\n      sload\n      tag_55\n      swap1\n      tag_34\n      jump\t// in\n    tag_55:\n      dup1\n      iszero\n      tag_56\n      jumpi\n      dup1\n      0x1f\n      lt\n      tag_57\n      jumpi\n      0x0100\n      dup1\n      dup4\n      sload\n      div\n      mul\n      dup4\n      mstore\n      swap2\n      0x20\n      add\n      swap2\n      jump(tag_56)\n    tag_57:\n      dup3\n      add\n      swap2\n      swap1\n      0x00\n      mstore\n      keccak256(0x00, 0x20)\n      swap1\n    tag_58:\n      dup2\n      sload\n      dup2\n      mstore\n      swap1\n      0x01\n      add\n      swap1\n      0x20\n      add\n      dup1\n      dup4\n      gt\n      tag_58\n      jumpi\n      dup3\n      swap1\n      sub\n      0x1f\n      and\n      dup3\n      add\n      swap2\n    tag_56:\n      pop\n      pop\n      pop\n      pop\n      pop\n      swap1\n      dup1\n      0x02\n      add\n      0x00\n      swap1\n      sload\n      swap1\n      0x0100\n      exp\n      swap1\n      div\n      0xff\n      and\n      swap1\n      pop\n      dup4\n      jump\t// out\n        /* \"#utility.yul\":7:82   */\n    tag_59:\n        /* \"#utility.yul\":40:46   */\n      0x00\n        /* \"#utility.yul\":73:75   */\n      0x40\n        /* \"#utility.yul\":67:76   */\n      mload\n        /* \"#utility.yul\":57:76   */\n      swap1\n      pop\n        /* \"#utility.yul\":7:82   */\n      swap1\n      jump\t// out\n        /* \"#utility.yul\":88:205   */\n    tag_60:\n        /* \"#utility.yul\":197:198   */\n      0x00\n        /* \"#utility.yul\":194:195   */\n      dup1\n        /* \"#utility.yul\":187:199   */\n      revert\n        /* \"#utility.yul\":211:328   */\n    tag_61:\n        /* \"#utility.yul\":320:321   */\n      0x00\n        /* \"#utility.yul\":317:318   */\n      dup1\n        /* \"#utility.yul\":310:322   */\n      revert\n        /* \"#utility.yul\":334:411   */\n    tag_62:\n        /* \"#utility.yul\":371:378   */\n      0x00\n        /* \"#utility.yul\":400:405   */\n      dup2\n        /* \"#utility.yul\":389:405   */\n      swap1\n      pop\n        /* \"#utility.yul\":334:411   */\n      swap2\n      swap1\n      pop\n      jump\t// out\n        /* \"#utility.yul\":417:539   */\n    tag_63:\n        /* \"#utility.yul\":490:514   */\n      tag_111\n        /* \"#utility.yul\":508:513   */\n      dup2\n        /* \"#utility.yul\":490:514   */\n      tag_62\n      jump\t// in\n    tag_111:\n        /* \"#utility.yul\":483:488   */\n      dup2\n        /* \"#utility.yul\":480:515   */\n      eq\n        /* \"#utility.yul\":470:533   */\n      tag_112\n      jumpi\n        /* \"#utility.yul\":529:530   */\n      0x00\n        /* \"#utility.yul\":526:527   */\n      dup1\n        /* \"#utility.yul\":519:531   */\n      revert\n        /* \"#utility.yul\":470:533   */\n    tag_112:\n        /* \"#utility.yul\":417:539   */\n      pop\n      jump\t// out\n        /* \"#utility.yul\":545:684   */\n    tag_64:\n        /* \"#utility.yul\":591:596   */\n      0x00\n        /* \"#utility.yul\":629:635   */\n      dup2\n        /* \"#utility.yul\":616:636   */\n      calldataload\n        /* \"#utility.yul\":607:636   */\n      swap1\n      pop\n        /* \"#utility.yul\":645:678   */\n      tag_114\n        /* \"#utility.yul\":672:677   */\n      dup2\n        /* \"#utility.yul\":645:678   */\n      tag_63\n      jump\t// in\n    tag_114:\n        /* \"#utility.yul\":545:684   */\n      swap3\n      swap2\n      pop\n      pop\n      jump\t// out\n        /* \"#utility.yul\":690:1019   */\n    tag_10:\n        /* \"#utility.yul\":749:755   */\n      0x00\n        /* \"#utility.yul\":798:800   */\n      0x20\n        /* \"#utility.yul\":786:795   */\n      dup3\n        /* \"#utility.yul\":777:784   */\n      dup5\n        /* \"#utility.yul\":773:796   */\n      sub\n        /* \"#utility.yul\":769:801   */\n      slt\n        /* \"#utility.yul\":766:885   */\n      iszero\n      tag_116\n      jumpi\n        /* \"#utility.yul\":804:883   */\n      tag_117\n      tag_60\n      jump\t// in\n    tag_117:\n        /* \"#utility.yul\":766:885   */\n    tag_116:\n        /* \"#utility.yul\":924:925   */\n      0x00\n        /* \"#utility.yul\":949:1002   */\n      tag_118\n        /* \"#utility.yul\":994:1001   */\n      dup5\n        /* \"#utility.yul\":985:991   */\n      dup3\n        /* \"#utility.yul\":974:983   */\n      dup6\n        /* \"#utility.yul\":970:992   */\n      add\n        /* \"#utility.yul\":949:1002   */\n      tag_64\n      jump\t// in\n    tag_118:\n        /* \"#utility.yul\":939:1002   */\n      swap2\n      pop\n        /* \"#utility.yul\":895:1012   */\n      pop\n        /* \"#utility.yul\":690:1019   */\n      swap3\n      swap2\n      pop\n      pop\n      jump\t// out\n        /* \"#utility.yul\":1025:1111   */\n    tag_65:\n        /* \"#utility.yul\":1060:1067   */\n      0x00\n        /* \"#utility.yul\":1100:1104   */\n      0xff\n        /* \"#utility.yul\":1093:1098   */\n      dup3\n        /* \"#utility.yul\":1089:1105   */\n      and\n        /* \"#utility.yul\":1078:1105   */\n      swap1\n      pop\n        /* \"#utility.yul\":1025:1111   */\n      swap2\n      swap1\n      pop\n      jump\t// out\n        /* \"#utility.yul\":1117:1229   */\n    tag_66:\n        /* \"#utility.yul\":1200:1222   */\n      tag_121\n        /* \"#utility.yul\":1216:1221   */\n      dup2\n        /* \"#utility.yul\":1200:1222   */\n      tag_65\n      jump\t// in\n    tag_121:\n        /* \"#utility.yul\":1195:1198   */\n      dup3\n        /* \"#utility.yul\":1188:1223   */\n      mstore\n        /* \"#utility.yul\":1117:1229   */\n      pop\n      pop\n      jump\t// out\n        /* \"#utility.yul\":1235:1334   */\n    tag_67:\n        /* \"#utility.yul\":1287:1293   */\n      0x00\n        /* \"#utility.yul\":1321:1326   */\n      dup2\n        /* \"#utility.yul\":1315:1327   */\n      mload\n        /* \"#utility.yul\":1305:1327   */\n      swap1\n      pop\n        /* \"#utility.yul\":1235:1334   */\n      swap2\n      swap1\n      pop\n      jump\t// out\n        /* \"#utility.yul\":1340:1509   */\n    tag_68:\n        /* \"#utility.yul\":1424:1435   */\n      0x00\n        /* \"#utility.yul\":1458:1464   */\n      dup3\n        /* \"#utility.yul\":1453:1456   */\n      dup3\n        /* \"#utility.yul\":1446:1465   */\n      mstore\n        /* \"#utility.yul\":1498:1502   */\n      0x20\n        /* \"#utility.yul\":1493:1496   */\n      dup3\n        /* \"#utility.yul\":1489:1503   */\n      add\n        /* \"#utility.yul\":1474:1503   */\n      swap1\n      pop\n        /* \"#utility.yul\":1340:1509   */\n      swap3\n      swap2\n      pop\n      pop\n      jump\t// out\n        /* \"#utility.yul\":1515:1654   */\n    tag_69:\n        /* \"#utility.yul\":1604:1610   */\n      dup3\n        /* \"#utility.yul\":1599:1602   */\n      dup2\n        /* \"#utility.yul\":1594:1597   */\n      dup4\n        /* \"#utility.yul\":1588:1611   */\n      mcopy\n        /* \"#utility.yul\":1645:1646   */\n      0x00\n        /* \"#utility.yul\":1636:1642   */\n      dup4\n        /* \"#utility.yul\":1631:1634   */\n      dup4\n        /* \"#utility.yul\":1627:1643   */\n      add\n        /* \"#utility.yul\":1620:1647   */\n      mstore\n        /* \"#utility.yul\":1515:1654   */\n      pop\n      pop\n      pop\n      jump\t// out\n        /* \"#utility.yul\":1660:1762   */\n    tag_70:\n        /* \"#utility.yul\":1701:1707   */\n      0x00\n        /* \"#utility.yul\":1752:1754   */\n      0x1f\n        /* \"#utility.yul\":1748:1755   */\n      not\n        /* \"#utility.yul\":1743:1745   */\n      0x1f\n        /* \"#utility.yul\":1736:1741   */\n      dup4\n        /* \"#utility.yul\":1732:1746   */\n      add\n        /* \"#utility.yul\":1728:1756   */\n      and\n        /* \"#utility.yul\":1718:1756   */\n      swap1\n      pop\n        /* \"#utility.yul\":1660:1762   */\n      swap2\n      swap1\n      pop\n      jump\t// out\n        /* \"#utility.yul\":1768:2145   */\n    tag_71:\n        /* \"#utility.yul\":1856:1859   */\n      0x00\n        /* \"#utility.yul\":1884:1923   */\n      tag_127\n        /* \"#utility.yul\":1917:1922   */\n      dup3\n        /* \"#utility.yul\":1884:1923   */\n      tag_67\n      jump\t// in\n    tag_127:\n        /* \"#utility.yul\":1939:2010   */\n      tag_128\n        /* \"#utility.yul\":2003:2009   */\n      dup2\n        /* \"#utility.yul\":1998:2001   */\n      dup6\n        /* \"#utility.yul\":1939:2010   */\n      tag_68\n      jump\t// in\n    tag_128:\n        /* \"#utility.yul\":1932:2010   */\n      swap4\n      pop\n        /* \"#utility.yul\":2019:2084   */\n      tag_129\n        /* \"#utility.yul\":2077:2083   */\n      dup2\n        /* \"#utility.yul\":2072:2075   */\n      dup6\n        /* \"#utility.yul\":2065:2069   */\n      0x20\n        /* \"#utility.yul\":2058:2063   */\n      dup7\n        /* \"#utility.yul\":2054:2070   */\n      add\n        /* \"#utility.yul\":2019:2084   */\n      tag_69\n      jump\t// in\n    tag_129:\n        /* \"#utility.yul\":2109:2138   */\n      tag_130\n        /* \"#utility.yul\":2131:2137   */\n      dup2\n        /* \"#utility.yul\":2109:2138   */\n      tag_70\n      jump\t// in\n    tag_130:\n        /* \"#utility.yul\":2104:2107   */\n      dup5\n        /* \"#utility.yul\":2100:2139   */\n      add\n        /* \"#utility.yul\":2093:2139   */\n      swap2\n      pop\n        /* \"#utility.yul\":1860:2145   */\n      pop\n        /* \"#utility.yul\":1768:2145   */\n      swap3\n      swap2\n      pop\n      pop\n      jump\t// out\n        /* \"#utility.yul\":2151:2241   */\n    tag_72:\n        /* \"#utility.yul\":2185:2192   */\n      0x00\n        /* \"#utility.yul\":2228:2233   */\n      dup2\n        /* \"#utility.yul\":2221:2234   */\n      iszero\n        /* \"#utility.yul\":2214:2235   */\n      iszero\n        /* \"#utility.yul\":2203:2235   */\n      swap1\n      pop\n        /* \"#utility.yul\":2151:2241   */\n      swap2\n      swap1\n      pop\n      jump\t// out\n        /* \"#utility.yul\":2247:2356   */\n    tag_73:\n        /* \"#utility.yul\":2328:2349   */\n      tag_133\n        /* \"#utility.yul\":2343:2348   */\n      dup2\n        /* \"#utility.yul\":2328:2349   */\n      tag_72\n      jump\t// in\n    tag_133:\n        /* \"#utility.yul\":2323:2326   */\n      dup3\n        /* \"#utility.yul\":2316:2350   */\n      mstore\n        /* \"#utility.yul\":2247:2356   */\n      pop\n      pop\n      jump\t// out\n        /* \"#utility.yul\":2362:2875   */\n    tag_13:\n        /* \"#utility.yul\":2521:2525   */\n      0x00\n        /* \"#utility.yul\":2559:2561   */\n      0x60\n        /* \"#utility.yul\":2548:2557   */\n      dup3\n        /* \"#utility.yul\":2544:2562   */\n      add\n        /* \"#utility.yul\":2536:2562   */\n      swap1\n      pop\n        /* \"#utility.yul\":2572:2639   */\n      tag_135\n        /* \"#utility.yul\":2636:2637   */\n      0x00\n        /* \"#utility.yul\":2625:2634   */\n      dup4\n        /* \"#utility.yul\":2621:2638   */\n      add\n        /* \"#utility.yul\":2612:2618   */\n      dup7\n        /* \"#utility.yul\":2572:2639   */\n      tag_66\n      jump\t// in\n    tag_135:\n        /* \"#utility.yul\":2686:2695   */\n      dup2\n        /* \"#utility.yul\":2680:2684   */\n      dup2\n        /* \"#utility.yul\":2676:2696   */\n      sub\n        /* \"#utility.yul\":2671:2673   */\n      0x20\n        /* \"#utility.yul\":2660:2669   */\n      dup4\n        /* \"#utility.yul\":2656:2674   */\n      add\n        /* \"#utility.yul\":2649:2697   */\n      mstore\n        /* \"#utility.yul\":2714:2792   */\n      tag_136\n        /* \"#utility.yul\":2787:2791   */\n      dup2\n        /* \"#utility.yul\":2778:2784   */\n      dup6\n        /* \"#utility.yul\":2714:2792   */\n      tag_71\n      jump\t// in\n    tag_136:\n        /* \"#utility.yul\":2706:2792   */\n      swap1\n      pop\n        /* \"#utility.yul\":2802:2868   */\n      tag_137\n        /* \"#utility.yul\":2864:2866   */\n      0x40\n        /* \"#utility.yul\":2853:2862   */\n      dup4\n        /* \"#utility.yul\":2849:2867   */\n      add\n        /* \"#utility.yul\":2840:2846   */\n      dup5\n        /* \"#utility.yul\":2802:2868   */\n      tag_73\n      jump\t// in\n    tag_137:\n        /* \"#utility.yul\":2362:2875   */\n      swap5\n      swap4\n      pop\n      pop\n      pop\n      pop\n      jump\t// out\n        /* \"#utility.yul\":2881:2998   */\n    tag_74:\n        /* \"#utility.yul\":2990:2991   */\n      0x00\n        /* \"#utility.yul\":2987:2988   */\n      dup1\n        /* \"#utility.yul\":2980:2992   */\n      revert\n        /* \"#utility.yul\":3004:3121   */\n    tag_75:\n        /* \"#utility.yul\":3113:3114   */\n      0x00\n        /* \"#utility.yul\":3110:3111   */\n      dup1\n        /* \"#utility.yul\":3103:3115   */\n      revert\n        /* \"#utility.yul\":3127:3307   */\n    tag_76:\n        /* \"#utility.yul\":3175:3252   */\n      0x4e487b7100000000000000000000000000000000000000000000000000000000\n        /* \"#utility.yul\":3172:3173   */\n      0x00\n        /* \"#utility.yul\":3165:3253   */\n      mstore\n        /* \"#utility.yul\":3272:3276   */\n      0x41\n        /* \"#utility.yul\":3269:3270   */\n      0x04\n        /* \"#utility.yul\":3262:3277   */\n      mstore\n        /* \"#utility.yul\":3296:3300   */\n      0x24\n        /* \"#utility.yul\":3293:3294   */\n      0x00\n        /* \"#utility.yul\":3286:3301   */\n      revert\n        /* \"#utility.yul\":3313:3594   */\n    tag_77:\n        /* \"#utility.yul\":3396:3423   */\n      tag_142\n        /* \"#utility.yul\":3418:3422   */\n      dup3\n        /* \"#utility.yul\":3396:3423   */\n      tag_70\n      jump\t// in\n    tag_142:\n        /* \"#utility.yul\":3388:3394   */\n      dup2\n        /* \"#utility.yul\":3384:3424   */\n      add\n        /* \"#utility.yul\":3526:3532   */\n      dup2\n        /* \"#utility.yul\":3514:3524   */\n      dup2\n        /* \"#utility.yul\":3511:3533   */\n      lt\n        /* \"#utility.yul\":3490:3508   */\n      0xffffffffffffffff\n        /* \"#utility.yul\":3478:3488   */\n      dup3\n        /* \"#utility.yul\":3475:3509   */\n      gt\n        /* \"#utility.yul\":3472:3534   */\n      or\n        /* \"#utility.yul\":3469:3557   */\n      iszero\n      tag_143\n      jumpi\n        /* \"#utility.yul\":3537:3555   */\n      tag_144\n      tag_76\n      jump\t// in\n    tag_144:\n        /* \"#utility.yul\":3469:3557   */\n    tag_143:\n        /* \"#utility.yul\":3577:3587   */\n      dup1\n        /* \"#utility.yul\":3573:3575   */\n      0x40\n        /* \"#utility.yul\":3566:3588   */\n      mstore\n        /* \"#utility.yul\":3356:3594   */\n      pop\n        /* \"#utility.yul\":3313:3594   */\n      pop\n      pop\n      jump\t// out\n        /* \"#utility.yul\":3600:3729   */\n    tag_78:\n        /* \"#utility.yul\":3634:3640   */\n      0x00\n        /* \"#utility.yul\":3661:3681   */\n      tag_146\n      tag_59\n      jump\t// in\n    tag_146:\n        /* \"#utility.yul\":3651:3681   */\n      swap1\n      pop\n        /* \"#utility.yul\":3690:3723   */\n      tag_147\n        /* \"#utility.yul\":3718:3722   */\n      dup3\n        /* \"#utility.yul\":3710:3716   */\n      dup3\n        /* \"#utility.yul\":3690:3723   */\n      tag_77\n      jump\t// in\n    tag_147:\n        /* \"#utility.yul\":3600:3729   */\n      swap2\n      swap1\n      pop\n      jump\t// out\n        /* \"#utility.yul\":3735:4043   */\n    tag_79:\n        /* \"#utility.yul\":3797:3801   */\n      0x00\n        /* \"#utility.yul\":3887:3905   */\n      0xffffffffffffffff\n        /* \"#utility.yul\":3879:3885   */\n      dup3\n        /* \"#utility.yul\":3876:3906   */\n      gt\n        /* \"#utility.yul\":3873:3929   */\n      iszero\n      tag_149\n      jumpi\n        /* \"#utility.yul\":3909:3927   */\n      tag_150\n      tag_76\n      jump\t// in\n    tag_150:\n        /* \"#utility.yul\":3873:3929   */\n    tag_149:\n        /* \"#utility.yul\":3947:3976   */\n      tag_151\n        /* \"#utility.yul\":3969:3975   */\n      dup3\n        /* \"#utility.yul\":3947:3976   */\n      tag_70\n      jump\t// in\n    tag_151:\n        /* \"#utility.yul\":3939:3976   */\n      swap1\n      pop\n        /* \"#utility.yul\":4031:4035   */\n      0x20\n        /* \"#utility.yul\":4025:4029   */\n      dup2\n        /* \"#utility.yul\":4021:4036   */\n      add\n        /* \"#utility.yul\":4013:4036   */\n      swap1\n      pop\n        /* \"#utility.yul\":3735:4043   */\n      swap2\n      swap1\n      pop\n      jump\t// out\n        /* \"#utility.yul\":4049:4197   */\n    tag_80:\n        /* \"#utility.yul\":4147:4153   */\n      dup3\n        /* \"#utility.yul\":4142:4145   */\n      dup2\n        /* \"#utility.yul\":4137:4140   */\n      dup4\n        /* \"#utility.yul\":4124:4154   */\n      calldatacopy\n        /* \"#utility.yul\":4188:4189   */\n      0x00\n        /* \"#utility.yul\":4179:4185   */\n      dup4\n        /* \"#utility.yul\":4174:4177   */\n      dup4\n        /* \"#utility.yul\":4170:4186   */\n      add\n        /* \"#utility.yul\":4163:4190   */\n      mstore\n        /* \"#utility.yul\":4049:4197   */\n      pop\n      pop\n      pop\n      jump\t// out\n        /* \"#utility.yul\":4203:4628   */\n    tag_81:\n        /* \"#utility.yul\":4281:4286   */\n      0x00\n        /* \"#utility.yul\":4306:4372   */\n      tag_154\n        /* \"#utility.yul\":4322:4371   */\n      tag_155\n        /* \"#utility.yul\":4364:4370   */\n      dup5\n        /* \"#utility.yul\":4322:4371   */\n      tag_79\n      jump\t// in\n    tag_155:\n        /* \"#utility.yul\":4306:4372   */\n      tag_78\n      jump\t// in\n    tag_154:\n        /* \"#utility.yul\":4297:4372   */\n      swap1\n      pop\n        /* \"#utility.yul\":4395:4401   */\n      dup3\n        /* \"#utility.yul\":4388:4393   */\n      dup2\n        /* \"#utility.yul\":4381:4402   */\n      mstore\n        /* \"#utility.yul\":4433:4437   */\n      0x20\n        /* \"#utility.yul\":4426:4431   */\n      dup2\n        /* \"#utility.yul\":4422:4438   */\n      add\n        /* \"#utility.yul\":4471:4474   */\n      dup5\n        /* \"#utility.yul\":4462:4468   */\n      dup5\n        /* \"#utility.yul\":4457:4460   */\n      dup5\n        /* \"#utility.yul\":4453:4469   */\n      add\n        /* \"#utility.yul\":4450:4475   */\n      gt\n        /* \"#utility.yul\":4447:4559   */\n      iszero\n      tag_156\n      jumpi\n        /* \"#utility.yul\":4478:4557   */\n      tag_157\n      tag_75\n      jump\t// in\n    tag_157:\n        /* \"#utility.yul\":4447:4559   */\n    tag_156:\n        /* \"#utility.yul\":4568:4622   */\n      tag_158\n        /* \"#utility.yul\":4615:4621   */\n      dup5\n        /* \"#utility.yul\":4610:4613   */\n      dup3\n        /* \"#utility.yul\":4605:4608   */\n      dup6\n        /* \"#utility.yul\":4568:4622   */\n      tag_80\n      jump\t// in\n    tag_158:\n        /* \"#utility.yul\":4287:4628   */\n      pop\n        /* \"#utility.yul\":4203:4628   */\n      swap4\n      swap3\n      pop\n      pop\n      pop\n      jump\t// out\n        /* \"#utility.yul\":4648:4988   */\n    tag_82:\n        /* \"#utility.yul\":4704:4709   */\n      0x00\n        /* \"#utility.yul\":4753:4756   */\n      dup3\n        /* \"#utility.yul\":4746:4750   */\n      0x1f\n        /* \"#utility.yul\":4738:4744   */\n      dup4\n        /* \"#utility.yul\":4734:4751   */\n      add\n        /* \"#utility.yul\":4730:4757   */\n      slt\n        /* \"#utility.yul\":4720:4842   */\n      tag_160\n      jumpi\n        /* \"#utility.yul\":4761:4840   */\n      tag_161\n      tag_74\n      jump\t// in\n    tag_161:\n        /* \"#utility.yul\":4720:4842   */\n    tag_160:\n        /* \"#utility.yul\":4878:4884   */\n      dup2\n        /* \"#utility.yul\":4865:4885   */\n      calldataload\n        /* \"#utility.yul\":4903:4982   */\n      tag_162\n        /* \"#utility.yul\":4978:4981   */\n      dup5\n        /* \"#utility.yul\":4970:4976   */\n      dup3\n        /* \"#utility.yul\":4963:4967   */\n      0x20\n        /* \"#utility.yul\":4955:4961   */\n      dup7\n        /* \"#utility.yul\":4951:4968   */\n      add\n        /* \"#utility.yul\":4903:4982   */\n      tag_81\n      jump\t// in\n    tag_162:\n        /* \"#utility.yul\":4894:4982   */\n      swap2\n      pop\n        /* \"#utility.yul\":4710:4988   */\n      pop\n        /* \"#utility.yul\":4648:4988   */\n      swap3\n      swap2\n      pop\n      pop\n      jump\t// out\n        /* \"#utility.yul\":4994:5112   */\n    tag_83:\n        /* \"#utility.yul\":5065:5087   */\n      tag_164\n        /* \"#utility.yul\":5081:5086   */\n      dup2\n        /* \"#utility.yul\":5065:5087   */\n      tag_65\n      jump\t// in\n    tag_164:\n        /* \"#utility.yul\":5058:5063   */\n      dup2\n        /* \"#utility.yul\":5055:5088   */\n      eq\n        /* \"#utility.yul\":5045:5106   */\n      tag_165\n      jumpi\n        /* \"#utility.yul\":5102:5103   */\n      0x00\n        /* \"#utility.yul\":5099:5100   */\n      dup1\n        /* \"#utility.yul\":5092:5104   */\n      revert\n        /* \"#utility.yul\":5045:5106   */\n    tag_165:\n        /* \"#utility.yul\":4994:5112   */\n      pop\n      jump\t// out\n        /* \"#utility.yul\":5118:5253   */\n    tag_84:\n        /* \"#utility.yul\":5162:5167   */\n      0x00\n        /* \"#utility.yul\":5200:5206   */\n      dup2\n        /* \"#utility.yul\":5187:5207   */\n      calldataload\n        /* \"#utility.yul\":5178:5207   */\n      swap1\n      pop\n        /* \"#utility.yul\":5216:5247   */\n      tag_167\n        /* \"#utility.yul\":5241:5246   */\n      dup2\n        /* \"#utility.yul\":5216:5247   */\n      tag_83\n      jump\t// in\n    tag_167:\n        /* \"#utility.yul\":5118:5253   */\n      swap3\n      swap2\n      pop\n      pop\n      jump\t// out\n        /* \"#utility.yul\":5259:5909   */\n    tag_16:\n        /* \"#utility.yul\":5335:5341   */\n      0x00\n        /* \"#utility.yul\":5343:5349   */\n      dup1\n        /* \"#utility.yul\":5392:5394   */\n      0x40\n        /* \"#utility.yul\":5380:5389   */\n      dup4\n        /* \"#utility.yul\":5371:5378   */\n      dup6\n        /* \"#utility.yul\":5367:5390   */\n      sub\n        /* \"#utility.yul\":5363:5395   */\n      slt\n        /* \"#utility.yul\":5360:5479   */\n      iszero\n      tag_169\n      jumpi\n        /* \"#utility.yul\":5398:5477   */\n      tag_170\n      tag_60\n      jump\t// in\n    tag_170:\n        /* \"#utility.yul\":5360:5479   */\n    tag_169:\n        /* \"#utility.yul\":5546:5547   */\n      0x00\n        /* \"#utility.yul\":5535:5544   */\n      dup4\n        /* \"#utility.yul\":5531:5548   */\n      add\n        /* \"#utility.yul\":5518:5549   */\n      calldataload\n        /* \"#utility.yul\":5576:5594   */\n      0xffffffffffffffff\n        /* \"#utility.yul\":5568:5574   */\n      dup2\n        /* \"#utility.yul\":5565:5595   */\n      gt\n        /* \"#utility.yul\":5562:5679   */\n      iszero\n      tag_171\n      jumpi\n        /* \"#utility.yul\":5598:5677   */\n      tag_172\n      tag_61\n      jump\t// in\n    tag_172:\n        /* \"#utility.yul\":5562:5679   */\n    tag_171:\n        /* \"#utility.yul\":5703:5766   */\n      tag_173\n        /* \"#utility.yul\":5758:5765   */\n      dup6\n        /* \"#utility.yul\":5749:5755   */\n      dup3\n        /* \"#utility.yul\":5738:5747   */\n      dup7\n        /* \"#utility.yul\":5734:5756   */\n      add\n        /* \"#utility.yul\":5703:5766   */\n      tag_82\n      jump\t// in\n    tag_173:\n        /* \"#utility.yul\":5693:5766   */\n      swap3\n      pop\n        /* \"#utility.yul\":5489:5776   */\n      pop\n        /* \"#utility.yul\":5815:5817   */\n      0x20\n        /* \"#utility.yul\":5841:5892   */\n      tag_174\n        /* \"#utility.yul\":5884:5891   */\n      dup6\n        /* \"#utility.yul\":5875:5881   */\n      dup3\n        /* \"#utility.yul\":5864:5873   */\n      dup7\n        /* \"#utility.yul\":5860:5882   */\n      add\n        /* \"#utility.yul\":5841:5892   */\n      tag_84\n      jump\t// in\n    tag_174:\n        /* \"#utility.yul\":5831:5892   */\n      swap2\n      pop\n        /* \"#utility.yul\":5786:5902   */\n      pop\n        /* \"#utility.yul\":5259:5909   */\n      swap3\n      pop\n      swap3\n      swap1\n      pop\n      jump\t// out\n        /* \"#utility.yul\":5915:6041   */\n    tag_85:\n        /* \"#utility.yul\":5952:5959   */\n      0x00\n        /* \"#utility.yul\":5992:6034   */\n      0xffffffffffffffffffffffffffffffffffffffff\n        /* \"#utility.yul\":5985:5990   */\n      dup3\n        /* \"#utility.yul\":5981:6035   */\n      and\n        /* \"#utility.yul\":5970:6035   */\n      swap1\n      pop\n        /* \"#utility.yul\":5915:6041   */\n      swap2\n      swap1\n      pop\n      jump\t// out\n        /* \"#utility.yul\":6047:6143   */\n    tag_86:\n        /* \"#utility.yul\":6084:6091   */\n      0x00\n        /* \"#utility.yul\":6113:6137   */\n      tag_177\n        /* \"#utility.yul\":6131:6136   */\n      dup3\n        /* \"#utility.yul\":6113:6137   */\n      tag_85\n      jump\t// in\n    tag_177:\n        /* \"#utility.yul\":6102:6137   */\n      swap1\n      pop\n        /* \"#utility.yul\":6047:6143   */\n      swap2\n      swap1\n      pop\n      jump\t// out\n        /* \"#utility.yul\":6149:6271   */\n    tag_87:\n        /* \"#utility.yul\":6222:6246   */\n      tag_179\n        /* \"#utility.yul\":6240:6245   */\n      dup2\n        /* \"#utility.yul\":6222:6246   */\n      tag_86\n      jump\t// in\n    tag_179:\n        /* \"#utility.yul\":6215:6220   */\n      dup2\n        /* \"#utility.yul\":6212:6247   */\n      eq\n        /* \"#utility.yul\":6202:6265   */\n      tag_180\n      jumpi\n        /* \"#utility.yul\":6261:6262   */\n      0x00\n        /* \"#utility.yul\":6258:6259   */\n      dup1\n        /* \"#utility.yul\":6251:6263   */\n      revert\n        /* \"#utility.yul\":6202:6265   */\n    tag_180:\n        /* \"#utility.yul\":6149:6271   */\n      pop\n      jump\t// out\n        /* \"#utility.yul\":6277:6416   */\n    tag_88:\n        /* \"#utility.yul\":6323:6328   */\n      0x00\n        /* \"#utility.yul\":6361:6367   */\n      dup2\n        /* \"#utility.yul\":6348:6368   */\n      calldataload\n        /* \"#utility.yul\":6339:6368   */\n      swap1\n      pop\n        /* \"#utility.yul\":6377:6410   */\n      tag_182\n        /* \"#utility.yul\":6404:6409   */\n      dup2\n        /* \"#utility.yul\":6377:6410   */\n      tag_87\n      jump\t// in\n    tag_182:\n        /* \"#utility.yul\":6277:6416   */\n      swap3\n      swap2\n      pop\n      pop\n      jump\t// out\n        /* \"#utility.yul\":6422:6751   */\n    tag_20:\n        /* \"#utility.yul\":6481:6487   */\n      0x00\n        /* \"#utility.yul\":6530:6532   */\n      0x20\n        /* \"#utility.yul\":6518:6527   */\n      dup3\n        /* \"#utility.yul\":6509:6516   */\n      dup5\n        /* \"#utility.yul\":6505:6528   */\n      sub\n        /* \"#utility.yul\":6501:6533   */\n      slt\n        /* \"#utility.yul\":6498:6617   */\n      iszero\n      tag_184\n      jumpi\n        /* \"#utility.yul\":6536:6615   */\n      tag_185\n      tag_60\n      jump\t// in\n    tag_185:\n        /* \"#utility.yul\":6498:6617   */\n    tag_184:\n        /* \"#utility.yul\":6656:6657   */\n      0x00\n        /* \"#utility.yul\":6681:6734   */\n      tag_186\n        /* \"#utility.yul\":6726:6733   */\n      dup5\n        /* \"#utility.yul\":6717:6723   */\n      dup3\n        /* \"#utility.yul\":6706:6715   */\n      dup6\n        /* \"#utility.yul\":6702:6724   */\n      add\n        /* \"#utility.yul\":6681:6734   */\n      tag_88\n      jump\t// in\n    tag_186:\n        /* \"#utility.yul\":6671:6734   */\n      swap2\n      pop\n        /* \"#utility.yul\":6627:6744   */\n      pop\n        /* \"#utility.yul\":6422:6751   */\n      swap3\n      swap2\n      pop\n      pop\n      jump\t// out\n        /* \"#utility.yul\":6757:7231   */\n    tag_25:\n        /* \"#utility.yul\":6825:6831   */\n      0x00\n        /* \"#utility.yul\":6833:6839   */\n      dup1\n        /* \"#utility.yul\":6882:6884   */\n      0x40\n        /* \"#utility.yul\":6870:6879   */\n      dup4\n        /* \"#utility.yul\":6861:6868   */\n      dup6\n        /* \"#utility.yul\":6857:6880   */\n      sub\n        /* \"#utility.yul\":6853:6885   */\n      slt\n        /* \"#utility.yul\":6850:6969   */\n      iszero\n      tag_188\n      jumpi\n        /* \"#utility.yul\":6888:6967   */\n      tag_189\n      tag_60\n      jump\t// in\n    tag_189:\n        /* \"#utility.yul\":6850:6969   */\n    tag_188:\n        /* \"#utility.yul\":7008:7009   */\n      0x00\n        /* \"#utility.yul\":7033:7086   */\n      tag_190\n        /* \"#utility.yul\":7078:7085   */\n      dup6\n        /* \"#utility.yul\":7069:7075   */\n      dup3\n        /* \"#utility.yul\":7058:7067   */\n      dup7\n        /* \"#utility.yul\":7054:7076   */\n      add\n        /* \"#utility.yul\":7033:7086   */\n      tag_88\n      jump\t// in\n    tag_190:\n        /* \"#utility.yul\":7023:7086   */\n      swap3\n      pop\n        /* \"#utility.yul\":6979:7096   */\n      pop\n        /* \"#utility.yul\":7135:7137   */\n      0x20\n        /* \"#utility.yul\":7161:7214   */\n      tag_191\n        /* \"#utility.yul\":7206:7213   */\n      dup6\n        /* \"#utility.yul\":7197:7203   */\n      dup3\n        /* \"#utility.yul\":7186:7195   */\n      dup7\n        /* \"#utility.yul\":7182:7204   */\n      add\n        /* \"#utility.yul\":7161:7214   */\n      tag_64\n      jump\t// in\n    tag_191:\n        /* \"#utility.yul\":7151:7214   */\n      swap2\n      pop\n        /* \"#utility.yul\":7106:7224   */\n      pop\n        /* \"#utility.yul\":6757:7231   */\n      swap3\n      pop\n      swap3\n      swap1\n      pop\n      jump\t// out\n        /* \"#utility.yul\":7237:7417   */\n    tag_89:\n        /* \"#utility.yul\":7285:7362   */\n      0x4e487b7100000000000000000000000000000000000000000000000000000000\n        /* \"#utility.yul\":7282:7283   */\n      0x00\n        /* \"#utility.yul\":7275:7363   */\n      mstore\n        /* \"#utility.yul\":7382:7386   */\n      0x22\n        /* \"#utility.yul\":7379:7380   */\n      0x04\n        /* \"#utility.yul\":7372:7387   */\n      mstore\n        /* \"#utility.yul\":7406:7410   */\n      0x24\n        /* \"#utility.yul\":7403:7404   */\n      0x00\n        /* \"#utility.yul\":7396:7411   */\n      revert\n        /* \"#utility.yul\":7423:7743   */\n    tag_34:\n        /* \"#utility.yul\":7467:7473   */\n      0x00\n        /* \"#utility.yul\":7504:7505   */\n      0x02\n        /* \"#utility.yul\":7498:7502   */\n      dup3\n        /* \"#utility.yul\":7494:7506   */\n      div\n        /* \"#utility.yul\":7484:7506   */\n      swap1\n      pop\n        /* \"#utility.yul\":7551:7552   */\n      0x01\n        /* \"#utility.yul\":7545:7549   */\n      dup3\n        /* \"#utility.yul\":7541:7553   */\n      and\n        /* \"#utility.yul\":7572:7590   */\n      dup1\n        /* \"#utility.yul\":7562:7643   */\n      tag_194\n      jumpi\n        /* \"#utility.yul\":7628:7632   */\n      0x7f\n        /* \"#utility.yul\":7620:7626   */\n      dup3\n        /* \"#utility.yul\":7616:7633   */\n      and\n        /* \"#utility.yul\":7606:7633   */\n      swap2\n      pop\n        /* \"#utility.yul\":7562:7643   */\n    tag_194:\n        /* \"#utility.yul\":7690:7692   */\n      0x20\n        /* \"#utility.yul\":7682:7688   */\n      dup3\n        /* \"#utility.yul\":7679:7693   */\n      lt\n        /* \"#utility.yul\":7659:7677   */\n      dup2\n        /* \"#utility.yul\":7656:7694   */\n      sub\n        /* \"#utility.yul\":7653:7737   */\n      tag_195\n      jumpi\n        /* \"#utility.yul\":7709:7727   */\n      tag_196\n      tag_89\n      jump\t// in\n    tag_196:\n        /* \"#utility.yul\":7653:7737   */\n    tag_195:\n        /* \"#utility.yul\":7474:7743   */\n      pop\n        /* \"#utility.yul\":7423:7743   */\n      swap2\n      swap1\n      pop\n      jump\t// out\n        /* \"#utility.yul\":7749:7890   */\n    tag_90:\n        /* \"#utility.yul\":7798:7802   */\n      0x00\n        /* \"#utility.yul\":7821:7824   */\n      dup2\n        /* \"#utility.yul\":7813:7824   */\n      swap1\n      pop\n        /* \"#utility.yul\":7844:7847   */\n      dup2\n        /* \"#utility.yul\":7841:7842   */\n      0x00\n        /* \"#utility.yul\":7834:7848   */\n      mstore\n        /* \"#utility.yul\":7878:7882   */\n      0x20\n        /* \"#utility.yul\":7875:7876   */\n      0x00\n        /* \"#utility.yul\":7865:7883   */\n      keccak256\n        /* \"#utility.yul\":7857:7883   */\n      swap1\n      pop\n        /* \"#utility.yul\":7749:7890   */\n      swap2\n      swap1\n      pop\n      jump\t// out\n        /* \"#utility.yul\":7896:7989   */\n    tag_91:\n        /* \"#utility.yul\":7933:7939   */\n      0x00\n        /* \"#utility.yul\":7980:7982   */\n      0x20\n        /* \"#utility.yul\":7975:7977   */\n      0x1f\n        /* \"#utility.yul\":7968:7973   */\n      dup4\n        /* \"#utility.yul\":7964:7978   */\n      add\n        /* \"#utility.yul\":7960:7983   */\n      div\n        /* \"#utility.yul\":7950:7983   */\n      swap1\n      pop\n        /* \"#utility.yul\":7896:7989   */\n      swap2\n      swap1\n      pop\n      jump\t// out\n        /* \"#utility.yul\":7995:8102   */\n    tag_92:\n        /* \"#utility.yul\":8039:8047   */\n      0x00\n        /* \"#utility.yul\":8089:8094   */\n      dup3\n        /* \"#utility.yul\":8083:8087   */\n      dup3\n        /* \"#utility.yul\":8079:8095   */\n      shl\n        /* \"#utility.yul\":8058:8095   */\n      swap1\n      pop\n        /* \"#utility.yul\":7995:8102   */\n      swap3\n      swap2\n      pop\n      pop\n      jump\t// out\n        /* \"#utility.yul\":8108:8501   */\n    tag_93:\n        /* \"#utility.yul\":8177:8183   */\n      0x00\n        /* \"#utility.yul\":8227:8228   */\n      0x08\n        /* \"#utility.yul\":8215:8225   */\n      dup4\n        /* \"#utility.yul\":8211:8229   */\n      mul\n        /* \"#utility.yul\":8250:8347   */\n      tag_201\n        /* \"#utility.yul\":8280:8346   */\n      0xffffffffffffffffffffffffffffffffffffffffffffffffffffffffffffffff\n        /* \"#utility.yul\":8269:8278   */\n      dup3\n        /* \"#utility.yul\":8250:8347   */\n      tag_92\n      jump\t// in\n    tag_201:\n        /* \"#utility.yul\":8368:8407   */\n      tag_202\n        /* \"#utility.yul\":8398:8406   */\n      dup7\n        /* \"#utility.yul\":8387:8396   */\n      dup4\n        /* \"#utility.yul\":8368:8407   */\n      tag_92\n      jump\t// in\n    tag_202:\n        /* \"#utility.yul\":8356:8407   */\n      swap6\n      pop\n        /* \"#utility.yul\":8440:8444   */\n      dup1\n        /* \"#utility.yul\":8436:8445   */\n      not\n        /* \"#utility.yul\":8429:8434   */\n      dup5\n        /* \"#utility.yul\":8425:8446   */\n      and\n        /* \"#utility.yul\":8416:8446   */\n      swap4\n      pop\n        /* \"#utility.yul\":8489:8493   */\n      dup1\n        /* \"#utility.yul\":8479:8487   */\n      dup7\n        /* \"#utility.yul\":8475:8494   */\n      and\n        /* \"#utility.yul\":8468:8473   */\n      dup5\n        /* \"#utility.yul\":8465:8495   */\n      or\n        /* \"#utility.yul\":8455:8495   */\n      swap3\n      pop\n        /* \"#utility.yul\":8184:8501   */\n      pop\n      pop\n        /* \"#utility.yul\":8108:8501   */\n      swap4\n      swap3\n      pop\n      pop\n      pop\n      jump\t// out\n        /* \"#utility.yul\":8507:8567   */\n    tag_94:\n        /* \"#utility.yul\":8535:8538   */\n      0x00\n        /* \"#utility.yul\":8556:8561   */\n      dup2\n        /* \"#utility.yul\":8549:8561   */\n      swap1\n      pop\n        /* \"#utility.yul\":8507:8567   */\n      swap2\n      swap1\n      pop\n      jump\t// out\n        /* \"#utility.yul\":8573:8715   */\n    tag_95:\n        /* \"#utility.yul\":8623:8632   */\n      0x00\n        /* \"#utility.yul\":8656:8709   */\n      tag_205\n        /* \"#utility.yul\":8674:8708   */\n      tag_206\n        /* \"#utility.yul\":8683:8707   */\n      tag_207\n        /* \"#utility.yul\":8701:8706   */\n      dup5\n        /* \"#utility.yul\":8683:8707   */\n      tag_62\n      jump\t// in\n    tag_207:\n        /* \"#utility.yul\":8674:8708   */\n      tag_94\n      jump\t// in\n    tag_206:\n        /* \"#utility.yul\":8656:8709   */\n      tag_62\n      jump\t// in\n    tag_205:\n        /* \"#utility.yul\":8643:8709   */\n      swap1\n      pop\n        /* \"#utility.yul\":8573:8715   */\n      swap2\n      swap1\n      pop\n      jump\t// out\n        /* \"#utility.yul\":8721:8796   */\n    tag_96:\n        /* \"#utility.yul\":8764:8767   */\n      0x00\n        /* \"#utility.yul\":8785:8790   */\n      dup2\n        /* \"#utility.yul\":8778:8790   */\n      swap1\n      pop\n        /* \"#utility.yul\":8721:8796   */\n      swap2\n      swap1\n      pop\n      jump\t// out\n        /* \"#utility.yul\":8802:9071   */\n    tag_97:\n        /* \"#utility.yul\":8912:8951   */\n      tag_210\n        /* \"#utility.yul\":8943:8950   */\n      dup4\n        /* \"#utility.yul\":8912:8951   */\n      tag_95\n      jump\t// in\n    tag_210:\n        /* \"#utility.yul\":8973:9064   */\n      tag_211\n        /* \"#utility.yul\":9022:9063   */\n      tag_212\n        /* \"#utility.yul\":9046:9062   */\n      dup3\n        /* \"#utility.yul\":9022:9063   */\n      tag_96\n      jump\t// in\n    tag_212:\n        /* \"#utility.yul\":9014:9020   */\n      dup5\n        /* \"#utility.yul\":9007:9011   */\n      dup5\n        /* \"#utility.yul\":9001:9012   */\n      sload\n        /* \"#utility.yul\":8973:9064   */\n      tag_93\n      jump\t// in\n    tag_211:\n        /* \"#utility.yul\":8967:8971   */\n      dup3\n        /* \"#utility.yul\":8960:9065   */\n      sstore\n        /* \"#utility.yul\":8878:9071   */\n      pop\n        /* \"#utility.yul\":8802:9071   */\n      pop\n      pop\n      pop\n      jump\t// out\n        /* \"#utility.yul\":9077:9150   */\n    tag_98:\n        /* \"#utility.yul\":9122:9125   */\n      0x00\n        /* \"#utility.yul\":9077:9150   */\n      swap1\n      jump\t// out\n        /* \"#utility.yul\":9156:9345   */\n    tag_99:\n        /* \"#utility.yul\":9233:9265   */\n      tag_215\n      tag_98\n      jump\t// in\n    tag_215:\n        /* \"#utility.yul\":9274:9339   */\n      tag_216\n        /* \"#utility.yul\":9332:9338   */\n      dup2\n        /* \"#utility.yul\":9324:9330   */\n      dup5\n        /* \"#utility.yul\":9318:9322   */\n      dup5\n        /* \"#utility.yul\":9274:9339   */\n      tag_97\n      jump\t// in\n    tag_216:\n        /* \"#utility.yul\":9209:9345   */\n      pop\n        /* \"#utility.yul\":9156:9345   */\n      pop\n      pop\n      jump\t// out\n        /* \"#utility.yul\":9351:9537   */\n    tag_100:\n        /* \"#utility.yul\":9411:9531   */\n    tag_218:\n        /* \"#utility.yul\":9428:9431   */\n      dup2\n        /* \"#utility.yul\":9421:9426   */\n      dup2\n        /* \"#utility.yul\":9418:9432   */\n      lt\n        /* \"#utility.yul\":9411:9531   */\n      iszero\n      tag_220\n      jumpi\n        /* \"#utility.yul\":9482:9521   */\n      tag_221\n        /* \"#utility.yul\":9519:9520   */\n      0x00\n        /* \"#utility.yul\":9512:9517   */\n      dup3\n        /* \"#utility.yul\":9482:9521   */\n      tag_99\n      jump\t// in\n    tag_221:\n        /* \"#utility.yul\":9455:9456   */\n      0x01\n        /* \"#utility.yul\":9448:9453   */\n      dup2\n        /* \"#utility.yul\":9444:9457   */\n      add\n        /* \"#utility.yul\":9435:9457   */\n      swap1\n      pop\n        /* \"#utility.yul\":9411:9531   */\n      jump(tag_218)\n    tag_220:\n        /* \"#utility.yul\":9351:9537   */\n      pop\n      pop\n      jump\t// out\n        /* \"#utility.yul\":9543:10086   */\n    tag_101:\n        /* \"#utility.yul\":9644:9646   */\n      0x1f\n        /* \"#utility.yul\":9639:9642   */\n      dup3\n        /* \"#utility.yul\":9636:9647   */\n      gt\n        /* \"#utility.yul\":9633:10079   */\n      iszero\n      tag_223\n      jumpi\n        /* \"#utility.yul\":9678:9716   */\n      tag_224\n        /* \"#utility.yul\":9710:9715   */\n      dup2\n        /* \"#utility.yul\":9678:9716   */\n      tag_90\n      jump\t// in\n    tag_224:\n        /* \"#utility.yul\":9762:9791   */\n      tag_225\n        /* \"#utility.yul\":9780:9790   */\n      dup5\n        /* \"#utility.yul\":9762:9791   */\n      tag_91\n      jump\t// in\n    tag_225:\n        /* \"#utility.yul\":9752:9760   */\n      dup2\n        /* \"#utility.yul\":9748:9792   */\n      add\n        /* \"#utility.yul\":9945:9947   */\n      0x20\n        /* \"#utility.yul\":9933:9943   */\n      dup6\n        /* \"#utility.yul\":9930:9948   */\n      lt\n        /* \"#utility.yul\":9927:9976   */\n      iszero\n      tag_226\n      jumpi\n        /* \"#utility.yul\":9966:9974   */\n      dup2\n        /* \"#utility.yul\":9951:9974   */\n      swap1\n      pop\n        /* \"#utility.yul\":9927:9976   */\n    tag_226:\n        /* \"#utility.yul\":9989:10069   */\n      tag_227\n        /* \"#utility.yul\":10045:10067   */\n      tag_228\n        /* \"#utility.yul\":10063:10066   */\n      dup6\n        /* \"#utility.yul\":10045:10067   */\n      tag_91\n      jump\t// in\n    tag_228:\n        /* \"#utility.yul\":10035:10043   */\n      dup4\n        /* \"#utility.yul\":10031:10068   */\n      add\n        /* \"#utility.yul\":10018:10029   */\n      dup3\n        /* \"#utility.yul\":9989:10069   */\n      tag_100\n      jump\t// in\n    tag_227:\n        /* \"#utility.yul\":9648:10079   */\n      pop\n      pop\n        /* \"#utility.yul\":9633:10079   */\n    tag_223:\n        /* \"#utility.yul\":9543:10086   */\n      pop\n      pop\n      pop\n      jump\t// out\n        /* \"#utility.yul\":10092:10209   */\n    tag_102:\n        /* \"#utility.yul\":10146:10154   */\n      0x00\n        /* \"#utility.yul\":10196:10201   */\n      dup3\n        /* \"#utility.yul\":10190:10194   */\n      dup3\n        /* \"#utility.yul\":10186:10202   */\n      shr\n        /* \"#utility.yul\":10165:10202   */\n      swap1\n      pop\n        /* \"#utility.yul\":10092:10209   */\n      swap3\n      swap2\n      pop\n      pop\n      jump\t// out\n        /* \"#utility.yul\":10215:10384   */\n    tag_103:\n        /* \"#utility.yul\":10259:10265   */\n      0x00\n        /* \"#utility.yul\":10292:10343   */\n      tag_231\n        /* \"#utility.yul\":10340:10341   */\n      0x00\n        /* \"#utility.yul\":10336:10342   */\n      not\n        /* \"#utility.yul\":10328:10333   */\n      dup5\n        /* \"#utility.yul\":10325:10326   */\n      0x08\n        /* \"#utility.yul\":10321:10334   */\n      mul\n        /* \"#utility.yul\":10292:10343   */\n      tag_102\n      jump\t// in\n    tag_231:\n        /* \"#utility.yul\":10288:10344   */\n      not\n        /* \"#utility.yul\":10373:10377   */\n      dup1\n        /* \"#utility.yul\":10367:10371   */\n      dup4\n        /* \"#utility.yul\":10363:10378   */\n      and\n        /* \"#utility.yul\":10353:10378   */\n      swap2\n      pop\n        /* \"#utility.yul\":10266:10384   */\n      pop\n        /* \"#utility.yul\":10215:10384   */\n      swap3\n      swap2\n      pop\n      pop\n      jump\t// out\n        /* \"#utility.yul\":10389:10684   */\n    tag_104:\n        /* \"#utility.yul\":10465:10469   */\n      0x00\n        /* \"#utility.yul\":10611:10640   */\n      tag_233\n        /* \"#utility.yul\":10636:10639   */\n      dup4\n        /* \"#utility.yul\":10630:10634   */\n      dup4\n        /* \"#utility.yul\":10611:10640   */\n      tag_103\n      jump\t// in\n    tag_233:\n        /* \"#utility.yul\":10603:10640   */\n      swap2\n      pop\n        /* \"#utility.yul\":10673:10676   */\n      dup3\n        /* \"#utility.yul\":10670:10671   */\n      0x02\n        /* \"#utility.yul\":10666:10677   */\n      mul\n        /* \"#utility.yul\":10660:10664   */\n      dup3\n        /* \"#utility.yul\":10657:10678   */\n      or\n        /* \"#utility.yul\":10649:10678   */\n      swap1\n      pop\n        /* \"#utility.yul\":10389:10684   */\n      swap3\n      swap2\n      pop\n      pop\n      jump\t// out\n        /* \"#utility.yul\":10689:12084   */\n    tag_41:\n        /* \"#utility.yul\":10806:10843   */\n      tag_235\n        /* \"#utility.yul\":10839:10842   */\n      dup3\n        /* \"#utility.yul\":10806:10843   */\n      tag_67\n      jump\t// in\n    tag_235:\n        /* \"#utility.yul\":10908:10926   */\n      0xffffffffffffffff\n        /* \"#utility.yul\":10900:10906   */\n      dup2\n        /* \"#utility.yul\":10897:10927   */\n      gt\n        /* \"#utility.yul\":10894:10950   */\n      iszero\n      tag_236\n      jumpi\n        /* \"#utility.yul\":10930:10948   */\n      tag_237\n      tag_76\n      jump\t// in\n    tag_237:\n        /* \"#utility.yul\":10894:10950   */\n    tag_236:\n        /* \"#utility.yul\":10974:11012   */\n      tag_238\n        /* \"#utility.yul\":11006:11010   */\n      dup3\n        /* \"#utility.yul\":11000:11011   */\n      sload\n        /* \"#utility.yul\":10974:11012   */\n      tag_34\n      jump\t// in\n    tag_238:\n        /* \"#utility.yul\":11059:11126   */\n      tag_239\n        /* \"#utility.yul\":11119:11125   */\n      dup3\n        /* \"#utility.yul\":11111:11117   */\n      dup3\n        /* \"#utility.yul\":11105:11109   */\n      dup6\n        /* \"#utility.yul\":11059:11126   */\n      tag_101\n      jump\t// in\n    tag_239:\n        /* \"#utility.yul\":11153:11154   */\n      0x00\n        /* \"#utility.yul\":11177:11181   */\n      0x20\n        /* \"#utility.yul\":11164:11181   */\n      swap1\n      pop\n        /* \"#utility.yul\":11209:11211   */\n      0x1f\n        /* \"#utility.yul\":11201:11207   */\n      dup4\n        /* \"#utility.yul\":11198:11212   */\n      gt\n        /* \"#utility.yul\":11226:11227   */\n      0x01\n        /* \"#utility.yul\":11221:11839   */\n      dup2\n      eq\n      tag_241\n      jumpi\n        /* \"#utility.yul\":11883:11884   */\n      0x00\n        /* \"#utility.yul\":11900:11906   */\n      dup5\n        /* \"#utility.yul\":11897:11974   */\n      iszero\n      tag_242\n      jumpi\n        /* \"#utility.yul\":11949:11958   */\n      dup3\n        /* \"#utility.yul\":11944:11947   */\n      dup8\n        /* \"#utility.yul\":11940:11959   */\n      add\n        /* \"#utility.yul\":11934:11960   */\n      mload\n        /* \"#utility.yul\":11925:11960   */\n      swap1\n      pop\n        /* \"#utility.yul\":11897:11974   */\n    tag_242:\n        /* \"#utility.yul\":12000:12067   */\n      tag_243\n        /* \"#utility.yul\":12060:12066   */\n      dup6\n        /* \"#utility.yul\":12053:12058   */\n      dup3\n        /* \"#utility.yul\":12000:12067   */\n      tag_104\n      jump\t// in\n    tag_243:\n        /* \"#utility.yul\":11994:11998   */\n      dup7\n        /* \"#utility.yul\":11987:12068   */\n      sstore\n        /* \"#utility.yul\":11856:12078   */\n      pop\n        /* \"#utility.yul\":11191:12078   */\n      jump(tag_240)\n        /* \"#utility.yul\":11221:11839   */\n    tag_241:\n        /* \"#utility.yul\":11273:11277   */\n      0x1f\n        /* \"#utility.yul\":11269:11278   */\n      not\n        /* \"#utility.yul\":11261:11267   */\n      dup5\n        /* \"#utility.yul\":11257:11279   */\n      and\n        /* \"#utility.yul\":11307:11344   */\n      tag_244\n        /* \"#utility.yul\":11339:11343   */\n      dup7\n        /* \"#utility.yul\":11307:11344   */\n      tag_90\n      jump\t// in\n    tag_244:\n        /* \"#utility.yul\":11366:11367   */\n      0x00\n        /* \"#utility.yul\":11380:11588   */\n    tag_245:\n        /* \"#utility.yul\":11394:11401   */\n      dup3\n        /* \"#utility.yul\":11391:11392   */\n      dup2\n        /* \"#utility.yul\":11388:11402   */\n      lt\n        /* \"#utility.yul\":11380:11588   */\n      iszero\n      tag_247\n      jumpi\n        /* \"#utility.yul\":11473:11482   */\n      dup5\n        /* \"#utility.yul\":11468:11471   */\n      dup10\n        /* \"#utility.yul\":11464:11483   */\n      add\n        /* \"#utility.yul\":11458:11484   */\n      mload\n        /* \"#utility.yul\":11450:11456   */\n      dup3\n        /* \"#utility.yul\":11443:11485   */\n      sstore\n        /* \"#utility.yul\":11524:11525   */\n      0x01\n        /* \"#utility.yul\":11516:11522   */\n      dup3\n        /* \"#utility.yul\":11512:11526   */\n      add\n        /* \"#utility.yul\":11502:11526   */\n      swap2\n      pop\n        /* \"#utility.yul\":11571:11573   */\n      0x20\n        /* \"#utility.yul\":11560:11569   */\n      dup6\n        /* \"#utility.yul\":11556:11574   */\n      add\n        /* \"#utility.yul\":11543:11574   */\n      swap5\n      pop\n        /* \"#utility.yul\":11417:11421   */\n      0x20\n        /* \"#utility.yul\":11414:11415   */\n      dup2\n        /* \"#utility.yul\":11410:11422   */\n      add\n        /* \"#utility.yul\":11405:11422   */\n      swap1\n      pop\n        /* \"#utility.yul\":11380:11588   */\n      jump(tag_245)\n    tag_247:\n        /* \"#utility.yul\":11616:11622   */\n      dup7\n        /* \"#utility.yul\":11607:11614   */\n      dup4\n        /* \"#utility.yul\":11604:11623   */\n      lt\n        /* \"#utility.yul\":11601:11780   */\n      iszero\n      tag_248\n      jumpi\n        /* \"#utility.yul\":11674:11683   */\n      dup5\n        /* \"#utility.yul\":11669:11672   */\n      dup10\n        /* \"#utility.yul\":11665:11684   */\n      add\n        /* \"#utility.yul\":11659:11685   */\n      mload\n        /* \"#utility.yul\":11717:11765   */\n      tag_249\n        /* \"#utility.yul\":11759:11763   */\n      0x1f\n        /* \"#utility.yul\":11751:11757   */\n      dup10\n        /* \"#utility.yul\":11747:11764   */\n      and\n        /* \"#utility.yul\":11736:11745   */\n      dup3\n        /* \"#utility.yul\":11717:11765   */\n      tag_103\n      jump\t// in\n    tag_249:\n        /* \"#utility.yul\":11709:11715   */\n      dup4\n        /* \"#utility.yul\":11702:11766   */\n      sstore\n        /* \"#utility.yul\":11624:11780   */\n      pop\n        /* \"#utility.yul\":11601:11780   */\n    tag_248:\n        /* \"#utility.yul\":11826:11827   */\n      0x01\n        /* \"#utility.yul\":11822:11823   */\n      0x02\n        /* \"#utility.yul\":11814:11820   */\n      dup9\n        /* \"#utility.yul\":11810:11824   */\n      mul\n        /* \"#utility.yul\":11806:11828   */\n      add\n        /* \"#utility.yul\":11800:11804   */\n      dup9\n        /* \"#utility.yul\":11793:11829   */\n      sstore\n        /* \"#utility.yul\":11228:11839   */\n      pop\n      pop\n      pop\n        /* \"#utility.yul\":11191:12078   */\n    tag_240:\n      pop\n        /* \"#utility.yul\":10781:12084   */\n      pop\n      pop\n      pop\n        /* \"#utility.yul\":10689:12084   */\n      pop\n      pop\n      jump\t// out\n\n    auxdata: 0xa2646970667358221220212ce2e272f7573159324179c670cc376ed1addd280429c6a1846836f19d8f3e64736f6c634300081a0033\n}\n",
				"bytecode": {
					"linkReferences": {},
					"object": "6080604052348015600e575f80fd5b50610b928061001c5f395ff3fe608060405234801561000f575f80fd5b5060043610610055575f3560e01c80632631cfde14610059578063300b730d1461008b57806336108f3f146100a75780636b3be3f8146100d9578063feac0a311461010b575b5f80fd5b610073600480360381019061006e9190610514565b61012b565b604051610082939291906105e4565b60405180910390f35b6100a560048036038101906100a09190610776565b6101fe565b005b6100c160048036038101906100bc919061082a565b61027a565b6040516100d0939291906105e4565b60405180910390f35b6100f360048036038101906100ee9190610855565b61033e565b604051610102939291906105e4565b60405180910390f35b61011361041c565b604051610122939291906105e4565b60405180910390f35b6003818154811061013a575f80fd5b905f5260205f2090600302015f91509050805f015f9054906101000a900460ff169080600101805461016b906108c0565b80601f0160208091040260200160405190810160405280929190818152602001828054610197906108c0565b80156101e25780601f106101b9576101008083540402835291602001916101e2565b820191905f5260205f20905b8154815290600101906020018083116101c557829003601f168201915b505050505090806002015f9054906101000a900460ff16905083565b60405180606001604052808260ff168152602001838152602001600115158152505f80820151815f015f6101000a81548160ff021916908360ff16021790555060208201518160010190816102539190610a8d565b506040820151816002015f6101000a81548160ff0219169083151502179055509050505050565b6004602052805f5260405f205f91509050805f015f9054906101000a900460ff16908060010180546102ab906108c0565b80601f01602080910402602001604051908101604052809291908181526020018280546102d7906108c0565b80156103225780601f106102f957610100808354040283529160200191610322565b820191905f5260205f20905b81548152906001019060200180831161030557829003601f168201915b505050505090806002015f9054906101000a900460ff16905083565b6005602052815f5260405f208181548110610357575f80fd5b905f5260205f2090600302015f9150915050805f015f9054906101000a900460ff1690806001018054610389906108c0565b80601f01602080910402602001604051908101604052809291908181526020018280546103b5906108c0565b80156104005780601f106103d757610100808354040283529160200191610400565b820191905f5260205f20905b8154815290600101906020018083116103e357829003601f168201915b505050505090806002015f9054906101000a900460ff16905083565b5f805f015f9054906101000a900460ff169080600101805461043d906108c0565b80601f0160208091040260200160405190810160405280929190818152602001828054610469906108c0565b80156104b45780601f1061048b576101008083540402835291602001916104b4565b820191905f5260205f20905b81548152906001019060200180831161049757829003601f168201915b505050505090806002015f9054906101000a900460ff16905083565b5f604051905090565b5f80fd5b5f80fd5b5f819050919050565b6104f3816104e1565b81146104fd575f80fd5b50565b5f8135905061050e816104ea565b92915050565b5f60208284031215610529576105286104d9565b5b5f61053684828501610500565b91505092915050565b5f60ff82169050919050565b6105548161053f565b82525050565b5f81519050919050565b5f82825260208201905092915050565b8281835e5f83830152505050565b5f601f19601f8301169050919050565b5f61059c8261055a565b6105a68185610564565b93506105b6818560208601610574565b6105bf81610582565b840191505092915050565b5f8115159050919050565b6105de816105ca565b82525050565b5f6060820190506105f75f83018661054b565b81810360208301526106098185610592565b905061061860408301846105d5565b949350505050565b5f80fd5b5f80fd5b7f4e487b71000000000000000000000000000000000000000000000000000000005f52604160045260245ffd5b61065e82610582565b810181811067ffffffffffffffff8211171561067d5761067c610628565b5b80604052505050565b5f61068f6104d0565b905061069b8282610655565b919050565b5f67ffffffffffffffff8211156106ba576106b9610628565b5b6106c382610582565b9050602081019050919050565b828183375f83830152505050565b5f6106f06106eb846106a0565b610686565b90508281526020810184848401111561070c5761070b610624565b5b6107178482856106d0565b509392505050565b5f82601f83011261073357610732610620565b5b81356107438482602086016106de565b91505092915050565b6107558161053f565b811461075f575f80fd5b50565b5f813590506107708161074c565b92915050565b5f806040838503121561078c5761078b6104d9565b5b5f83013567ffffffffffffffff8111156107a9576107a86104dd565b5b6107b58582860161071f565b92505060206107c685828601610762565b9150509250929050565b5f73ffffffffffffffffffffffffffffffffffffffff82169050919050565b5f6107f9826107d0565b9050919050565b610809816107ef565b8114610813575f80fd5b50565b5f8135905061082481610800565b92915050565b5f6020828403121561083f5761083e6104d9565b5b5f61084c84828501610816565b91505092915050565b5f806040838503121561086b5761086a6104d9565b5b5f61087885828601610816565b925050602061088985828601610500565b9150509250929050565b7f4e487b71000000000000000000000000000000000000000000000000000000005f52602260045260245ffd5b5f60028204905060018216806108d757607f821691505b6020821081036108ea576108e9610893565b5b50919050565b5f819050815f5260205f209050919050565b5f6020601f8301049050919050565b5f82821b905092915050565b5f6008830261094c7fffffffffffffffffffffffffffffffffffffffffffffffffffffffffffffffff82610911565b6109568683610911565b95508019841693508086168417925050509392505050565b5f819050919050565b5f61099161098c610987846104e1565b61096e565b6104e1565b9050919050565b5f819050919050565b6109aa83610977565b6109be6109b682610998565b84845461091d565b825550505050565b5f90565b6109d26109c6565b6109dd8184846109a1565b505050565b5b81811015610a00576109f55f826109ca565b6001810190506109e3565b5050565b601f821115610a4557610a16816108f0565b610a1f84610902565b81016020851015610a2e578190505b610a42610a3a85610902565b8301826109e2565b50505b505050565b5f82821c905092915050565b5f610a655f1984600802610a4a565b1980831691505092915050565b5f610a7d8383610a56565b9150826002028217905092915050565b610a968261055a565b67ffffffffffffffff811115610aaf57610aae610628565b5b610ab982546108c0565b610ac4828285610a04565b5f60209050601f831160018114610af5575f8415610ae3578287015190505b610aed8582610a72565b865550610b54565b601f198416610b03866108f0565b5f5b82811015610b2a57848901518255600182019150602085019450602081019050610b05565b86831015610b475784890151610b43601f891682610a56565b8355505b6001600288020188555050505b50505050505056fea2646970667358221220212ce2e272f7573159324179c670cc376ed1addd280429c6a1846836f19d8f3e64736f6c634300081a0033",
					"opcodes": "PUSH1 0x80 PUSH1 0x40 MSTORE CALLVALUE DUP1 ISZERO PUSH1 0xE JUMPI PUSH0 DUP1 REVERT JUMPDEST POP PUSH2 0xB92 DUP1 PUSH2 0x1C PUSH0 CODECOPY PUSH0 RETURN INVALID PUSH1 0x80 PUSH1 0x40 MSTORE CALLVALUE DUP1 ISZERO PUSH2 0xF JUMPI PUSH0 DUP1 REVERT JUMPDEST POP PUSH1 0x4 CALLDATASIZE LT PUSH2 0x55 JUMPI PUSH0 CALLDATALOAD PUSH1 0xE0 SHR DUP1 PUSH4 0x2631CFDE EQ PUSH2 0x59 JUMPI DUP1 PUSH4 0x300B730D EQ PUSH2 0x8B JUMPI DUP1 PUSH4 0x36108F3F EQ PUSH2 0xA7 JUMPI DUP1 PUSH4 0x6B3BE3F8 EQ PUSH2 0xD9 JUMPI DUP1 PUSH4 0xFEAC0A31 EQ PUSH2 0x10B JUMPI JUMPDEST PUSH0 DUP1 REVERT JUMPDEST PUSH2 0x73 PUSH1 0x4 DUP1 CALLDATASIZE SUB DUP2 ADD SWAP1 PUSH2 0x6E SWAP2 SWAP1 PUSH2 0x514 JUMP JUMPDEST PUSH2 0x12B JUMP JUMPDEST PUSH1 0x40 MLOAD PUSH2 0x82 SWAP4 SWAP3 SWAP2 SWAP1 PUSH2 0x5E4 JUMP JUMPDEST PUSH1 0x40 MLOAD DUP1 SWAP2 SUB SWAP1 RETURN JUMPDEST PUSH2 0xA5 PUSH1 0x4 DUP1 CALLDATASIZE SUB DUP2 ADD SWAP1 PUSH2 0xA0 SWAP2 SWAP1 PUSH2 0x776 JUMP JUMPDEST PUSH2 0x1FE JUMP JUMPDEST STOP JUMPDEST PUSH2 0xC1 PUSH1 0x4 DUP1 CALLDATASIZE SUB DUP2 ADD SWAP1 PUSH2 0xBC SWAP2 SWAP1 PUSH2 0x82A JUMP JUMPDEST PUSH2 0x27A JUMP JUMPDEST PUSH1 0x40 MLOAD PUSH2 0xD0 SWAP4 SWAP3 SWAP2 SWAP1 PUSH2 0x5E4 JUMP JUMPDEST PUSH1 0x40 MLOAD DUP1 SWAP2 SUB SWAP1 RETURN JUMPDEST PUSH2 0xF3 PUSH1 0x4 DUP1 CALLDATASIZE SUB DUP2 ADD SWAP1 PUSH2 0xEE SWAP2 SWAP1 PUSH2 0x855 JUMP JUMPDEST PUSH2 0x33E JUMP JUMPDEST PUSH1 0x40 MLOAD PUSH2 0x102 SWAP4 SWAP3 SWAP2 SWAP1 PUSH2 0x5E4 JUMP JUMPDEST PUSH1 0x40 MLOAD DUP1 SWAP2 SUB SWAP1 RETURN JUMPDEST PUSH2 0x113 PUSH2 0x41C JUMP JUMPDEST PUSH1 0x40 MLOAD PUSH2 0x122 SWAP4 SWAP3 SWAP2 SWAP1 PUSH2 0x5E4 JUMP JUMPDEST PUSH1 0x40 MLOAD DUP1 SWAP2 SUB SWAP1 RETURN JUMPDEST PUSH1 0x3 DUP2 DUP2 SLOAD DUP2 LT PUSH2 0x13A JUMPI PUSH0 DUP1 REVERT JUMPDEST SWAP1 PUSH0 MSTORE PUSH1 0x20 PUSH0 KECCAK256 SWAP1 PUSH1 0x3 MUL ADD PUSH0 SWAP2 POP SWAP1 POP DUP1 PUSH0 ADD PUSH0 SWAP1 SLOAD SWAP1 PUSH2 0x100 EXP SWAP1 DIV PUSH1 0xFF AND SWAP1 DUP1 PUSH1 0x1 ADD DUP1 SLOAD PUSH2 0x16B SWAP1 PUSH2 0x8C0 JUMP JUMPDEST DUP1 PUSH1 0x1F ADD PUSH1 0x20 DUP1 SWAP2 DIV MUL PUSH1 0x20 ADD PUSH1 0x40 MLOAD SWAP1 DUP2 ADD PUSH1 0x40 MSTORE DUP1 SWAP3 SWAP2 SWAP1 DUP2 DUP2 MSTORE PUSH1 0x20 ADD DUP3 DUP1 SLOAD PUSH2 0x197 SWAP1 PUSH2 0x8C0 JUMP JUMPDEST DUP1 ISZERO PUSH2 0x1E2 JUMPI DUP1 PUSH1 0x1F LT PUSH2 0x1B9 JUMPI PUSH2 0x100 DUP1 DUP4 SLOAD DIV MUL DUP4 MSTORE SWAP2 PUSH1 0x20 ADD SWAP2 PUSH2 0x1E2 JUMP JUMPDEST DUP3 ADD SWAP2 SWAP1 PUSH0 MSTORE PUSH1 0x20 PUSH0 KECCAK256 SWAP1 JUMPDEST DUP2 SLOAD DUP2 MSTORE SWAP1 PUSH1 0x1 ADD SWAP1 PUSH1 0x20 ADD DUP1 DUP4 GT PUSH2 0x1C5 JUMPI DUP3 SWAP1 SUB PUSH1 0x1F AND DUP3 ADD SWAP2 JUMPDEST POP POP POP POP POP SWAP1 DUP1 PUSH1 0x2 ADD PUSH0 SWAP1 SLOAD SWAP1 PUSH2 0x100 EXP SWAP1 DIV PUSH1 0xFF AND SWAP1 POP DUP4 JUMP JUMPDEST PUSH1 0x40 MLOAD DUP1 PUSH1 0x60 ADD PUSH1 0x40 MSTORE DUP1 DUP3 PUSH1 0xFF AND DUP2 MSTORE PUSH1 0x20 ADD DUP4 DUP2 MSTORE PUSH1 0x20 ADD PUSH1 0x1 ISZERO ISZERO DUP2 MSTORE POP PUSH0 DUP1 DUP3 ADD MLOAD DUP2 PUSH0 ADD PUSH0 PUSH2 0x100 EXP DUP2 SLOAD DUP2 PUSH1 0xFF MUL NOT AND SWAP1 DUP4 PUSH1 0xFF AND MUL OR SWAP1 SSTORE POP PUSH1 0x20 DUP3 ADD MLOAD DUP2 PUSH1 0x1 ADD SWAP1 DUP2 PUSH2 0x253 SWAP2 SWAP1 PUSH2 0xA8D JUMP JUMPDEST POP PUSH1 0x40 DUP3 ADD MLOAD DUP2 PUSH1 0x2 ADD PUSH0 PUSH2 0x100 EXP DUP2 SLOAD DUP2 PUSH1 0xFF MUL NOT AND SWAP1 DUP4 ISZERO ISZERO MUL OR SWAP1 SSTORE POP SWAP1 POP POP POP POP JUMP JUMPDEST PUSH1 0x4 PUSH1 0x20 MSTORE DUP1 PUSH0 MSTORE PUSH1 0x40 PUSH0 KECCAK256 PUSH0 SWAP2 POP SWAP1 POP DUP1 PUSH0 ADD PUSH0 SWAP1 SLOAD SWAP1 PUSH2 0x100 EXP SWAP1 DIV PUSH1 0xFF AND SWAP1 DUP1 PUSH1 0x1 ADD DUP1 SLOAD PUSH2 0x2AB SWAP1 PUSH2 0x8C0 JUMP JUMPDEST DUP1 PUSH1 0x1F ADD PUSH1 0x20 DUP1 SWAP2 DIV MUL PUSH1 0x20 ADD PUSH1 0x40 MLOAD SWAP1 DUP2 ADD PUSH1 0x40 MSTORE DUP1 SWAP3 SWAP2 SWAP1 DUP2 DUP2 MSTORE PUSH1 0x20 ADD DUP3 DUP1 SLOAD PUSH2 0x2D7 SWAP1 PUSH2 0x8C0 JUMP JUMPDEST DUP1 ISZERO PUSH2 0x322 JUMPI DUP1 PUSH1 0x1F LT PUSH2 0x2F9 JUMPI PUSH2 0x100 DUP1 DUP4 SLOAD DIV MUL DUP4 MSTORE SWAP2 PUSH1 0x20 ADD SWAP2 PUSH2 0x322 JUMP JUMPDEST DUP3 ADD SWAP2 SWAP1 PUSH0 MSTORE PUSH1 0x20 PUSH0 KECCAK256 SWAP1 JUMPDEST DUP2 SLOAD DUP2 MSTORE SWAP1 PUSH1 0x1 ADD SWAP1 PUSH1 0x20 ADD DUP1 DUP4 GT PUSH2 0x305 JUMPI DUP3 SWAP1 SUB PUSH1 0x1F AND DUP3 ADD SWAP2 JUMPDEST POP POP POP POP POP SWAP1 DUP1 PUSH1 0x2 ADD PUSH0 SWAP1 SLOAD SWAP1 PUSH2 0x100 EXP SWAP1 DIV PUSH1 0xFF AND SWAP1 POP DUP4 JUMP JUMPDEST PUSH1 0x5 PUSH1 0x20 MSTORE DUP2 PUSH0 MSTORE PUSH1 0x40 PUSH0 KECCAK256 DUP2 DUP2 SLOAD DUP2 LT PUSH2 0x357 JUMPI PUSH0 DUP1 REVERT JUMPDEST SWAP1 PUSH0 MSTORE PUSH1 0x20 PUSH0 KECCAK256 SWAP1 PUSH1 0x3 MUL ADD PUSH0 SWAP2 POP SWAP2 POP POP DUP1 PUSH0 ADD PUSH0 SWAP1 SLOAD SWAP1 PUSH2 0x100 EXP SWAP1 DIV PUSH1 0xFF AND SWAP1 DUP1 PUSH1 0x1 ADD DUP1 SLOAD PUSH2 0x389 SWAP1 PUSH2 0x8C0 JUMP JUMPDEST DUP1 PUSH1 0x1F ADD PUSH1 0x20 DUP1 SWAP2 DIV MUL PUSH1 0x20 ADD PUSH1 0x40 MLOAD SWAP1 DUP2 ADD PUSH1 0x40 MSTORE DUP1 SWAP3 SWAP2 SWAP1 DUP2 DUP2 MSTORE PUSH1 0x20 ADD DUP3 DUP1 SLOAD PUSH2 0x3B5 SWAP1 PUSH2 0x8C0 JUMP JUMPDEST DUP1 ISZERO PUSH2 0x400 JUMPI DUP1 PUSH1 0x1F LT PUSH2 0x3D7 JUMPI PUSH2 0x100 DUP1 DUP4 SLOAD DIV MUL DUP4 MSTORE SWAP2 PUSH1 0x20 ADD SWAP2 PUSH2 0x400 JUMP JUMPDEST DUP3 ADD SWAP2 SWAP1 PUSH0 MSTORE PUSH1 0x20 PUSH0 KECCAK256 SWAP1 JUMPDEST DUP2 SLOAD DUP2 MSTORE SWAP1 PUSH1 0x1 ADD SWAP1 PUSH1 0x20 ADD DUP1 DUP4 GT PUSH2 0x3E3 JUMPI DUP3 SWAP1 SUB PUSH1 0x1F AND DUP3 ADD SWAP2 JUMPDEST POP POP POP POP POP SWAP1 DUP1 PUSH1 0x2 ADD PUSH0 SWAP1 SLOAD SWAP1 PUSH2 0x100 EXP SWAP1 DIV PUSH1 0xFF AND SWAP1 POP DUP4 JUMP JUMPDEST PUSH0 DUP1 PUSH0 ADD PUSH0 SWAP1 SLOAD SWAP1 PUSH2 0x100 EXP SWAP1 DIV PUSH1 0xFF AND SWAP1 DUP1 PUSH1 0x1 ADD DUP1 SLOAD PUSH2 0x43D SWAP1 PUSH2 0x8C0 JUMP JUMPDEST DUP1 PUSH1 0x1F ADD PUSH1 0x20 DUP1 SWAP2 DIV MUL PUSH1 0x20 ADD PUSH1 0x40 MLOAD SWAP1 DUP2 ADD PUSH1 0x40 MSTORE DUP1 SWAP3 SWAP2 SWAP1 DUP2 DUP2 MSTORE PUSH1 0x20 ADD DUP3 DUP1 SLOAD PUSH2 0x469 SWAP1 PUSH2 0x8C0 JUMP JUMPDEST DUP1 ISZERO PUSH2 0x4B4 JUMPI DUP1 PUSH1 0x1F LT PUSH2 0x48B JUMPI PUSH2 0x100 DUP1 DUP4 SLOAD DIV MUL DUP4 MSTORE SWAP2 PUSH1 0x20 ADD SWAP2 PUSH2 0x4B4 JUMP JUMPDEST DUP3 ADD SWAP2 SWAP1 PUSH0 MSTORE PUSH1 0x20 PUSH0 KECCAK256 SWAP1 JUMPDEST DUP2 SLOAD DUP2 MSTORE SWAP1 PUSH1 0x1 ADD SWAP1 PUSH1 0x20 ADD DUP1 DUP4 GT PUSH2 0x497 JUMPI DUP3 SWAP1 SUB PUSH1 0x1F AND DUP3 ADD SWAP2 JUMPDEST POP POP POP POP POP SWAP1 DUP1 PUSH1 0x2 ADD PUSH0 SWAP1 SLOAD SWAP1 PUSH2 0x100 EXP SWAP1 DIV PUSH1 0xFF AND SWAP1 POP DUP4 JUMP JUMPDEST PUSH0 PUSH1 0x40 MLOAD SWAP1 POP SWAP1 JUMP JUMPDEST PUSH0 DUP1 REVERT JUMPDEST PUSH0 DUP1 REVERT JUMPDEST PUSH0 DUP2 SWAP1 POP SWAP2 SWAP1 POP JUMP JUMPDEST PUSH2 0x4F3 DUP2 PUSH2 0x4E1 JUMP JUMPDEST DUP2 EQ PUSH2 0x4FD JUMPI PUSH0 DUP1 REVERT JUMPDEST POP JUMP JUMPDEST PUSH0 DUP2 CALLDATALOAD SWAP1 POP PUSH2 0x50E DUP2 PUSH2 0x4EA JUMP JUMPDEST SWAP3 SWAP2 POP POP JUMP JUMPDEST PUSH0 PUSH1 0x20 DUP3 DUP5 SUB SLT ISZERO PUSH2 0x529 JUMPI PUSH2 0x528 PUSH2 0x4D9 JUMP JUMPDEST JUMPDEST PUSH0 PUSH2 0x536 DUP5 DUP3 DUP6 ADD PUSH2 0x500 JUMP JUMPDEST SWAP2 POP POP SWAP3 SWAP2 POP POP JUMP JUMPDEST PUSH0 PUSH1 0xFF DUP3 AND SWAP1 POP SWAP2 SWAP1 POP JUMP JUMPDEST PUSH2 0x554 DUP2 PUSH2 0x53F JUMP JUMPDEST DUP3 MSTORE POP POP JUMP JUMPDEST PUSH0 DUP2 MLOAD SWAP1 POP SWAP2 SWAP1 POP JUMP JUMPDEST PUSH0 DUP3 DUP3 MSTORE PUSH1 0x20 DUP3 ADD SWAP1 POP SWAP3 SWAP2 POP POP JUMP JUMPDEST DUP3 DUP2 DUP4 MCOPY PUSH0 DUP4 DUP4 ADD MSTORE POP POP POP JUMP JUMPDEST PUSH0 PUSH1 0x1F NOT PUSH1 0x1F DUP4 ADD AND SWAP1 POP SWAP2 SWAP1 POP JUMP JUMPDEST PUSH0 PUSH2 0x59C DUP3 PUSH2 0x55A JUMP JUMPDEST PUSH2 0x5A6 DUP2 DUP6 PUSH2 0x564 JUMP JUMPDEST SWAP4 POP PUSH2 0x5B6 DUP2 DUP6 PUSH1 0x20 DUP7 ADD PUSH2 0x574 JUMP JUMPDEST PUSH2 0x5BF DUP2 PUSH2 0x582 JUMP JUMPDEST DUP5 ADD SWAP2 POP POP SWAP3 SWAP2 POP POP JUMP JUMPDEST PUSH0 DUP2 ISZERO ISZERO SWAP1 POP SWAP2 SWAP1 POP JUMP JUMPDEST PUSH2 0x5DE DUP2 PUSH2 0x5CA JUMP JUMPDEST DUP3 MSTORE POP POP JUMP JUMPDEST PUSH0 PUSH1 0x60 DUP3 ADD SWAP1 POP PUSH2 0x5F7 PUSH0 DUP4 ADD DUP7 PUSH2 0x54B JUMP JUMPDEST DUP2 DUP2 SUB PUSH1 0x20 DUP4 ADD MSTORE PUSH2 0x609 DUP2 DUP6 PUSH2 0x592 JUMP JUMPDEST SWAP1 POP PUSH2 0x618 PUSH1 0x40 DUP4 ADD DUP5 PUSH2 0x5D5 JUMP JUMPDEST SWAP5 SWAP4 POP POP POP POP JUMP JUMPDEST PUSH0 DUP1 REVERT JUMPDEST PUSH0 DUP1 REVERT JUMPDEST PUSH32 0x4E487B7100000000000000000000000000000000000000000000000000000000 PUSH0 MSTORE PUSH1 0x41 PUSH1 0x4 MSTORE PUSH1 0x24 PUSH0 REVERT JUMPDEST PUSH2 0x65E DUP3 PUSH2 0x582 JUMP JUMPDEST DUP2 ADD DUP2 DUP2 LT PUSH8 0xFFFFFFFFFFFFFFFF DUP3 GT OR ISZERO PUSH2 0x67D JUMPI PUSH2 0x67C PUSH2 0x628 JUMP JUMPDEST JUMPDEST DUP1 PUSH1 0x40 MSTORE POP POP POP JUMP JUMPDEST PUSH0 PUSH2 0x68F PUSH2 0x4D0 JUMP JUMPDEST SWAP1 POP PUSH2 0x69B DUP3 DUP3 PUSH2 0x655 JUMP JUMPDEST SWAP2 SWAP1 POP JUMP JUMPDEST PUSH0 PUSH8 0xFFFFFFFFFFFFFFFF DUP3 GT ISZERO PUSH2 0x6BA JUMPI PUSH2 0x6B9 PUSH2 0x628 JUMP JUMPDEST JUMPDEST PUSH2 0x6C3 DUP3 PUSH2 0x582 JUMP JUMPDEST SWAP1 POP PUSH1 0x20 DUP2 ADD SWAP1 POP SWAP2 SWAP1 POP JUMP JUMPDEST DUP3 DUP2 DUP4 CALLDATACOPY PUSH0 DUP4 DUP4 ADD MSTORE POP POP POP JUMP JUMPDEST PUSH0 PUSH2 0x6F0 PUSH2 0x6EB DUP5 PUSH2 0x6A0 JUMP JUMPDEST PUSH2 0x686 JUMP JUMPDEST SWAP1 POP DUP3 DUP2 MSTORE PUSH1 0x20 DUP2 ADD DUP5 DUP5 DUP5 ADD GT ISZERO PUSH2 0x70C JUMPI PUSH2 0x70B PUSH2 0x624 JUMP JUMPDEST JUMPDEST PUSH2 0x717 DUP5 DUP3 DUP6 PUSH2 0x6D0 JUMP JUMPDEST POP SWAP4 SWAP3 POP POP POP JUMP JUMPDEST PUSH0 DUP3 PUSH1 0x1F DUP4 ADD SLT PUSH2 0x733 JUMPI PUSH2 0x732 PUSH2 0x620 JUMP JUMPDEST JUMPDEST DUP2 CALLDATALOAD PUSH2 0x743 DUP5 DUP3 PUSH1 0x20 DUP7 ADD PUSH2 0x6DE JUMP JUMPDEST SWAP2 POP POP SWAP3 SWAP2 POP POP JUMP JUMPDEST PUSH2 0x755 DUP2 PUSH2 0x53F JUMP JUMPDEST DUP2 EQ PUSH2 0x75F JUMPI PUSH0 DUP1 REVERT JUMPDEST POP JUMP JUMPDEST PUSH0 DUP2 CALLDATALOAD SWAP1 POP PUSH2 0x770 DUP2 PUSH2 0x74C JUMP JUMPDEST SWAP3 SWAP2 POP POP JUMP JUMPDEST PUSH0 DUP1 PUSH1 0x40 DUP4 DUP6 SUB SLT ISZERO PUSH2 0x78C JUMPI PUSH2 0x78B PUSH2 0x4D9 JUMP JUMPDEST JUMPDEST PUSH0 DUP4 ADD CALLDATALOAD PUSH8 0xFFFFFFFFFFFFFFFF DUP2 GT ISZERO PUSH2 0x7A9 JUMPI PUSH2 0x7A8 PUSH2 0x4DD JUMP JUMPDEST JUMPDEST PUSH2 0x7B5 DUP6 DUP3 DUP7 ADD PUSH2 0x71F JUMP JUMPDEST SWAP3 POP POP PUSH1 0x20 PUSH2 0x7C6 DUP6 DUP3 DUP7 ADD PUSH2 0x762 JUMP JUMPDEST SWAP2 POP POP SWAP3 POP SWAP3 SWAP1 POP JUMP JUMPDEST PUSH0 PUSH20 0xFFFFFFFFFFFFFFFFFFFFFFFFFFFFFFFFFFFFFFFF DUP3 AND SWAP1 POP SWAP2 SWAP1 POP JUMP JUMPDEST PUSH0 PUSH2 0x7F9 DUP3 PUSH2 0x7D0 JUMP JUMPDEST SWAP1 POP SWAP2 SWAP1 POP JUMP JUMPDEST PUSH2 0x809 DUP2 PUSH2 0x7EF JUMP JUMPDEST DUP2 EQ PUSH2 0x813 JUMPI PUSH0 DUP1 REVERT JUMPDEST POP JUMP JUMPDEST PUSH0 DUP2 CALLDATALOAD SWAP1 POP PUSH2 0x824 DUP2 PUSH2 0x800 JUMP JUMPDEST SWAP3 SWAP2 POP POP JUMP JUMPDEST PUSH0 PUSH1 0x20 DUP3 DUP5 SUB SLT ISZERO PUSH2 0x83F JUMPI PUSH2 0x83E PUSH2 0x4D9 JUMP JUMPDEST JUMPDEST PUSH0 PUSH2 0x84C DUP5 DUP3 DUP6 ADD PUSH2 0x816 JUMP JUMPDEST SWAP2 POP POP SWAP3 SWAP2 POP POP JUMP JUMPDEST PUSH0 DUP1 PUSH1 0x40 DUP4 DUP6 SUB SLT ISZERO PUSH2 0x86B JUMPI PUSH2 0x86A PUSH2 0x4D9 JUMP JUMPDEST JUMPDEST PUSH0 PUSH2 0x878 DUP6 DUP3 DUP7 ADD PUSH2 0x816 JUMP JUMPDEST SWAP3 POP POP PUSH1 0x20 PUSH2 0x889 DUP6 DUP3 DUP7 ADD PUSH2 0x500 JUMP JUMPDEST SWAP2 POP POP SWAP3 POP SWAP3 SWAP1 POP JUMP JUMPDEST PUSH32 0x4E487B7100000000000000000000000000000000000000000000000000000000 PUSH0 MSTORE PUSH1 0x22 PUSH1 0x4 MSTORE PUSH1 0x24 PUSH0 REVERT JUMPDEST PUSH0 PUSH1 0x2 DUP3 DIV SWAP1 POP PUSH1 0x1 DUP3 AND DUP1 PUSH2 0x8D7 JUMPI PUSH1 0x7F DUP3 AND SWAP2 POP JUMPDEST PUSH1 0x20 DUP3 LT DUP2 SUB PUSH2 0x8EA JUMPI PUSH2 0x8E9 PUSH2 0x893 JUMP JUMPDEST JUMPDEST POP SWAP2 SWAP1 POP JUMP JUMPDEST PUSH0 DUP2 SWAP1 POP DUP2 PUSH0 MSTORE PUSH1 0x20 PUSH0 KECCAK256 SWAP1 POP SWAP2 SWAP1 POP JUMP JUMPDEST PUSH0 PUSH1 0x20 PUSH1 0x1F DUP4 ADD DIV SWAP1 POP SWAP2 SWAP1 POP JUMP JUMPDEST PUSH0 DUP3 DUP3 SHL SWAP1 POP SWAP3 SWAP2 POP POP JUMP JUMPDEST PUSH0 PUSH1 0x8 DUP4 MUL PUSH2 0x94C PUSH32 0xFFFFFFFFFFFFFFFFFFFFFFFFFFFFFFFFFFFFFFFFFFFFFFFFFFFFFFFFFFFFFFFF DUP3 PUSH2 0x911 JUMP JUMPDEST PUSH2 0x956 DUP7 DUP4 PUSH2 0x911 JUMP JUMPDEST SWAP6 POP DUP1 NOT DUP5 AND SWAP4 POP DUP1 DUP7 AND DUP5 OR SWAP3 POP POP POP SWAP4 SWAP3 POP POP POP JUMP JUMPDEST PUSH0 DUP2 SWAP1 POP SWAP2 SWAP1 POP JUMP JUMPDEST PUSH0 PUSH2 0x991 PUSH2 0x98C PUSH2 0x987 DUP5 PUSH2 0x4E1 JUMP JUMPDEST PUSH2 0x96E JUMP JUMPDEST PUSH2 0x4E1 JUMP JUMPDEST SWAP1 POP SWAP2 SWAP1 POP JUMP JUMPDEST PUSH0 DUP2 SWAP1 POP SWAP2 SWAP1 POP JUMP JUMPDEST PUSH2 0x9AA DUP4 PUSH2 0x977 JUMP JUMPDEST PUSH2 0x9BE PUSH2 0x9B6 DUP3 PUSH2 0x998 JUMP JUMPDEST DUP5 DUP5 SLOAD PUSH2 0x91D JUMP JUMPDEST DUP3 SSTORE POP POP POP POP JUMP JUMPDEST PUSH0 SWAP1 JUMP JUMPDEST PUSH2 0x9D2 PUSH2 0x9C6 JUMP JUMPDEST PUSH2 0x9DD DUP2 DUP5 DUP5 PUSH2 0x9A1 JUMP JUMPDEST POP POP POP JUMP JUMPDEST JUMPDEST DUP2 DUP2 LT ISZERO PUSH2 0xA00 JUMPI PUSH2 0x9F5 PUSH0 DUP3 PUSH2 0x9CA JUMP JUMPDEST PUSH1 0x1 DUP2 ADD SWAP1 POP PUSH2 0x9E3 JUMP JUMPDEST POP POP JUMP JUMPDEST PUSH1 0x1F DUP3 GT ISZERO PUSH2 0xA45 JUMPI PUSH2 0xA16 DUP2 PUSH2 0x8F0 JUMP JUMPDEST PUSH2 0xA1F DUP5 PUSH2 0x902 JUMP JUMPDEST DUP2 ADD PUSH1 0x20 DUP6 LT ISZERO PUSH2 0xA2E JUMPI DUP2 SWAP1 POP JUMPDEST PUSH2 0xA42 PUSH2 0xA3A DUP6 PUSH2 0x902 JUMP JUMPDEST DUP4 ADD DUP3 PUSH2 0x9E2 JUMP JUMPDEST POP POP JUMPDEST POP POP POP JUMP JUMPDEST PUSH0 DUP3 DUP3 SHR SWAP1 POP SWAP3 SWAP2 POP POP JUMP JUMPDEST PUSH0 PUSH2 0xA65 PUSH0 NOT DUP5 PUSH1 0x8 MUL PUSH2 0xA4A JUMP JUMPDEST NOT DUP1 DUP4 AND SWAP2 POP POP SWAP3 SWAP2 POP POP JUMP JUMPDEST PUSH0 PUSH2 0xA7D DUP4 DUP4 PUSH2 0xA56 JUMP JUMPDEST SWAP2 POP DUP3 PUSH1 0x2 MUL DUP3 OR SWAP1 POP SWAP3 SWAP2 POP POP JUMP JUMPDEST PUSH2 0xA96 DUP3 PUSH2 0x55A JUMP JUMPDEST PUSH8 0xFFFFFFFFFFFFFFFF DUP2 GT ISZERO PUSH2 0xAAF JUMPI PUSH2 0xAAE PUSH2 0x628 JUMP JUMPDEST JUMPDEST PUSH2 0xAB9 DUP3 SLOAD PUSH2 0x8C0 JUMP JUMPDEST PUSH2 0xAC4 DUP3 DUP3 DUP6 PUSH2 0xA04 JUMP JUMPDEST PUSH0 PUSH1 0x20 SWAP1 POP PUSH1 0x1F DUP4 GT PUSH1 0x1 DUP2 EQ PUSH2 0xAF5 JUMPI PUSH0 DUP5 ISZERO PUSH2 0xAE3 JUMPI DUP3 DUP8 ADD MLOAD SWAP1 POP JUMPDEST PUSH2 0xAED DUP6 DUP3 PUSH2 0xA72 JUMP JUMPDEST DUP7 SSTORE POP PUSH2 0xB54 JUMP JUMPDEST PUSH1 0x1F NOT DUP5 AND PUSH2 0xB03 DUP7 PUSH2 0x8F0 JUMP JUMPDEST PUSH0 JUMPDEST DUP3 DUP2 LT ISZERO PUSH2 0xB2A JUMPI DUP5 DUP10 ADD MLOAD DUP3 SSTORE PUSH1 0x1 DUP3 ADD SWAP2 POP PUSH1 0x20 DUP6 ADD SWAP5 POP PUSH1 0x20 DUP2 ADD SWAP1 POP PUSH2 0xB05 JUMP JUMPDEST DUP7 DUP4 LT ISZERO PUSH2 0xB47 JUMPI DUP5 DUP10 ADD MLOAD PUSH2 0xB43 PUSH1 0x1F DUP10 AND DUP3 PUSH2 0xA56 JUMP JUMPDEST DUP4 SSTORE POP JUMPDEST PUSH1 0x1 PUSH1 0x2 DUP9 MUL ADD DUP9 SSTORE POP POP POP JUMPDEST POP POP POP POP POP POP JUMP INVALID LOG2 PUSH5 0x6970667358 0x22 SLT KECCAK256 0x21 0x2C 0xE2 0xE2 PUSH19 0xF7573159324179C670CC376ED1ADDD280429C6 LOG1 DUP5 PUSH9 0x36F19D8F3E64736F6C PUSH4 0x4300081A STOP CALLER "
				},
				"gasEstimates": {
					"creation": {
						"codeDepositCost": "592400",
						"executionCost": "623",
						"totalCost": "593023"
					},
					"external": {
						"makePessoa(string,uint8)": "infinite",
						"pessoa()": "infinite",
						"s_mappingArrayPessoa(address,uint256)": "infinite",
						"s_mappingPessoa(address)": "infinite",
						"s_pessoa(uint256)": "infinite"
					}
				},
				"methodIdentifiers": {
					"makePessoa(string,uint8)": "300b730d",
					"pessoa()": "feac0a31",
					"s_mappingArrayPessoa(address,uint256)": "6b3be3f8",
					"s_mappingPessoa(address)": "36108f3f",
					"s_pessoa(uint256)": "2631cfde"
				}
			},
			"storageLayout": {
				"storage": [
					{
						"astId": 11,
						"contract": "ExemploStruct.sol:ExemploStruct",
						"label": "pessoa",
						"offset": 0,
						"slot": "0",
						"type": "t_struct(Pessoa)8_storage"
					},
					{
						"astId": 15,
						"contract": "ExemploStruct.sol:ExemploStruct",
						"label": "s_pessoa",
						"offset": 0,
						"slot": "3",
						"type": "t_array(t_struct(Pessoa)8_storage)dyn_storage"
					},
					{
						"astId": 20,
						"contract": "ExemploStruct.sol:ExemploStruct",
						"label": "s_mappingPessoa",
						"offset": 0,
						"slot": "4",
						"type": "t_mapping(t_address,t_struct(Pessoa)8_storage)"
					},
					{
						"astId": 26,
						"contract": "ExemploStruct.sol:ExemploStruct",
						"label": "s_mappingArrayPessoa",
						"offset": 0,
						"slot": "5",
						"type": "t_mapping(t_address,t_array(t_struct(Pessoa)8_storage)dyn_storage)"
					}
				],
				"types": {
					"t_address": {
						"encoding": "inplace",
						"label": "address",
						"numberOfBytes": "20"
					},
					"t_array(t_struct(Pessoa)8_storage)dyn_storage": {
						"base": "t_struct(Pessoa)8_storage",
						"encoding": "dynamic_array",
						"label": "struct ExemploStruct.Pessoa[]",
						"numberOfBytes": "32"
					},
					"t_bool": {
						"encoding": "inplace",
						"label": "bool",
						"numberOfBytes": "1"
					},
					"t_mapping(t_address,t_array(t_struct(Pessoa)8_storage)dyn_storage)": {
						"encoding": "mapping",
						"key": "t_address",
						"label": "mapping(address => struct ExemploStruct.Pessoa[])",
						"numberOfBytes": "32",
						"value": "t_array(t_struct(Pessoa)8_storage)dyn_storage"
					},
					"t_mapping(t_address,t_struct(Pessoa)8_storage)": {
						"encoding": "mapping",
						"key": "t_address",
						"label": "mapping(address => struct ExemploStruct.Pessoa)",
						"numberOfBytes": "32",
						"value": "t_struct(Pessoa)8_storage"
					},
					"t_string_storage": {
						"encoding": "bytes",
						"label": "string",
						"numberOfBytes": "32"
					},
					"t_struct(Pessoa)8_storage": {
						"encoding": "inplace",
						"label": "struct ExemploStruct.Pessoa",
						"members": [
							{
								"astId": 3,
								"contract": "ExemploStruct.sol:ExemploStruct",
								"label": "idade",
								"offset": 0,
								"slot": "0",
								"type": "t_uint8"
							},
							{
								"astId": 5,
								"contract": "ExemploStruct.sol:ExemploStruct",
								"label": "nome",
								"offset": 0,
								"slot": "1",
								"type": "t_string_storage"
							},
							{
								"astId": 7,
								"contract": "ExemploStruct.sol:ExemploStruct",
								"label": "ativo",
								"offset": 0,
								"slot": "2",
								"type": "t_bool"
							}
						],
						"numberOfBytes": "96"
					},
					"t_uint8": {
						"encoding": "inplace",
						"label": "uint8",
						"numberOfBytes": "1"
					}
				}
			},
			"userdoc": {
				"kind": "user",
				"methods": {},
				"version": 1
			}
		}
	}
}