{
	"ExercicioMapping.sol": {
		"ExercicioMapping": {
			"abi": [
				{
					"inputs": [],
					"stateMutability": "nonpayable",
					"type": "constructor"
				},
				{
					"inputs": [
						{
							"internalType": "address",
							"name": "clients",
							"type": "address"
						},
						{
							"internalType": "bool",
							"name": "status",
							"type": "bool"
						}
					],
					"name": "addValueWhitelist",
					"outputs": [],
					"stateMutability": "nonpayable",
					"type": "function"
				},
				{
					"inputs": [],
					"name": "s_owner",
					"outputs": [
						{
							"internalType": "address",
							"name": "",
							"type": "address"
						}
					],
					"stateMutability": "view",
					"type": "function"
				},
				{
					"inputs": [],
					"name": "s_storedInfo",
					"outputs": [
						{
							"internalType": "string",
							"name": "",
							"type": "string"
						}
					],
					"stateMutability": "view",
					"type": "function"
				},
				{
					"inputs": [
						{
							"internalType": "address",
							"name": "adm",
							"type": "address"
						}
					],
					"name": "s_whitelist",
					"outputs": [
						{
							"internalType": "bool",
							"name": "_status",
							"type": "bool"
						}
					],
					"stateMutability": "view",
					"type": "function"
				},
				{
					"inputs": [
						{
							"internalType": "string",
							"name": "newInfo",
							"type": "string"
						}
					],
					"name": "setStoredInfo",
					"outputs": [],
					"stateMutability": "nonpayable",
					"type": "function"
				}
			],
			"devdoc": {
				"kind": "dev",
				"methods": {},
				"version": 1
			},
			"evm": {
				"assembly": "    /* \"ExercicioMapping.sol\":131:862  contract ExercicioMapping{... */\n  mstore(0x40, 0x80)\n    /* \"ExercicioMapping.sol\":291:384  constructor(){... */\n  callvalue\n  dup1\n  iszero\n  tag_1\n  jumpi\n  0x00\n  dup1\n  revert\ntag_1:\n  pop\n    /* \"ExercicioMapping.sol\":325:335  msg.sender */\n  caller\n    /* \"ExercicioMapping.sol\":315:322  s_owner */\n  0x00\n  dup1\n    /* \"ExercicioMapping.sol\":315:335  s_owner = msg.sender */\n  0x0100\n  exp\n  dup2\n  sload\n  dup2\n  0xffffffffffffffffffffffffffffffffffffffff\n  mul\n  not\n  and\n  swap1\n  dup4\n  0xffffffffffffffffffffffffffffffffffffffff\n  and\n  mul\n  or\n  swap1\n  sstore\n  pop\n    /* \"ExercicioMapping.sol\":346:376  s_storedInfo = \"essa mensagen\" */\n  mload(0x40)\n  dup1\n  0x40\n  add\n  0x40\n  mstore\n  dup1\n  0x0d\n  dup2\n  mstore\n  0x20\n  add\n  0x65737361206d656e736167656e00000000000000000000000000000000000000\n  dup2\n  mstore\n  pop\n    /* \"ExercicioMapping.sol\":346:358  s_storedInfo */\n  0x01\n    /* \"ExercicioMapping.sol\":346:376  s_storedInfo = \"essa mensagen\" */\n  swap1\n  dup2\n  tag_4\n  swap2\n  swap1\n  tag_5\n  jump\t// in\ntag_4:\n  pop\n    /* \"ExercicioMapping.sol\":131:862  contract ExercicioMapping{... */\n  jump(tag_6)\n    /* \"#utility.yul\":7:106   */\ntag_7:\n    /* \"#utility.yul\":59:65   */\n  0x00\n    /* \"#utility.yul\":93:98   */\n  dup2\n    /* \"#utility.yul\":87:99   */\n  mload\n    /* \"#utility.yul\":77:99   */\n  swap1\n  pop\n    /* \"#utility.yul\":7:106   */\n  swap2\n  swap1\n  pop\n  jump\t// out\n    /* \"#utility.yul\":112:292   */\ntag_8:\n    /* \"#utility.yul\":160:237   */\n  0x4e487b7100000000000000000000000000000000000000000000000000000000\n    /* \"#utility.yul\":157:158   */\n  0x00\n    /* \"#utility.yul\":150:238   */\n  mstore\n    /* \"#utility.yul\":257:261   */\n  0x41\n    /* \"#utility.yul\":254:255   */\n  0x04\n    /* \"#utility.yul\":247:262   */\n  mstore\n    /* \"#utility.yul\":281:285   */\n  0x24\n    /* \"#utility.yul\":278:279   */\n  0x00\n    /* \"#utility.yul\":271:286   */\n  revert\n    /* \"#utility.yul\":298:478   */\ntag_9:\n    /* \"#utility.yul\":346:423   */\n  0x4e487b7100000000000000000000000000000000000000000000000000000000\n    /* \"#utility.yul\":343:344   */\n  0x00\n    /* \"#utility.yul\":336:424   */\n  mstore\n    /* \"#utility.yul\":443:447   */\n  0x22\n    /* \"#utility.yul\":440:441   */\n  0x04\n    /* \"#utility.yul\":433:448   */\n  mstore\n    /* \"#utility.yul\":467:471   */\n  0x24\n    /* \"#utility.yul\":464:465   */\n  0x00\n    /* \"#utility.yul\":457:472   */\n  revert\n    /* \"#utility.yul\":484:804   */\ntag_10:\n    /* \"#utility.yul\":528:534   */\n  0x00\n    /* \"#utility.yul\":565:566   */\n  0x02\n    /* \"#utility.yul\":559:563   */\n  dup3\n    /* \"#utility.yul\":555:567   */\n  div\n    /* \"#utility.yul\":545:567   */\n  swap1\n  pop\n    /* \"#utility.yul\":612:613   */\n  0x01\n    /* \"#utility.yul\":606:610   */\n  dup3\n    /* \"#utility.yul\":602:614   */\n  and\n    /* \"#utility.yul\":633:651   */\n  dup1\n    /* \"#utility.yul\":623:704   */\n  tag_32\n  jumpi\n    /* \"#utility.yul\":689:693   */\n  0x7f\n    /* \"#utility.yul\":681:687   */\n  dup3\n    /* \"#utility.yul\":677:694   */\n  and\n    /* \"#utility.yul\":667:694   */\n  swap2\n  pop\n    /* \"#utility.yul\":623:704   */\ntag_32:\n    /* \"#utility.yul\":751:753   */\n  0x20\n    /* \"#utility.yul\":743:749   */\n  dup3\n    /* \"#utility.yul\":740:754   */\n  lt\n    /* \"#utility.yul\":720:738   */\n  dup2\n    /* \"#utility.yul\":717:755   */\n  sub\n    /* \"#utility.yul\":714:798   */\n  tag_33\n  jumpi\n    /* \"#utility.yul\":770:788   */\n  tag_34\n  tag_9\n  jump\t// in\ntag_34:\n    /* \"#utility.yul\":714:798   */\ntag_33:\n    /* \"#utility.yul\":535:804   */\n  pop\n    /* \"#utility.yul\":484:804   */\n  swap2\n  swap1\n  pop\n  jump\t// out\n    /* \"#utility.yul\":810:951   */\ntag_11:\n    /* \"#utility.yul\":859:863   */\n  0x00\n    /* \"#utility.yul\":882:885   */\n  dup2\n    /* \"#utility.yul\":874:885   */\n  swap1\n  pop\n    /* \"#utility.yul\":905:908   */\n  dup2\n    /* \"#utility.yul\":902:903   */\n  0x00\n    /* \"#utility.yul\":895:909   */\n  mstore\n    /* \"#utility.yul\":939:943   */\n  0x20\n    /* \"#utility.yul\":936:937   */\n  0x00\n    /* \"#utility.yul\":926:944   */\n  keccak256\n    /* \"#utility.yul\":918:944   */\n  swap1\n  pop\n    /* \"#utility.yul\":810:951   */\n  swap2\n  swap1\n  pop\n  jump\t// out\n    /* \"#utility.yul\":957:1050   */\ntag_12:\n    /* \"#utility.yul\":994:1000   */\n  0x00\n    /* \"#utility.yul\":1041:1043   */\n  0x20\n    /* \"#utility.yul\":1036:1038   */\n  0x1f\n    /* \"#utility.yul\":1029:1034   */\n  dup4\n    /* \"#utility.yul\":1025:1039   */\n  add\n    /* \"#utility.yul\":1021:1044   */\n  div\n    /* \"#utility.yul\":1011:1044   */\n  swap1\n  pop\n    /* \"#utility.yul\":957:1050   */\n  swap2\n  swap1\n  pop\n  jump\t// out\n    /* \"#utility.yul\":1056:1163   */\ntag_13:\n    /* \"#utility.yul\":1100:1108   */\n  0x00\n    /* \"#utility.yul\":1150:1155   */\n  dup3\n    /* \"#utility.yul\":1144:1148   */\n  dup3\n    /* \"#utility.yul\":1140:1156   */\n  shl\n    /* \"#utility.yul\":1119:1156   */\n  swap1\n  pop\n    /* \"#utility.yul\":1056:1163   */\n  swap3\n  swap2\n  pop\n  pop\n  jump\t// out\n    /* \"#utility.yul\":1169:1562   */\ntag_14:\n    /* \"#utility.yul\":1238:1244   */\n  0x00\n    /* \"#utility.yul\":1288:1289   */\n  0x08\n    /* \"#utility.yul\":1276:1286   */\n  dup4\n    /* \"#utility.yul\":1272:1290   */\n  mul\n    /* \"#utility.yul\":1311:1408   */\n  tag_39\n    /* \"#utility.yul\":1341:1407   */\n  0xffffffffffffffffffffffffffffffffffffffffffffffffffffffffffffffff\n    /* \"#utility.yul\":1330:1339   */\n  dup3\n    /* \"#utility.yul\":1311:1408   */\n  tag_13\n  jump\t// in\ntag_39:\n    /* \"#utility.yul\":1429:1468   */\n  tag_40\n    /* \"#utility.yul\":1459:1467   */\n  dup7\n    /* \"#utility.yul\":1448:1457   */\n  dup4\n    /* \"#utility.yul\":1429:1468   */\n  tag_13\n  jump\t// in\ntag_40:\n    /* \"#utility.yul\":1417:1468   */\n  swap6\n  pop\n    /* \"#utility.yul\":1501:1505   */\n  dup1\n    /* \"#utility.yul\":1497:1506   */\n  not\n    /* \"#utility.yul\":1490:1495   */\n  dup5\n    /* \"#utility.yul\":1486:1507   */\n  and\n    /* \"#utility.yul\":1477:1507   */\n  swap4\n  pop\n    /* \"#utility.yul\":1550:1554   */\n  dup1\n    /* \"#utility.yul\":1540:1548   */\n  dup7\n    /* \"#utility.yul\":1536:1555   */\n  and\n    /* \"#utility.yul\":1529:1534   */\n  dup5\n    /* \"#utility.yul\":1526:1556   */\n  or\n    /* \"#utility.yul\":1516:1556   */\n  swap3\n  pop\n    /* \"#utility.yul\":1245:1562   */\n  pop\n  pop\n    /* \"#utility.yul\":1169:1562   */\n  swap4\n  swap3\n  pop\n  pop\n  pop\n  jump\t// out\n    /* \"#utility.yul\":1568:1645   */\ntag_15:\n    /* \"#utility.yul\":1605:1612   */\n  0x00\n    /* \"#utility.yul\":1634:1639   */\n  dup2\n    /* \"#utility.yul\":1623:1639   */\n  swap1\n  pop\n    /* \"#utility.yul\":1568:1645   */\n  swap2\n  swap1\n  pop\n  jump\t// out\n    /* \"#utility.yul\":1651:1711   */\ntag_16:\n    /* \"#utility.yul\":1679:1682   */\n  0x00\n    /* \"#utility.yul\":1700:1705   */\n  dup2\n    /* \"#utility.yul\":1693:1705   */\n  swap1\n  pop\n    /* \"#utility.yul\":1651:1711   */\n  swap2\n  swap1\n  pop\n  jump\t// out\n    /* \"#utility.yul\":1717:1859   */\ntag_17:\n    /* \"#utility.yul\":1767:1776   */\n  0x00\n    /* \"#utility.yul\":1800:1853   */\n  tag_44\n    /* \"#utility.yul\":1818:1852   */\n  tag_45\n    /* \"#utility.yul\":1827:1851   */\n  tag_46\n    /* \"#utility.yul\":1845:1850   */\n  dup5\n    /* \"#utility.yul\":1827:1851   */\n  tag_15\n  jump\t// in\ntag_46:\n    /* \"#utility.yul\":1818:1852   */\n  tag_16\n  jump\t// in\ntag_45:\n    /* \"#utility.yul\":1800:1853   */\n  tag_15\n  jump\t// in\ntag_44:\n    /* \"#utility.yul\":1787:1853   */\n  swap1\n  pop\n    /* \"#utility.yul\":1717:1859   */\n  swap2\n  swap1\n  pop\n  jump\t// out\n    /* \"#utility.yul\":1865:1940   */\ntag_18:\n    /* \"#utility.yul\":1908:1911   */\n  0x00\n    /* \"#utility.yul\":1929:1934   */\n  dup2\n    /* \"#utility.yul\":1922:1934   */\n  swap1\n  pop\n    /* \"#utility.yul\":1865:1940   */\n  swap2\n  swap1\n  pop\n  jump\t// out\n    /* \"#utility.yul\":1946:2215   */\ntag_19:\n    /* \"#utility.yul\":2056:2095   */\n  tag_49\n    /* \"#utility.yul\":2087:2094   */\n  dup4\n    /* \"#utility.yul\":2056:2095   */\n  tag_17\n  jump\t// in\ntag_49:\n    /* \"#utility.yul\":2117:2208   */\n  tag_50\n    /* \"#utility.yul\":2166:2207   */\n  tag_51\n    /* \"#utility.yul\":2190:2206   */\n  dup3\n    /* \"#utility.yul\":2166:2207   */\n  tag_18\n  jump\t// in\ntag_51:\n    /* \"#utility.yul\":2158:2164   */\n  dup5\n    /* \"#utility.yul\":2151:2155   */\n  dup5\n    /* \"#utility.yul\":2145:2156   */\n  sload\n    /* \"#utility.yul\":2117:2208   */\n  tag_14\n  jump\t// in\ntag_50:\n    /* \"#utility.yul\":2111:2115   */\n  dup3\n    /* \"#utility.yul\":2104:2209   */\n  sstore\n    /* \"#utility.yul\":2022:2215   */\n  pop\n    /* \"#utility.yul\":1946:2215   */\n  pop\n  pop\n  pop\n  jump\t// out\n    /* \"#utility.yul\":2221:2294   */\ntag_20:\n    /* \"#utility.yul\":2266:2269   */\n  0x00\n    /* \"#utility.yul\":2221:2294   */\n  swap1\n  jump\t// out\n    /* \"#utility.yul\":2300:2489   */\ntag_21:\n    /* \"#utility.yul\":2377:2409   */\n  tag_54\n  tag_20\n  jump\t// in\ntag_54:\n    /* \"#utility.yul\":2418:2483   */\n  tag_55\n    /* \"#utility.yul\":2476:2482   */\n  dup2\n    /* \"#utility.yul\":2468:2474   */\n  dup5\n    /* \"#utility.yul\":2462:2466   */\n  dup5\n    /* \"#utility.yul\":2418:2483   */\n  tag_19\n  jump\t// in\ntag_55:\n    /* \"#utility.yul\":2353:2489   */\n  pop\n    /* \"#utility.yul\":2300:2489   */\n  pop\n  pop\n  jump\t// out\n    /* \"#utility.yul\":2495:2681   */\ntag_22:\n    /* \"#utility.yul\":2555:2675   */\ntag_57:\n    /* \"#utility.yul\":2572:2575   */\n  dup2\n    /* \"#utility.yul\":2565:2570   */\n  dup2\n    /* \"#utility.yul\":2562:2576   */\n  lt\n    /* \"#utility.yul\":2555:2675   */\n  iszero\n  tag_59\n  jumpi\n    /* \"#utility.yul\":2626:2665   */\n  tag_60\n    /* \"#utility.yul\":2663:2664   */\n  0x00\n    /* \"#utility.yul\":2656:2661   */\n  dup3\n    /* \"#utility.yul\":2626:2665   */\n  tag_21\n  jump\t// in\ntag_60:\n    /* \"#utility.yul\":2599:2600   */\n  0x01\n    /* \"#utility.yul\":2592:2597   */\n  dup2\n    /* \"#utility.yul\":2588:2601   */\n  add\n    /* \"#utility.yul\":2579:2601   */\n  swap1\n  pop\n    /* \"#utility.yul\":2555:2675   */\n  jump(tag_57)\ntag_59:\n    /* \"#utility.yul\":2495:2681   */\n  pop\n  pop\n  jump\t// out\n    /* \"#utility.yul\":2687:3230   */\ntag_23:\n    /* \"#utility.yul\":2788:2790   */\n  0x1f\n    /* \"#utility.yul\":2783:2786   */\n  dup3\n    /* \"#utility.yul\":2780:2791   */\n  gt\n    /* \"#utility.yul\":2777:3223   */\n  iszero\n  tag_62\n  jumpi\n    /* \"#utility.yul\":2822:2860   */\n  tag_63\n    /* \"#utility.yul\":2854:2859   */\n  dup2\n    /* \"#utility.yul\":2822:2860   */\n  tag_11\n  jump\t// in\ntag_63:\n    /* \"#utility.yul\":2906:2935   */\n  tag_64\n    /* \"#utility.yul\":2924:2934   */\n  dup5\n    /* \"#utility.yul\":2906:2935   */\n  tag_12\n  jump\t// in\ntag_64:\n    /* \"#utility.yul\":2896:2904   */\n  dup2\n    /* \"#utility.yul\":2892:2936   */\n  add\n    /* \"#utility.yul\":3089:3091   */\n  0x20\n    /* \"#utility.yul\":3077:3087   */\n  dup6\n    /* \"#utility.yul\":3074:3092   */\n  lt\n    /* \"#utility.yul\":3071:3120   */\n  iszero\n  tag_65\n  jumpi\n    /* \"#utility.yul\":3110:3118   */\n  dup2\n    /* \"#utility.yul\":3095:3118   */\n  swap1\n  pop\n    /* \"#utility.yul\":3071:3120   */\ntag_65:\n    /* \"#utility.yul\":3133:3213   */\n  tag_66\n    /* \"#utility.yul\":3189:3211   */\n  tag_67\n    /* \"#utility.yul\":3207:3210   */\n  dup6\n    /* \"#utility.yul\":3189:3211   */\n  tag_12\n  jump\t// in\ntag_67:\n    /* \"#utility.yul\":3179:3187   */\n  dup4\n    /* \"#utility.yul\":3175:3212   */\n  add\n    /* \"#utility.yul\":3162:3173   */\n  dup3\n    /* \"#utility.yul\":3133:3213   */\n  tag_22\n  jump\t// in\ntag_66:\n    /* \"#utility.yul\":2792:3223   */\n  pop\n  pop\n    /* \"#utility.yul\":2777:3223   */\ntag_62:\n    /* \"#utility.yul\":2687:3230   */\n  pop\n  pop\n  pop\n  jump\t// out\n    /* \"#utility.yul\":3236:3353   */\ntag_24:\n    /* \"#utility.yul\":3290:3298   */\n  0x00\n    /* \"#utility.yul\":3340:3345   */\n  dup3\n    /* \"#utility.yul\":3334:3338   */\n  dup3\n    /* \"#utility.yul\":3330:3346   */\n  shr\n    /* \"#utility.yul\":3309:3346   */\n  swap1\n  pop\n    /* \"#utility.yul\":3236:3353   */\n  swap3\n  swap2\n  pop\n  pop\n  jump\t// out\n    /* \"#utility.yul\":3359:3528   */\ntag_25:\n    /* \"#utility.yul\":3403:3409   */\n  0x00\n    /* \"#utility.yul\":3436:3487   */\n  tag_70\n    /* \"#utility.yul\":3484:3485   */\n  0x00\n    /* \"#utility.yul\":3480:3486   */\n  not\n    /* \"#utility.yul\":3472:3477   */\n  dup5\n    /* \"#utility.yul\":3469:3470   */\n  0x08\n    /* \"#utility.yul\":3465:3478   */\n  mul\n    /* \"#utility.yul\":3436:3487   */\n  tag_24\n  jump\t// in\ntag_70:\n    /* \"#utility.yul\":3432:3488   */\n  not\n    /* \"#utility.yul\":3517:3521   */\n  dup1\n    /* \"#utility.yul\":3511:3515   */\n  dup4\n    /* \"#utility.yul\":3507:3522   */\n  and\n    /* \"#utility.yul\":3497:3522   */\n  swap2\n  pop\n    /* \"#utility.yul\":3410:3528   */\n  pop\n    /* \"#utility.yul\":3359:3528   */\n  swap3\n  swap2\n  pop\n  pop\n  jump\t// out\n    /* \"#utility.yul\":3533:3828   */\ntag_26:\n    /* \"#utility.yul\":3609:3613   */\n  0x00\n    /* \"#utility.yul\":3755:3784   */\n  tag_72\n    /* \"#utility.yul\":3780:3783   */\n  dup4\n    /* \"#utility.yul\":3774:3778   */\n  dup4\n    /* \"#utility.yul\":3755:3784   */\n  tag_25\n  jump\t// in\ntag_72:\n    /* \"#utility.yul\":3747:3784   */\n  swap2\n  pop\n    /* \"#utility.yul\":3817:3820   */\n  dup3\n    /* \"#utility.yul\":3814:3815   */\n  0x02\n    /* \"#utility.yul\":3810:3821   */\n  mul\n    /* \"#utility.yul\":3804:3808   */\n  dup3\n    /* \"#utility.yul\":3801:3822   */\n  or\n    /* \"#utility.yul\":3793:3822   */\n  swap1\n  pop\n    /* \"#utility.yul\":3533:3828   */\n  swap3\n  swap2\n  pop\n  pop\n  jump\t// out\n    /* \"#utility.yul\":3833:5228   */\ntag_5:\n    /* \"#utility.yul\":3950:3987   */\n  tag_74\n    /* \"#utility.yul\":3983:3986   */\n  dup3\n    /* \"#utility.yul\":3950:3987   */\n  tag_7\n  jump\t// in\ntag_74:\n    /* \"#utility.yul\":4052:4070   */\n  0xffffffffffffffff\n    /* \"#utility.yul\":4044:4050   */\n  dup2\n    /* \"#utility.yul\":4041:4071   */\n  gt\n    /* \"#utility.yul\":4038:4094   */\n  iszero\n  tag_75\n  jumpi\n    /* \"#utility.yul\":4074:4092   */\n  tag_76\n  tag_8\n  jump\t// in\ntag_76:\n    /* \"#utility.yul\":4038:4094   */\ntag_75:\n    /* \"#utility.yul\":4118:4156   */\n  tag_77\n    /* \"#utility.yul\":4150:4154   */\n  dup3\n    /* \"#utility.yul\":4144:4155   */\n  sload\n    /* \"#utility.yul\":4118:4156   */\n  tag_10\n  jump\t// in\ntag_77:\n    /* \"#utility.yul\":4203:4270   */\n  tag_78\n    /* \"#utility.yul\":4263:4269   */\n  dup3\n    /* \"#utility.yul\":4255:4261   */\n  dup3\n    /* \"#utility.yul\":4249:4253   */\n  dup6\n    /* \"#utility.yul\":4203:4270   */\n  tag_23\n  jump\t// in\ntag_78:\n    /* \"#utility.yul\":4297:4298   */\n  0x00\n    /* \"#utility.yul\":4321:4325   */\n  0x20\n    /* \"#utility.yul\":4308:4325   */\n  swap1\n  pop\n    /* \"#utility.yul\":4353:4355   */\n  0x1f\n    /* \"#utility.yul\":4345:4351   */\n  dup4\n    /* \"#utility.yul\":4342:4356   */\n  gt\n    /* \"#utility.yul\":4370:4371   */\n  0x01\n    /* \"#utility.yul\":4365:4983   */\n  dup2\n  eq\n  tag_80\n  jumpi\n    /* \"#utility.yul\":5027:5028   */\n  0x00\n    /* \"#utility.yul\":5044:5050   */\n  dup5\n    /* \"#utility.yul\":5041:5118   */\n  iszero\n  tag_81\n  jumpi\n    /* \"#utility.yul\":5093:5102   */\n  dup3\n    /* \"#utility.yul\":5088:5091   */\n  dup8\n    /* \"#utility.yul\":5084:5103   */\n  add\n    /* \"#utility.yul\":5078:5104   */\n  mload\n    /* \"#utility.yul\":5069:5104   */\n  swap1\n  pop\n    /* \"#utility.yul\":5041:5118   */\ntag_81:\n    /* \"#utility.yul\":5144:5211   */\n  tag_82\n    /* \"#utility.yul\":5204:5210   */\n  dup6\n    /* \"#utility.yul\":5197:5202   */\n  dup3\n    /* \"#utility.yul\":5144:5211   */\n  tag_26\n  jump\t// in\ntag_82:\n    /* \"#utility.yul\":5138:5142   */\n  dup7\n    /* \"#utility.yul\":5131:5212   */\n  sstore\n    /* \"#utility.yul\":5000:5222   */\n  pop\n    /* \"#utility.yul\":4335:5222   */\n  jump(tag_79)\n    /* \"#utility.yul\":4365:4983   */\ntag_80:\n    /* \"#utility.yul\":4417:4421   */\n  0x1f\n    /* \"#utility.yul\":4413:4422   */\n  not\n    /* \"#utility.yul\":4405:4411   */\n  dup5\n    /* \"#utility.yul\":4401:4423   */\n  and\n    /* \"#utility.yul\":4451:4488   */\n  tag_83\n    /* \"#utility.yul\":4483:4487   */\n  dup7\n    /* \"#utility.yul\":4451:4488   */\n  tag_11\n  jump\t// in\ntag_83:\n    /* \"#utility.yul\":4510:4511   */\n  0x00\n    /* \"#utility.yul\":4524:4732   */\ntag_84:\n    /* \"#utility.yul\":4538:4545   */\n  dup3\n    /* \"#utility.yul\":4535:4536   */\n  dup2\n    /* \"#utility.yul\":4532:4546   */\n  lt\n    /* \"#utility.yul\":4524:4732   */\n  iszero\n  tag_86\n  jumpi\n    /* \"#utility.yul\":4617:4626   */\n  dup5\n    /* \"#utility.yul\":4612:4615   */\n  dup10\n    /* \"#utility.yul\":4608:4627   */\n  add\n    /* \"#utility.yul\":4602:4628   */\n  mload\n    /* \"#utility.yul\":4594:4600   */\n  dup3\n    /* \"#utility.yul\":4587:4629   */\n  sstore\n    /* \"#utility.yul\":4668:4669   */\n  0x01\n    /* \"#utility.yul\":4660:4666   */\n  dup3\n    /* \"#utility.yul\":4656:4670   */\n  add\n    /* \"#utility.yul\":4646:4670   */\n  swap2\n  pop\n    /* \"#utility.yul\":4715:4717   */\n  0x20\n    /* \"#utility.yul\":4704:4713   */\n  dup6\n    /* \"#utility.yul\":4700:4718   */\n  add\n    /* \"#utility.yul\":4687:4718   */\n  swap5\n  pop\n    /* \"#utility.yul\":4561:4565   */\n  0x20\n    /* \"#utility.yul\":4558:4559   */\n  dup2\n    /* \"#utility.yul\":4554:4566   */\n  add\n    /* \"#utility.yul\":4549:4566   */\n  swap1\n  pop\n    /* \"#utility.yul\":4524:4732   */\n  jump(tag_84)\ntag_86:\n    /* \"#utility.yul\":4760:4766   */\n  dup7\n    /* \"#utility.yul\":4751:4758   */\n  dup4\n    /* \"#utility.yul\":4748:4767   */\n  lt\n    /* \"#utility.yul\":4745:4924   */\n  iszero\n  tag_87\n  jumpi\n    /* \"#utility.yul\":4818:4827   */\n  dup5\n    /* \"#utility.yul\":4813:4816   */\n  dup10\n    /* \"#utility.yul\":4809:4828   */\n  add\n    /* \"#utility.yul\":4803:4829   */\n  mload\n    /* \"#utility.yul\":4861:4909   */\n  tag_88\n    /* \"#utility.yul\":4903:4907   */\n  0x1f\n    /* \"#utility.yul\":4895:4901   */\n  dup10\n    /* \"#utility.yul\":4891:4908   */\n  and\n    /* \"#utility.yul\":4880:4889   */\n  dup3\n    /* \"#utility.yul\":4861:4909   */\n  tag_25\n  jump\t// in\ntag_88:\n    /* \"#utility.yul\":4853:4859   */\n  dup4\n    /* \"#utility.yul\":4846:4910   */\n  sstore\n    /* \"#utility.yul\":4768:4924   */\n  pop\n    /* \"#utility.yul\":4745:4924   */\ntag_87:\n    /* \"#utility.yul\":4970:4971   */\n  0x01\n    /* \"#utility.yul\":4966:4967   */\n  0x02\n    /* \"#utility.yul\":4958:4964   */\n  dup9\n    /* \"#utility.yul\":4954:4968   */\n  mul\n    /* \"#utility.yul\":4950:4972   */\n  add\n    /* \"#utility.yul\":4944:4948   */\n  dup9\n    /* \"#utility.yul\":4937:4973   */\n  sstore\n    /* \"#utility.yul\":4372:4983   */\n  pop\n  pop\n  pop\n    /* \"#utility.yul\":4335:5222   */\ntag_79:\n  pop\n    /* \"#utility.yul\":3925:5228   */\n  pop\n  pop\n  pop\n    /* \"#utility.yul\":3833:5228   */\n  pop\n  pop\n  jump\t// out\n    /* \"ExercicioMapping.sol\":131:862  contract ExercicioMapping{... */\ntag_6:\n  dataSize(sub_0)\n  dup1\n  dataOffset(sub_0)\n  0x00\n  codecopy\n  0x00\n  return\nstop\n\nsub_0: assembly {\n        /* \"ExercicioMapping.sol\":131:862  contract ExercicioMapping{... */\n      mstore(0x40, 0x80)\n      callvalue\n      dup1\n      iszero\n      tag_1\n      jumpi\n      0x00\n      dup1\n      revert\n    tag_1:\n      pop\n      jumpi(tag_2, lt(calldatasize, 0x04))\n      shr(0xe0, calldataload(0x00))\n      dup1\n      0x2d4da6\n      eq\n      tag_3\n      jumpi\n      dup1\n      0x16c8d41e\n      eq\n      tag_4\n      jumpi\n      dup1\n      0x72c6649b\n      eq\n      tag_5\n      jumpi\n      dup1\n      0xe2f162b7\n      eq\n      tag_6\n      jumpi\n      dup1\n      0xe3978240\n      eq\n      tag_7\n      jumpi\n    tag_2:\n      0x00\n      dup1\n      revert\n        /* \"ExercicioMapping.sol\":227:282  mapping(address adm => bool _status) public s_whitelist */\n    tag_3:\n      tag_8\n      0x04\n      dup1\n      calldatasize\n      sub\n      dup2\n      add\n      swap1\n      tag_9\n      swap2\n      swap1\n      tag_10\n      jump\t// in\n    tag_9:\n      tag_11\n      jump\t// in\n    tag_8:\n      mload(0x40)\n      tag_12\n      swap2\n      swap1\n      tag_13\n      jump\t// in\n    tag_12:\n      mload(0x40)\n      dup1\n      swap2\n      sub\n      swap1\n      return\n        /* \"ExercicioMapping.sol\":534:645  function addValueWhitelist(address clients, bool status)public {... */\n    tag_4:\n      tag_14\n      0x04\n      dup1\n      calldatasize\n      sub\n      dup2\n      add\n      swap1\n      tag_15\n      swap2\n      swap1\n      tag_16\n      jump\t// in\n    tag_15:\n      tag_17\n      jump\t// in\n    tag_14:\n      stop\n        /* \"ExercicioMapping.sol\":194:220  string public s_storedInfo */\n    tag_5:\n      tag_18\n      tag_19\n      jump\t// in\n    tag_18:\n      mload(0x40)\n      tag_20\n      swap2\n      swap1\n      tag_21\n      jump\t// in\n    tag_20:\n      mload(0x40)\n      dup1\n      swap2\n      sub\n      swap1\n      return\n        /* \"ExercicioMapping.sol\":653:856  function setStoredInfo(string memory newInfo)public {... */\n    tag_6:\n      tag_22\n      0x04\n      dup1\n      calldatasize\n      sub\n      dup2\n      add\n      swap1\n      tag_23\n      swap2\n      swap1\n      tag_24\n      jump\t// in\n    tag_23:\n      tag_25\n      jump\t// in\n    tag_22:\n      stop\n        /* \"ExercicioMapping.sol\":165:187  address public s_owner */\n    tag_7:\n      tag_26\n      tag_27\n      jump\t// in\n    tag_26:\n      mload(0x40)\n      tag_28\n      swap2\n      swap1\n      tag_29\n      jump\t// in\n    tag_28:\n      mload(0x40)\n      dup1\n      swap2\n      sub\n      swap1\n      return\n        /* \"ExercicioMapping.sol\":227:282  mapping(address adm => bool _status) public s_whitelist */\n    tag_11:\n      mstore(0x20, 0x02)\n      dup1\n      0x00\n      mstore\n      keccak256(0x00, 0x40)\n      0x00\n      swap2\n      pop\n      sload\n      swap1\n      0x0100\n      exp\n      swap1\n      div\n      0xff\n      and\n      dup2\n      jump\t// out\n        /* \"ExercicioMapping.sol\":534:645  function addValueWhitelist(address clients, bool status)public {... */\n    tag_17:\n        /* \"ExercicioMapping.sol\":631:637  status */\n      dup1\n        /* \"ExercicioMapping.sol\":608:619  s_whitelist */\n      0x02\n        /* \"ExercicioMapping.sol\":608:628  s_whitelist[clients] */\n      0x00\n        /* \"ExercicioMapping.sol\":620:627  clients */\n      dup5\n        /* \"ExercicioMapping.sol\":608:628  s_whitelist[clients] */\n      0xffffffffffffffffffffffffffffffffffffffff\n      and\n      0xffffffffffffffffffffffffffffffffffffffff\n      and\n      dup2\n      mstore\n      0x20\n      add\n      swap1\n      dup2\n      mstore\n      0x20\n      add\n      0x00\n      keccak256\n      0x00\n        /* \"ExercicioMapping.sol\":608:637  s_whitelist[clients] = status */\n      0x0100\n      exp\n      dup2\n      sload\n      dup2\n      0xff\n      mul\n      not\n      and\n      swap1\n      dup4\n      iszero\n      iszero\n      mul\n      or\n      swap1\n      sstore\n      pop\n        /* \"ExercicioMapping.sol\":534:645  function addValueWhitelist(address clients, bool status)public {... */\n      pop\n      pop\n      jump\t// out\n        /* \"ExercicioMapping.sol\":194:220  string public s_storedInfo */\n    tag_19:\n      0x01\n      dup1\n      sload\n      tag_31\n      swap1\n      tag_32\n      jump\t// in\n    tag_31:\n      dup1\n      0x1f\n      add\n      0x20\n      dup1\n      swap2\n      div\n      mul\n      0x20\n      add\n      mload(0x40)\n      swap1\n      dup2\n      add\n      0x40\n      mstore\n      dup1\n      swap3\n      swap2\n      swap1\n      dup2\n      dup2\n      mstore\n      0x20\n      add\n      dup3\n      dup1\n      sload\n      tag_33\n      swap1\n      tag_32\n      jump\t// in\n    tag_33:\n      dup1\n      iszero\n      tag_34\n      jumpi\n      dup1\n      0x1f\n      lt\n      tag_35\n      jumpi\n      0x0100\n      dup1\n      dup4\n      sload\n      div\n      mul\n      dup4\n      mstore\n      swap2\n      0x20\n      add\n      swap2\n      jump(tag_34)\n    tag_35:\n      dup3\n      add\n      swap2\n      swap1\n      0x00\n      mstore\n      keccak256(0x00, 0x20)\n      swap1\n    tag_36:\n      dup2\n      sload\n      dup2\n      mstore\n      swap1\n      0x01\n      add\n      swap1\n      0x20\n      add\n      dup1\n      dup4\n      gt\n      tag_36\n      jumpi\n      dup3\n      swap1\n      sub\n      0x1f\n      and\n      dup3\n      add\n      swap2\n    tag_34:\n      pop\n      pop\n      pop\n      pop\n      pop\n      dup2\n      jump\t// out\n        /* \"ExercicioMapping.sol\":653:856  function setStoredInfo(string memory newInfo)public {... */\n    tag_25:\n        /* \"ExercicioMapping.sol\":740:750  msg.sender */\n      caller\n        /* \"ExercicioMapping.sol\":729:750  s_owner != msg.sender */\n      0xffffffffffffffffffffffffffffffffffffffff\n      and\n        /* \"ExercicioMapping.sol\":729:736  s_owner */\n      0x00\n      dup1\n      sload\n      swap1\n      0x0100\n      exp\n      swap1\n      div\n      0xffffffffffffffffffffffffffffffffffffffff\n      and\n        /* \"ExercicioMapping.sol\":729:750  s_owner != msg.sender */\n      0xffffffffffffffffffffffffffffffffffffffff\n      and\n      eq\n      iszero\n        /* \"ExercicioMapping.sol\":729:786  s_owner != msg.sender || s_whitelist[msg.sender] == false */\n      dup1\n      tag_38\n      jumpi\n      pop\n        /* \"ExercicioMapping.sol\":781:786  false */\n      0x00\n        /* \"ExercicioMapping.sol\":754:786  s_whitelist[msg.sender] == false */\n      iszero\n      iszero\n        /* \"ExercicioMapping.sol\":754:765  s_whitelist */\n      0x02\n        /* \"ExercicioMapping.sol\":754:777  s_whitelist[msg.sender] */\n      0x00\n        /* \"ExercicioMapping.sol\":766:776  msg.sender */\n      caller\n        /* \"ExercicioMapping.sol\":754:777  s_whitelist[msg.sender] */\n      0xffffffffffffffffffffffffffffffffffffffff\n      and\n      0xffffffffffffffffffffffffffffffffffffffff\n      and\n      dup2\n      mstore\n      0x20\n      add\n      swap1\n      dup2\n      mstore\n      0x20\n      add\n      0x00\n      keccak256\n      0x00\n      swap1\n      sload\n      swap1\n      0x0100\n      exp\n      swap1\n      div\n      0xff\n      and\n        /* \"ExercicioMapping.sol\":754:786  s_whitelist[msg.sender] == false */\n      iszero\n      iszero\n      eq\n        /* \"ExercicioMapping.sol\":729:786  s_owner != msg.sender || s_whitelist[msg.sender] == false */\n    tag_38:\n        /* \"ExercicioMapping.sol\":726:822  if(s_owner != msg.sender || s_whitelist[msg.sender] == false){... */\n      iszero\n      tag_39\n      jumpi\n        /* \"ExercicioMapping.sol\":802:810  revert() */\n      0x00\n      dup1\n      revert\n        /* \"ExercicioMapping.sol\":726:822  if(s_owner != msg.sender || s_whitelist[msg.sender] == false){... */\n    tag_39:\n        /* \"ExercicioMapping.sol\":839:846  newInfo */\n      dup1\n        /* \"ExercicioMapping.sol\":824:836  s_storedInfo */\n      0x01\n        /* \"ExercicioMapping.sol\":824:846  s_storedInfo = newInfo */\n      swap1\n      dup2\n      tag_40\n      swap2\n      swap1\n      tag_41\n      jump\t// in\n    tag_40:\n      pop\n        /* \"ExercicioMapping.sol\":653:856  function setStoredInfo(string memory newInfo)public {... */\n      pop\n      jump\t// out\n        /* \"ExercicioMapping.sol\":165:187  address public s_owner */\n    tag_27:\n      0x00\n      dup1\n      sload\n      swap1\n      0x0100\n      exp\n      swap1\n      div\n      0xffffffffffffffffffffffffffffffffffffffff\n      and\n      dup2\n      jump\t// out\n        /* \"#utility.yul\":7:82   */\n    tag_42:\n        /* \"#utility.yul\":40:46   */\n      0x00\n        /* \"#utility.yul\":73:75   */\n      0x40\n        /* \"#utility.yul\":67:76   */\n      mload\n        /* \"#utility.yul\":57:76   */\n      swap1\n      pop\n        /* \"#utility.yul\":7:82   */\n      swap1\n      jump\t// out\n        /* \"#utility.yul\":88:205   */\n    tag_43:\n        /* \"#utility.yul\":197:198   */\n      0x00\n        /* \"#utility.yul\":194:195   */\n      dup1\n        /* \"#utility.yul\":187:199   */\n      revert\n        /* \"#utility.yul\":211:328   */\n    tag_44:\n        /* \"#utility.yul\":320:321   */\n      0x00\n        /* \"#utility.yul\":317:318   */\n      dup1\n        /* \"#utility.yul\":310:322   */\n      revert\n        /* \"#utility.yul\":334:460   */\n    tag_45:\n        /* \"#utility.yul\":371:378   */\n      0x00\n        /* \"#utility.yul\":411:453   */\n      0xffffffffffffffffffffffffffffffffffffffff\n        /* \"#utility.yul\":404:409   */\n      dup3\n        /* \"#utility.yul\":400:454   */\n      and\n        /* \"#utility.yul\":389:454   */\n      swap1\n      pop\n        /* \"#utility.yul\":334:460   */\n      swap2\n      swap1\n      pop\n      jump\t// out\n        /* \"#utility.yul\":466:562   */\n    tag_46:\n        /* \"#utility.yul\":503:510   */\n      0x00\n        /* \"#utility.yul\":532:556   */\n      tag_91\n        /* \"#utility.yul\":550:555   */\n      dup3\n        /* \"#utility.yul\":532:556   */\n      tag_45\n      jump\t// in\n    tag_91:\n        /* \"#utility.yul\":521:556   */\n      swap1\n      pop\n        /* \"#utility.yul\":466:562   */\n      swap2\n      swap1\n      pop\n      jump\t// out\n        /* \"#utility.yul\":568:690   */\n    tag_47:\n        /* \"#utility.yul\":641:665   */\n      tag_93\n        /* \"#utility.yul\":659:664   */\n      dup2\n        /* \"#utility.yul\":641:665   */\n      tag_46\n      jump\t// in\n    tag_93:\n        /* \"#utility.yul\":634:639   */\n      dup2\n        /* \"#utility.yul\":631:666   */\n      eq\n        /* \"#utility.yul\":621:684   */\n      tag_94\n      jumpi\n        /* \"#utility.yul\":680:681   */\n      0x00\n        /* \"#utility.yul\":677:678   */\n      dup1\n        /* \"#utility.yul\":670:682   */\n      revert\n        /* \"#utility.yul\":621:684   */\n    tag_94:\n        /* \"#utility.yul\":568:690   */\n      pop\n      jump\t// out\n        /* \"#utility.yul\":696:835   */\n    tag_48:\n        /* \"#utility.yul\":742:747   */\n      0x00\n        /* \"#utility.yul\":780:786   */\n      dup2\n        /* \"#utility.yul\":767:787   */\n      calldataload\n        /* \"#utility.yul\":758:787   */\n      swap1\n      pop\n        /* \"#utility.yul\":796:829   */\n      tag_96\n        /* \"#utility.yul\":823:828   */\n      dup2\n        /* \"#utility.yul\":796:829   */\n      tag_47\n      jump\t// in\n    tag_96:\n        /* \"#utility.yul\":696:835   */\n      swap3\n      swap2\n      pop\n      pop\n      jump\t// out\n        /* \"#utility.yul\":841:1170   */\n    tag_10:\n        /* \"#utility.yul\":900:906   */\n      0x00\n        /* \"#utility.yul\":949:951   */\n      0x20\n        /* \"#utility.yul\":937:946   */\n      dup3\n        /* \"#utility.yul\":928:935   */\n      dup5\n        /* \"#utility.yul\":924:947   */\n      sub\n        /* \"#utility.yul\":920:952   */\n      slt\n        /* \"#utility.yul\":917:1036   */\n      iszero\n      tag_98\n      jumpi\n        /* \"#utility.yul\":955:1034   */\n      tag_99\n      tag_43\n      jump\t// in\n    tag_99:\n        /* \"#utility.yul\":917:1036   */\n    tag_98:\n        /* \"#utility.yul\":1075:1076   */\n      0x00\n        /* \"#utility.yul\":1100:1153   */\n      tag_100\n        /* \"#utility.yul\":1145:1152   */\n      dup5\n        /* \"#utility.yul\":1136:1142   */\n      dup3\n        /* \"#utility.yul\":1125:1134   */\n      dup6\n        /* \"#utility.yul\":1121:1143   */\n      add\n        /* \"#utility.yul\":1100:1153   */\n      tag_48\n      jump\t// in\n    tag_100:\n        /* \"#utility.yul\":1090:1153   */\n      swap2\n      pop\n        /* \"#utility.yul\":1046:1163   */\n      pop\n        /* \"#utility.yul\":841:1170   */\n      swap3\n      swap2\n      pop\n      pop\n      jump\t// out\n        /* \"#utility.yul\":1176:1266   */\n    tag_49:\n        /* \"#utility.yul\":1210:1217   */\n      0x00\n        /* \"#utility.yul\":1253:1258   */\n      dup2\n        /* \"#utility.yul\":1246:1259   */\n      iszero\n        /* \"#utility.yul\":1239:1260   */\n      iszero\n        /* \"#utility.yul\":1228:1260   */\n      swap1\n      pop\n        /* \"#utility.yul\":1176:1266   */\n      swap2\n      swap1\n      pop\n      jump\t// out\n        /* \"#utility.yul\":1272:1381   */\n    tag_50:\n        /* \"#utility.yul\":1353:1374   */\n      tag_103\n        /* \"#utility.yul\":1368:1373   */\n      dup2\n        /* \"#utility.yul\":1353:1374   */\n      tag_49\n      jump\t// in\n    tag_103:\n        /* \"#utility.yul\":1348:1351   */\n      dup3\n        /* \"#utility.yul\":1341:1375   */\n      mstore\n        /* \"#utility.yul\":1272:1381   */\n      pop\n      pop\n      jump\t// out\n        /* \"#utility.yul\":1387:1597   */\n    tag_13:\n        /* \"#utility.yul\":1474:1478   */\n      0x00\n        /* \"#utility.yul\":1512:1514   */\n      0x20\n        /* \"#utility.yul\":1501:1510   */\n      dup3\n        /* \"#utility.yul\":1497:1515   */\n      add\n        /* \"#utility.yul\":1489:1515   */\n      swap1\n      pop\n        /* \"#utility.yul\":1525:1590   */\n      tag_105\n        /* \"#utility.yul\":1587:1588   */\n      0x00\n        /* \"#utility.yul\":1576:1585   */\n      dup4\n        /* \"#utility.yul\":1572:1589   */\n      add\n        /* \"#utility.yul\":1563:1569   */\n      dup5\n        /* \"#utility.yul\":1525:1590   */\n      tag_50\n      jump\t// in\n    tag_105:\n        /* \"#utility.yul\":1387:1597   */\n      swap3\n      swap2\n      pop\n      pop\n      jump\t// out\n        /* \"#utility.yul\":1603:1719   */\n    tag_51:\n        /* \"#utility.yul\":1673:1694   */\n      tag_107\n        /* \"#utility.yul\":1688:1693   */\n      dup2\n        /* \"#utility.yul\":1673:1694   */\n      tag_49\n      jump\t// in\n    tag_107:\n        /* \"#utility.yul\":1666:1671   */\n      dup2\n        /* \"#utility.yul\":1663:1695   */\n      eq\n        /* \"#utility.yul\":1653:1713   */\n      tag_108\n      jumpi\n        /* \"#utility.yul\":1709:1710   */\n      0x00\n        /* \"#utility.yul\":1706:1707   */\n      dup1\n        /* \"#utility.yul\":1699:1711   */\n      revert\n        /* \"#utility.yul\":1653:1713   */\n    tag_108:\n        /* \"#utility.yul\":1603:1719   */\n      pop\n      jump\t// out\n        /* \"#utility.yul\":1725:1858   */\n    tag_52:\n        /* \"#utility.yul\":1768:1773   */\n      0x00\n        /* \"#utility.yul\":1806:1812   */\n      dup2\n        /* \"#utility.yul\":1793:1813   */\n      calldataload\n        /* \"#utility.yul\":1784:1813   */\n      swap1\n      pop\n        /* \"#utility.yul\":1822:1852   */\n      tag_110\n        /* \"#utility.yul\":1846:1851   */\n      dup2\n        /* \"#utility.yul\":1822:1852   */\n      tag_51\n      jump\t// in\n    tag_110:\n        /* \"#utility.yul\":1725:1858   */\n      swap3\n      swap2\n      pop\n      pop\n      jump\t// out\n        /* \"#utility.yul\":1864:2332   */\n    tag_16:\n        /* \"#utility.yul\":1929:1935   */\n      0x00\n        /* \"#utility.yul\":1937:1943   */\n      dup1\n        /* \"#utility.yul\":1986:1988   */\n      0x40\n        /* \"#utility.yul\":1974:1983   */\n      dup4\n        /* \"#utility.yul\":1965:1972   */\n      dup6\n        /* \"#utility.yul\":1961:1984   */\n      sub\n        /* \"#utility.yul\":1957:1989   */\n      slt\n        /* \"#utility.yul\":1954:2073   */\n      iszero\n      tag_112\n      jumpi\n        /* \"#utility.yul\":1992:2071   */\n      tag_113\n      tag_43\n      jump\t// in\n    tag_113:\n        /* \"#utility.yul\":1954:2073   */\n    tag_112:\n        /* \"#utility.yul\":2112:2113   */\n      0x00\n        /* \"#utility.yul\":2137:2190   */\n      tag_114\n        /* \"#utility.yul\":2182:2189   */\n      dup6\n        /* \"#utility.yul\":2173:2179   */\n      dup3\n        /* \"#utility.yul\":2162:2171   */\n      dup7\n        /* \"#utility.yul\":2158:2180   */\n      add\n        /* \"#utility.yul\":2137:2190   */\n      tag_48\n      jump\t// in\n    tag_114:\n        /* \"#utility.yul\":2127:2190   */\n      swap3\n      pop\n        /* \"#utility.yul\":2083:2200   */\n      pop\n        /* \"#utility.yul\":2239:2241   */\n      0x20\n        /* \"#utility.yul\":2265:2315   */\n      tag_115\n        /* \"#utility.yul\":2307:2314   */\n      dup6\n        /* \"#utility.yul\":2298:2304   */\n      dup3\n        /* \"#utility.yul\":2287:2296   */\n      dup7\n        /* \"#utility.yul\":2283:2305   */\n      add\n        /* \"#utility.yul\":2265:2315   */\n      tag_52\n      jump\t// in\n    tag_115:\n        /* \"#utility.yul\":2255:2315   */\n      swap2\n      pop\n        /* \"#utility.yul\":2210:2325   */\n      pop\n        /* \"#utility.yul\":1864:2332   */\n      swap3\n      pop\n      swap3\n      swap1\n      pop\n      jump\t// out\n        /* \"#utility.yul\":2338:2437   */\n    tag_53:\n        /* \"#utility.yul\":2390:2396   */\n      0x00\n        /* \"#utility.yul\":2424:2429   */\n      dup2\n        /* \"#utility.yul\":2418:2430   */\n      mload\n        /* \"#utility.yul\":2408:2430   */\n      swap1\n      pop\n        /* \"#utility.yul\":2338:2437   */\n      swap2\n      swap1\n      pop\n      jump\t// out\n        /* \"#utility.yul\":2443:2612   */\n    tag_54:\n        /* \"#utility.yul\":2527:2538   */\n      0x00\n        /* \"#utility.yul\":2561:2567   */\n      dup3\n        /* \"#utility.yul\":2556:2559   */\n      dup3\n        /* \"#utility.yul\":2549:2568   */\n      mstore\n        /* \"#utility.yul\":2601:2605   */\n      0x20\n        /* \"#utility.yul\":2596:2599   */\n      dup3\n        /* \"#utility.yul\":2592:2606   */\n      add\n        /* \"#utility.yul\":2577:2606   */\n      swap1\n      pop\n        /* \"#utility.yul\":2443:2612   */\n      swap3\n      swap2\n      pop\n      pop\n      jump\t// out\n        /* \"#utility.yul\":2618:2864   */\n    tag_55:\n        /* \"#utility.yul\":2699:2700   */\n      0x00\n        /* \"#utility.yul\":2709:2822   */\n    tag_119:\n        /* \"#utility.yul\":2723:2729   */\n      dup4\n        /* \"#utility.yul\":2720:2721   */\n      dup2\n        /* \"#utility.yul\":2717:2730   */\n      lt\n        /* \"#utility.yul\":2709:2822   */\n      iszero\n      tag_121\n      jumpi\n        /* \"#utility.yul\":2808:2809   */\n      dup1\n        /* \"#utility.yul\":2803:2806   */\n      dup3\n        /* \"#utility.yul\":2799:2810   */\n      add\n        /* \"#utility.yul\":2793:2811   */\n      mload\n        /* \"#utility.yul\":2789:2790   */\n      dup2\n        /* \"#utility.yul\":2784:2787   */\n      dup5\n        /* \"#utility.yul\":2780:2791   */\n      add\n        /* \"#utility.yul\":2773:2812   */\n      mstore\n        /* \"#utility.yul\":2745:2747   */\n      0x20\n        /* \"#utility.yul\":2742:2743   */\n      dup2\n        /* \"#utility.yul\":2738:2748   */\n      add\n        /* \"#utility.yul\":2733:2748   */\n      swap1\n      pop\n        /* \"#utility.yul\":2709:2822   */\n      jump(tag_119)\n    tag_121:\n        /* \"#utility.yul\":2856:2857   */\n      0x00\n        /* \"#utility.yul\":2847:2853   */\n      dup5\n        /* \"#utility.yul\":2842:2845   */\n      dup5\n        /* \"#utility.yul\":2838:2854   */\n      add\n        /* \"#utility.yul\":2831:2858   */\n      mstore\n        /* \"#utility.yul\":2680:2864   */\n      pop\n        /* \"#utility.yul\":2618:2864   */\n      pop\n      pop\n      pop\n      jump\t// out\n        /* \"#utility.yul\":2870:2972   */\n    tag_56:\n        /* \"#utility.yul\":2911:2917   */\n      0x00\n        /* \"#utility.yul\":2962:2964   */\n      0x1f\n        /* \"#utility.yul\":2958:2965   */\n      not\n        /* \"#utility.yul\":2953:2955   */\n      0x1f\n        /* \"#utility.yul\":2946:2951   */\n      dup4\n        /* \"#utility.yul\":2942:2956   */\n      add\n        /* \"#utility.yul\":2938:2966   */\n      and\n        /* \"#utility.yul\":2928:2966   */\n      swap1\n      pop\n        /* \"#utility.yul\":2870:2972   */\n      swap2\n      swap1\n      pop\n      jump\t// out\n        /* \"#utility.yul\":2978:3355   */\n    tag_57:\n        /* \"#utility.yul\":3066:3069   */\n      0x00\n        /* \"#utility.yul\":3094:3133   */\n      tag_124\n        /* \"#utility.yul\":3127:3132   */\n      dup3\n        /* \"#utility.yul\":3094:3133   */\n      tag_53\n      jump\t// in\n    tag_124:\n        /* \"#utility.yul\":3149:3220   */\n      tag_125\n        /* \"#utility.yul\":3213:3219   */\n      dup2\n        /* \"#utility.yul\":3208:3211   */\n      dup6\n        /* \"#utility.yul\":3149:3220   */\n      tag_54\n      jump\t// in\n    tag_125:\n        /* \"#utility.yul\":3142:3220   */\n      swap4\n      pop\n        /* \"#utility.yul\":3229:3294   */\n      tag_126\n        /* \"#utility.yul\":3287:3293   */\n      dup2\n        /* \"#utility.yul\":3282:3285   */\n      dup6\n        /* \"#utility.yul\":3275:3279   */\n      0x20\n        /* \"#utility.yul\":3268:3273   */\n      dup7\n        /* \"#utility.yul\":3264:3280   */\n      add\n        /* \"#utility.yul\":3229:3294   */\n      tag_55\n      jump\t// in\n    tag_126:\n        /* \"#utility.yul\":3319:3348   */\n      tag_127\n        /* \"#utility.yul\":3341:3347   */\n      dup2\n        /* \"#utility.yul\":3319:3348   */\n      tag_56\n      jump\t// in\n    tag_127:\n        /* \"#utility.yul\":3314:3317   */\n      dup5\n        /* \"#utility.yul\":3310:3349   */\n      add\n        /* \"#utility.yul\":3303:3349   */\n      swap2\n      pop\n        /* \"#utility.yul\":3070:3355   */\n      pop\n        /* \"#utility.yul\":2978:3355   */\n      swap3\n      swap2\n      pop\n      pop\n      jump\t// out\n        /* \"#utility.yul\":3361:3674   */\n    tag_21:\n        /* \"#utility.yul\":3474:3478   */\n      0x00\n        /* \"#utility.yul\":3512:3514   */\n      0x20\n        /* \"#utility.yul\":3501:3510   */\n      dup3\n        /* \"#utility.yul\":3497:3515   */\n      add\n        /* \"#utility.yul\":3489:3515   */\n      swap1\n      pop\n        /* \"#utility.yul\":3561:3570   */\n      dup2\n        /* \"#utility.yul\":3555:3559   */\n      dup2\n        /* \"#utility.yul\":3551:3571   */\n      sub\n        /* \"#utility.yul\":3547:3548   */\n      0x00\n        /* \"#utility.yul\":3536:3545   */\n      dup4\n        /* \"#utility.yul\":3532:3549   */\n      add\n        /* \"#utility.yul\":3525:3572   */\n      mstore\n        /* \"#utility.yul\":3589:3667   */\n      tag_129\n        /* \"#utility.yul\":3662:3666   */\n      dup2\n        /* \"#utility.yul\":3653:3659   */\n      dup5\n        /* \"#utility.yul\":3589:3667   */\n      tag_57\n      jump\t// in\n    tag_129:\n        /* \"#utility.yul\":3581:3667   */\n      swap1\n      pop\n        /* \"#utility.yul\":3361:3674   */\n      swap3\n      swap2\n      pop\n      pop\n      jump\t// out\n        /* \"#utility.yul\":3680:3797   */\n    tag_58:\n        /* \"#utility.yul\":3789:3790   */\n      0x00\n        /* \"#utility.yul\":3786:3787   */\n      dup1\n        /* \"#utility.yul\":3779:3791   */\n      revert\n        /* \"#utility.yul\":3803:3920   */\n    tag_59:\n        /* \"#utility.yul\":3912:3913   */\n      0x00\n        /* \"#utility.yul\":3909:3910   */\n      dup1\n        /* \"#utility.yul\":3902:3914   */\n      revert\n        /* \"#utility.yul\":3926:4106   */\n    tag_60:\n        /* \"#utility.yul\":3974:4051   */\n      0x4e487b7100000000000000000000000000000000000000000000000000000000\n        /* \"#utility.yul\":3971:3972   */\n      0x00\n        /* \"#utility.yul\":3964:4052   */\n      mstore\n        /* \"#utility.yul\":4071:4075   */\n      0x41\n        /* \"#utility.yul\":4068:4069   */\n      0x04\n        /* \"#utility.yul\":4061:4076   */\n      mstore\n        /* \"#utility.yul\":4095:4099   */\n      0x24\n        /* \"#utility.yul\":4092:4093   */\n      0x00\n        /* \"#utility.yul\":4085:4100   */\n      revert\n        /* \"#utility.yul\":4112:4393   */\n    tag_61:\n        /* \"#utility.yul\":4195:4222   */\n      tag_134\n        /* \"#utility.yul\":4217:4221   */\n      dup3\n        /* \"#utility.yul\":4195:4222   */\n      tag_56\n      jump\t// in\n    tag_134:\n        /* \"#utility.yul\":4187:4193   */\n      dup2\n        /* \"#utility.yul\":4183:4223   */\n      add\n        /* \"#utility.yul\":4325:4331   */\n      dup2\n        /* \"#utility.yul\":4313:4323   */\n      dup2\n        /* \"#utility.yul\":4310:4332   */\n      lt\n        /* \"#utility.yul\":4289:4307   */\n      0xffffffffffffffff\n        /* \"#utility.yul\":4277:4287   */\n      dup3\n        /* \"#utility.yul\":4274:4308   */\n      gt\n        /* \"#utility.yul\":4271:4333   */\n      or\n        /* \"#utility.yul\":4268:4356   */\n      iszero\n      tag_135\n      jumpi\n        /* \"#utility.yul\":4336:4354   */\n      tag_136\n      tag_60\n      jump\t// in\n    tag_136:\n        /* \"#utility.yul\":4268:4356   */\n    tag_135:\n        /* \"#utility.yul\":4376:4386   */\n      dup1\n        /* \"#utility.yul\":4372:4374   */\n      0x40\n        /* \"#utility.yul\":4365:4387   */\n      mstore\n        /* \"#utility.yul\":4155:4393   */\n      pop\n        /* \"#utility.yul\":4112:4393   */\n      pop\n      pop\n      jump\t// out\n        /* \"#utility.yul\":4399:4528   */\n    tag_62:\n        /* \"#utility.yul\":4433:4439   */\n      0x00\n        /* \"#utility.yul\":4460:4480   */\n      tag_138\n      tag_42\n      jump\t// in\n    tag_138:\n        /* \"#utility.yul\":4450:4480   */\n      swap1\n      pop\n        /* \"#utility.yul\":4489:4522   */\n      tag_139\n        /* \"#utility.yul\":4517:4521   */\n      dup3\n        /* \"#utility.yul\":4509:4515   */\n      dup3\n        /* \"#utility.yul\":4489:4522   */\n      tag_61\n      jump\t// in\n    tag_139:\n        /* \"#utility.yul\":4399:4528   */\n      swap2\n      swap1\n      pop\n      jump\t// out\n        /* \"#utility.yul\":4534:4842   */\n    tag_63:\n        /* \"#utility.yul\":4596:4600   */\n      0x00\n        /* \"#utility.yul\":4686:4704   */\n      0xffffffffffffffff\n        /* \"#utility.yul\":4678:4684   */\n      dup3\n        /* \"#utility.yul\":4675:4705   */\n      gt\n        /* \"#utility.yul\":4672:4728   */\n      iszero\n      tag_141\n      jumpi\n        /* \"#utility.yul\":4708:4726   */\n      tag_142\n      tag_60\n      jump\t// in\n    tag_142:\n        /* \"#utility.yul\":4672:4728   */\n    tag_141:\n        /* \"#utility.yul\":4746:4775   */\n      tag_143\n        /* \"#utility.yul\":4768:4774   */\n      dup3\n        /* \"#utility.yul\":4746:4775   */\n      tag_56\n      jump\t// in\n    tag_143:\n        /* \"#utility.yul\":4738:4775   */\n      swap1\n      pop\n        /* \"#utility.yul\":4830:4834   */\n      0x20\n        /* \"#utility.yul\":4824:4828   */\n      dup2\n        /* \"#utility.yul\":4820:4835   */\n      add\n        /* \"#utility.yul\":4812:4835   */\n      swap1\n      pop\n        /* \"#utility.yul\":4534:4842   */\n      swap2\n      swap1\n      pop\n      jump\t// out\n        /* \"#utility.yul\":4848:4994   */\n    tag_64:\n        /* \"#utility.yul\":4945:4951   */\n      dup3\n        /* \"#utility.yul\":4940:4943   */\n      dup2\n        /* \"#utility.yul\":4935:4938   */\n      dup4\n        /* \"#utility.yul\":4922:4952   */\n      calldatacopy\n        /* \"#utility.yul\":4986:4987   */\n      0x00\n        /* \"#utility.yul\":4977:4983   */\n      dup4\n        /* \"#utility.yul\":4972:4975   */\n      dup4\n        /* \"#utility.yul\":4968:4984   */\n      add\n        /* \"#utility.yul\":4961:4988   */\n      mstore\n        /* \"#utility.yul\":4848:4994   */\n      pop\n      pop\n      pop\n      jump\t// out\n        /* \"#utility.yul\":5000:5425   */\n    tag_65:\n        /* \"#utility.yul\":5078:5083   */\n      0x00\n        /* \"#utility.yul\":5103:5169   */\n      tag_146\n        /* \"#utility.yul\":5119:5168   */\n      tag_147\n        /* \"#utility.yul\":5161:5167   */\n      dup5\n        /* \"#utility.yul\":5119:5168   */\n      tag_63\n      jump\t// in\n    tag_147:\n        /* \"#utility.yul\":5103:5169   */\n      tag_62\n      jump\t// in\n    tag_146:\n        /* \"#utility.yul\":5094:5169   */\n      swap1\n      pop\n        /* \"#utility.yul\":5192:5198   */\n      dup3\n        /* \"#utility.yul\":5185:5190   */\n      dup2\n        /* \"#utility.yul\":5178:5199   */\n      mstore\n        /* \"#utility.yul\":5230:5234   */\n      0x20\n        /* \"#utility.yul\":5223:5228   */\n      dup2\n        /* \"#utility.yul\":5219:5235   */\n      add\n        /* \"#utility.yul\":5268:5271   */\n      dup5\n        /* \"#utility.yul\":5259:5265   */\n      dup5\n        /* \"#utility.yul\":5254:5257   */\n      dup5\n        /* \"#utility.yul\":5250:5266   */\n      add\n        /* \"#utility.yul\":5247:5272   */\n      gt\n        /* \"#utility.yul\":5244:5356   */\n      iszero\n      tag_148\n      jumpi\n        /* \"#utility.yul\":5275:5354   */\n      tag_149\n      tag_59\n      jump\t// in\n    tag_149:\n        /* \"#utility.yul\":5244:5356   */\n    tag_148:\n        /* \"#utility.yul\":5365:5419   */\n      tag_150\n        /* \"#utility.yul\":5412:5418   */\n      dup5\n        /* \"#utility.yul\":5407:5410   */\n      dup3\n        /* \"#utility.yul\":5402:5405   */\n      dup6\n        /* \"#utility.yul\":5365:5419   */\n      tag_64\n      jump\t// in\n    tag_150:\n        /* \"#utility.yul\":5084:5425   */\n      pop\n        /* \"#utility.yul\":5000:5425   */\n      swap4\n      swap3\n      pop\n      pop\n      pop\n      jump\t// out\n        /* \"#utility.yul\":5445:5785   */\n    tag_66:\n        /* \"#utility.yul\":5501:5506   */\n      0x00\n        /* \"#utility.yul\":5550:5553   */\n      dup3\n        /* \"#utility.yul\":5543:5547   */\n      0x1f\n        /* \"#utility.yul\":5535:5541   */\n      dup4\n        /* \"#utility.yul\":5531:5548   */\n      add\n        /* \"#utility.yul\":5527:5554   */\n      slt\n        /* \"#utility.yul\":5517:5639   */\n      tag_152\n      jumpi\n        /* \"#utility.yul\":5558:5637   */\n      tag_153\n      tag_58\n      jump\t// in\n    tag_153:\n        /* \"#utility.yul\":5517:5639   */\n    tag_152:\n        /* \"#utility.yul\":5675:5681   */\n      dup2\n        /* \"#utility.yul\":5662:5682   */\n      calldataload\n        /* \"#utility.yul\":5700:5779   */\n      tag_154\n        /* \"#utility.yul\":5775:5778   */\n      dup5\n        /* \"#utility.yul\":5767:5773   */\n      dup3\n        /* \"#utility.yul\":5760:5764   */\n      0x20\n        /* \"#utility.yul\":5752:5758   */\n      dup7\n        /* \"#utility.yul\":5748:5765   */\n      add\n        /* \"#utility.yul\":5700:5779   */\n      tag_65\n      jump\t// in\n    tag_154:\n        /* \"#utility.yul\":5691:5779   */\n      swap2\n      pop\n        /* \"#utility.yul\":5507:5785   */\n      pop\n        /* \"#utility.yul\":5445:5785   */\n      swap3\n      swap2\n      pop\n      pop\n      jump\t// out\n        /* \"#utility.yul\":5791:6300   */\n    tag_24:\n        /* \"#utility.yul\":5860:5866   */\n      0x00\n        /* \"#utility.yul\":5909:5911   */\n      0x20\n        /* \"#utility.yul\":5897:5906   */\n      dup3\n        /* \"#utility.yul\":5888:5895   */\n      dup5\n        /* \"#utility.yul\":5884:5907   */\n      sub\n        /* \"#utility.yul\":5880:5912   */\n      slt\n        /* \"#utility.yul\":5877:5996   */\n      iszero\n      tag_156\n      jumpi\n        /* \"#utility.yul\":5915:5994   */\n      tag_157\n      tag_43\n      jump\t// in\n    tag_157:\n        /* \"#utility.yul\":5877:5996   */\n    tag_156:\n        /* \"#utility.yul\":6063:6064   */\n      0x00\n        /* \"#utility.yul\":6052:6061   */\n      dup3\n        /* \"#utility.yul\":6048:6065   */\n      add\n        /* \"#utility.yul\":6035:6066   */\n      calldataload\n        /* \"#utility.yul\":6093:6111   */\n      0xffffffffffffffff\n        /* \"#utility.yul\":6085:6091   */\n      dup2\n        /* \"#utility.yul\":6082:6112   */\n      gt\n        /* \"#utility.yul\":6079:6196   */\n      iszero\n      tag_158\n      jumpi\n        /* \"#utility.yul\":6115:6194   */\n      tag_159\n      tag_44\n      jump\t// in\n    tag_159:\n        /* \"#utility.yul\":6079:6196   */\n    tag_158:\n        /* \"#utility.yul\":6220:6283   */\n      tag_160\n        /* \"#utility.yul\":6275:6282   */\n      dup5\n        /* \"#utility.yul\":6266:6272   */\n      dup3\n        /* \"#utility.yul\":6255:6264   */\n      dup6\n        /* \"#utility.yul\":6251:6273   */\n      add\n        /* \"#utility.yul\":6220:6283   */\n      tag_66\n      jump\t// in\n    tag_160:\n        /* \"#utility.yul\":6210:6283   */\n      swap2\n      pop\n        /* \"#utility.yul\":6006:6293   */\n      pop\n        /* \"#utility.yul\":5791:6300   */\n      swap3\n      swap2\n      pop\n      pop\n      jump\t// out\n        /* \"#utility.yul\":6306:6424   */\n    tag_67:\n        /* \"#utility.yul\":6393:6417   */\n      tag_162\n        /* \"#utility.yul\":6411:6416   */\n      dup2\n        /* \"#utility.yul\":6393:6417   */\n      tag_46\n      jump\t// in\n    tag_162:\n        /* \"#utility.yul\":6388:6391   */\n      dup3\n        /* \"#utility.yul\":6381:6418   */\n      mstore\n        /* \"#utility.yul\":6306:6424   */\n      pop\n      pop\n      jump\t// out\n        /* \"#utility.yul\":6430:6652   */\n    tag_29:\n        /* \"#utility.yul\":6523:6527   */\n      0x00\n        /* \"#utility.yul\":6561:6563   */\n      0x20\n        /* \"#utility.yul\":6550:6559   */\n      dup3\n        /* \"#utility.yul\":6546:6564   */\n      add\n        /* \"#utility.yul\":6538:6564   */\n      swap1\n      pop\n        /* \"#utility.yul\":6574:6645   */\n      tag_164\n        /* \"#utility.yul\":6642:6643   */\n      0x00\n        /* \"#utility.yul\":6631:6640   */\n      dup4\n        /* \"#utility.yul\":6627:6644   */\n      add\n        /* \"#utility.yul\":6618:6624   */\n      dup5\n        /* \"#utility.yul\":6574:6645   */\n      tag_67\n      jump\t// in\n    tag_164:\n        /* \"#utility.yul\":6430:6652   */\n      swap3\n      swap2\n      pop\n      pop\n      jump\t// out\n        /* \"#utility.yul\":6658:6838   */\n    tag_68:\n        /* \"#utility.yul\":6706:6783   */\n      0x4e487b7100000000000000000000000000000000000000000000000000000000\n        /* \"#utility.yul\":6703:6704   */\n      0x00\n        /* \"#utility.yul\":6696:6784   */\n      mstore\n        /* \"#utility.yul\":6803:6807   */\n      0x22\n        /* \"#utility.yul\":6800:6801   */\n      0x04\n        /* \"#utility.yul\":6793:6808   */\n      mstore\n        /* \"#utility.yul\":6827:6831   */\n      0x24\n        /* \"#utility.yul\":6824:6825   */\n      0x00\n        /* \"#utility.yul\":6817:6832   */\n      revert\n        /* \"#utility.yul\":6844:7164   */\n    tag_32:\n        /* \"#utility.yul\":6888:6894   */\n      0x00\n        /* \"#utility.yul\":6925:6926   */\n      0x02\n        /* \"#utility.yul\":6919:6923   */\n      dup3\n        /* \"#utility.yul\":6915:6927   */\n      div\n        /* \"#utility.yul\":6905:6927   */\n      swap1\n      pop\n        /* \"#utility.yul\":6972:6973   */\n      0x01\n        /* \"#utility.yul\":6966:6970   */\n      dup3\n        /* \"#utility.yul\":6962:6974   */\n      and\n        /* \"#utility.yul\":6993:7011   */\n      dup1\n        /* \"#utility.yul\":6983:7064   */\n      tag_167\n      jumpi\n        /* \"#utility.yul\":7049:7053   */\n      0x7f\n        /* \"#utility.yul\":7041:7047   */\n      dup3\n        /* \"#utility.yul\":7037:7054   */\n      and\n        /* \"#utility.yul\":7027:7054   */\n      swap2\n      pop\n        /* \"#utility.yul\":6983:7064   */\n    tag_167:\n        /* \"#utility.yul\":7111:7113   */\n      0x20\n        /* \"#utility.yul\":7103:7109   */\n      dup3\n        /* \"#utility.yul\":7100:7114   */\n      lt\n        /* \"#utility.yul\":7080:7098   */\n      dup2\n        /* \"#utility.yul\":7077:7115   */\n      sub\n        /* \"#utility.yul\":7074:7158   */\n      tag_168\n      jumpi\n        /* \"#utility.yul\":7130:7148   */\n      tag_169\n      tag_68\n      jump\t// in\n    tag_169:\n        /* \"#utility.yul\":7074:7158   */\n    tag_168:\n        /* \"#utility.yul\":6895:7164   */\n      pop\n        /* \"#utility.yul\":6844:7164   */\n      swap2\n      swap1\n      pop\n      jump\t// out\n        /* \"#utility.yul\":7170:7311   */\n    tag_69:\n        /* \"#utility.yul\":7219:7223   */\n      0x00\n        /* \"#utility.yul\":7242:7245   */\n      dup2\n        /* \"#utility.yul\":7234:7245   */\n      swap1\n      pop\n        /* \"#utility.yul\":7265:7268   */\n      dup2\n        /* \"#utility.yul\":7262:7263   */\n      0x00\n        /* \"#utility.yul\":7255:7269   */\n      mstore\n        /* \"#utility.yul\":7299:7303   */\n      0x20\n        /* \"#utility.yul\":7296:7297   */\n      0x00\n        /* \"#utility.yul\":7286:7304   */\n      keccak256\n        /* \"#utility.yul\":7278:7304   */\n      swap1\n      pop\n        /* \"#utility.yul\":7170:7311   */\n      swap2\n      swap1\n      pop\n      jump\t// out\n        /* \"#utility.yul\":7317:7410   */\n    tag_70:\n        /* \"#utility.yul\":7354:7360   */\n      0x00\n        /* \"#utility.yul\":7401:7403   */\n      0x20\n        /* \"#utility.yul\":7396:7398   */\n      0x1f\n        /* \"#utility.yul\":7389:7394   */\n      dup4\n        /* \"#utility.yul\":7385:7399   */\n      add\n        /* \"#utility.yul\":7381:7404   */\n      div\n        /* \"#utility.yul\":7371:7404   */\n      swap1\n      pop\n        /* \"#utility.yul\":7317:7410   */\n      swap2\n      swap1\n      pop\n      jump\t// out\n        /* \"#utility.yul\":7416:7523   */\n    tag_71:\n        /* \"#utility.yul\":7460:7468   */\n      0x00\n        /* \"#utility.yul\":7510:7515   */\n      dup3\n        /* \"#utility.yul\":7504:7508   */\n      dup3\n        /* \"#utility.yul\":7500:7516   */\n      shl\n        /* \"#utility.yul\":7479:7516   */\n      swap1\n      pop\n        /* \"#utility.yul\":7416:7523   */\n      swap3\n      swap2\n      pop\n      pop\n      jump\t// out\n        /* \"#utility.yul\":7529:7922   */\n    tag_72:\n        /* \"#utility.yul\":7598:7604   */\n      0x00\n        /* \"#utility.yul\":7648:7649   */\n      0x08\n        /* \"#utility.yul\":7636:7646   */\n      dup4\n        /* \"#utility.yul\":7632:7650   */\n      mul\n        /* \"#utility.yul\":7671:7768   */\n      tag_174\n        /* \"#utility.yul\":7701:7767   */\n      0xffffffffffffffffffffffffffffffffffffffffffffffffffffffffffffffff\n        /* \"#utility.yul\":7690:7699   */\n      dup3\n        /* \"#utility.yul\":7671:7768   */\n      tag_71\n      jump\t// in\n    tag_174:\n        /* \"#utility.yul\":7789:7828   */\n      tag_175\n        /* \"#utility.yul\":7819:7827   */\n      dup7\n        /* \"#utility.yul\":7808:7817   */\n      dup4\n        /* \"#utility.yul\":7789:7828   */\n      tag_71\n      jump\t// in\n    tag_175:\n        /* \"#utility.yul\":7777:7828   */\n      swap6\n      pop\n        /* \"#utility.yul\":7861:7865   */\n      dup1\n        /* \"#utility.yul\":7857:7866   */\n      not\n        /* \"#utility.yul\":7850:7855   */\n      dup5\n        /* \"#utility.yul\":7846:7867   */\n      and\n        /* \"#utility.yul\":7837:7867   */\n      swap4\n      pop\n        /* \"#utility.yul\":7910:7914   */\n      dup1\n        /* \"#utility.yul\":7900:7908   */\n      dup7\n        /* \"#utility.yul\":7896:7915   */\n      and\n        /* \"#utility.yul\":7889:7894   */\n      dup5\n        /* \"#utility.yul\":7886:7916   */\n      or\n        /* \"#utility.yul\":7876:7916   */\n      swap3\n      pop\n        /* \"#utility.yul\":7605:7922   */\n      pop\n      pop\n        /* \"#utility.yul\":7529:7922   */\n      swap4\n      swap3\n      pop\n      pop\n      pop\n      jump\t// out\n        /* \"#utility.yul\":7928:8005   */\n    tag_73:\n        /* \"#utility.yul\":7965:7972   */\n      0x00\n        /* \"#utility.yul\":7994:7999   */\n      dup2\n        /* \"#utility.yul\":7983:7999   */\n      swap1\n      pop\n        /* \"#utility.yul\":7928:8005   */\n      swap2\n      swap1\n      pop\n      jump\t// out\n        /* \"#utility.yul\":8011:8071   */\n    tag_74:\n        /* \"#utility.yul\":8039:8042   */\n      0x00\n        /* \"#utility.yul\":8060:8065   */\n      dup2\n        /* \"#utility.yul\":8053:8065   */\n      swap1\n      pop\n        /* \"#utility.yul\":8011:8071   */\n      swap2\n      swap1\n      pop\n      jump\t// out\n        /* \"#utility.yul\":8077:8219   */\n    tag_75:\n        /* \"#utility.yul\":8127:8136   */\n      0x00\n        /* \"#utility.yul\":8160:8213   */\n      tag_179\n        /* \"#utility.yul\":8178:8212   */\n      tag_180\n        /* \"#utility.yul\":8187:8211   */\n      tag_181\n        /* \"#utility.yul\":8205:8210   */\n      dup5\n        /* \"#utility.yul\":8187:8211   */\n      tag_73\n      jump\t// in\n    tag_181:\n        /* \"#utility.yul\":8178:8212   */\n      tag_74\n      jump\t// in\n    tag_180:\n        /* \"#utility.yul\":8160:8213   */\n      tag_73\n      jump\t// in\n    tag_179:\n        /* \"#utility.yul\":8147:8213   */\n      swap1\n      pop\n        /* \"#utility.yul\":8077:8219   */\n      swap2\n      swap1\n      pop\n      jump\t// out\n        /* \"#utility.yul\":8225:8300   */\n    tag_76:\n        /* \"#utility.yul\":8268:8271   */\n      0x00\n        /* \"#utility.yul\":8289:8294   */\n      dup2\n        /* \"#utility.yul\":8282:8294   */\n      swap1\n      pop\n        /* \"#utility.yul\":8225:8300   */\n      swap2\n      swap1\n      pop\n      jump\t// out\n        /* \"#utility.yul\":8306:8575   */\n    tag_77:\n        /* \"#utility.yul\":8416:8455   */\n      tag_184\n        /* \"#utility.yul\":8447:8454   */\n      dup4\n        /* \"#utility.yul\":8416:8455   */\n      tag_75\n      jump\t// in\n    tag_184:\n        /* \"#utility.yul\":8477:8568   */\n      tag_185\n        /* \"#utility.yul\":8526:8567   */\n      tag_186\n        /* \"#utility.yul\":8550:8566   */\n      dup3\n        /* \"#utility.yul\":8526:8567   */\n      tag_76\n      jump\t// in\n    tag_186:\n        /* \"#utility.yul\":8518:8524   */\n      dup5\n        /* \"#utility.yul\":8511:8515   */\n      dup5\n        /* \"#utility.yul\":8505:8516   */\n      sload\n        /* \"#utility.yul\":8477:8568   */\n      tag_72\n      jump\t// in\n    tag_185:\n        /* \"#utility.yul\":8471:8475   */\n      dup3\n        /* \"#utility.yul\":8464:8569   */\n      sstore\n        /* \"#utility.yul\":8382:8575   */\n      pop\n        /* \"#utility.yul\":8306:8575   */\n      pop\n      pop\n      pop\n      jump\t// out\n        /* \"#utility.yul\":8581:8654   */\n    tag_78:\n        /* \"#utility.yul\":8626:8629   */\n      0x00\n        /* \"#utility.yul\":8581:8654   */\n      swap1\n      jump\t// out\n        /* \"#utility.yul\":8660:8849   */\n    tag_79:\n        /* \"#utility.yul\":8737:8769   */\n      tag_189\n      tag_78\n      jump\t// in\n    tag_189:\n        /* \"#utility.yul\":8778:8843   */\n      tag_190\n        /* \"#utility.yul\":8836:8842   */\n      dup2\n        /* \"#utility.yul\":8828:8834   */\n      dup5\n        /* \"#utility.yul\":8822:8826   */\n      dup5\n        /* \"#utility.yul\":8778:8843   */\n      tag_77\n      jump\t// in\n    tag_190:\n        /* \"#utility.yul\":8713:8849   */\n      pop\n        /* \"#utility.yul\":8660:8849   */\n      pop\n      pop\n      jump\t// out\n        /* \"#utility.yul\":8855:9041   */\n    tag_80:\n        /* \"#utility.yul\":8915:9035   */\n    tag_192:\n        /* \"#utility.yul\":8932:8935   */\n      dup2\n        /* \"#utility.yul\":8925:8930   */\n      dup2\n        /* \"#utility.yul\":8922:8936   */\n      lt\n        /* \"#utility.yul\":8915:9035   */\n      iszero\n      tag_194\n      jumpi\n        /* \"#utility.yul\":8986:9025   */\n      tag_195\n        /* \"#utility.yul\":9023:9024   */\n      0x00\n        /* \"#utility.yul\":9016:9021   */\n      dup3\n        /* \"#utility.yul\":8986:9025   */\n      tag_79\n      jump\t// in\n    tag_195:\n        /* \"#utility.yul\":8959:8960   */\n      0x01\n        /* \"#utility.yul\":8952:8957   */\n      dup2\n        /* \"#utility.yul\":8948:8961   */\n      add\n        /* \"#utility.yul\":8939:8961   */\n      swap1\n      pop\n        /* \"#utility.yul\":8915:9035   */\n      jump(tag_192)\n    tag_194:\n        /* \"#utility.yul\":8855:9041   */\n      pop\n      pop\n      jump\t// out\n        /* \"#utility.yul\":9047:9590   */\n    tag_81:\n        /* \"#utility.yul\":9148:9150   */\n      0x1f\n        /* \"#utility.yul\":9143:9146   */\n      dup3\n        /* \"#utility.yul\":9140:9151   */\n      gt\n        /* \"#utility.yul\":9137:9583   */\n      iszero\n      tag_197\n      jumpi\n        /* \"#utility.yul\":9182:9220   */\n      tag_198\n        /* \"#utility.yul\":9214:9219   */\n      dup2\n        /* \"#utility.yul\":9182:9220   */\n      tag_69\n      jump\t// in\n    tag_198:\n        /* \"#utility.yul\":9266:9295   */\n      tag_199\n        /* \"#utility.yul\":9284:9294   */\n      dup5\n        /* \"#utility.yul\":9266:9295   */\n      tag_70\n      jump\t// in\n    tag_199:\n        /* \"#utility.yul\":9256:9264   */\n      dup2\n        /* \"#utility.yul\":9252:9296   */\n      add\n        /* \"#utility.yul\":9449:9451   */\n      0x20\n        /* \"#utility.yul\":9437:9447   */\n      dup6\n        /* \"#utility.yul\":9434:9452   */\n      lt\n        /* \"#utility.yul\":9431:9480   */\n      iszero\n      tag_200\n      jumpi\n        /* \"#utility.yul\":9470:9478   */\n      dup2\n        /* \"#utility.yul\":9455:9478   */\n      swap1\n      pop\n        /* \"#utility.yul\":9431:9480   */\n    tag_200:\n        /* \"#utility.yul\":9493:9573   */\n      tag_201\n        /* \"#utility.yul\":9549:9571   */\n      tag_202\n        /* \"#utility.yul\":9567:9570   */\n      dup6\n        /* \"#utility.yul\":9549:9571   */\n      tag_70\n      jump\t// in\n    tag_202:\n        /* \"#utility.yul\":9539:9547   */\n      dup4\n        /* \"#utility.yul\":9535:9572   */\n      add\n        /* \"#utility.yul\":9522:9533   */\n      dup3\n        /* \"#utility.yul\":9493:9573   */\n      tag_80\n      jump\t// in\n    tag_201:\n        /* \"#utility.yul\":9152:9583   */\n      pop\n      pop\n        /* \"#utility.yul\":9137:9583   */\n    tag_197:\n        /* \"#utility.yul\":9047:9590   */\n      pop\n      pop\n      pop\n      jump\t// out\n        /* \"#utility.yul\":9596:9713   */\n    tag_82:\n        /* \"#utility.yul\":9650:9658   */\n      0x00\n        /* \"#utility.yul\":9700:9705   */\n      dup3\n        /* \"#utility.yul\":9694:9698   */\n      dup3\n        /* \"#utility.yul\":9690:9706   */\n      shr\n        /* \"#utility.yul\":9669:9706   */\n      swap1\n      pop\n        /* \"#utility.yul\":9596:9713   */\n      swap3\n      swap2\n      pop\n      pop\n      jump\t// out\n        /* \"#utility.yul\":9719:9888   */\n    tag_83:\n        /* \"#utility.yul\":9763:9769   */\n      0x00\n        /* \"#utility.yul\":9796:9847   */\n      tag_205\n        /* \"#utility.yul\":9844:9845   */\n      0x00\n        /* \"#utility.yul\":9840:9846   */\n      not\n        /* \"#utility.yul\":9832:9837   */\n      dup5\n        /* \"#utility.yul\":9829:9830   */\n      0x08\n        /* \"#utility.yul\":9825:9838   */\n      mul\n        /* \"#utility.yul\":9796:9847   */\n      tag_82\n      jump\t// in\n    tag_205:\n        /* \"#utility.yul\":9792:9848   */\n      not\n        /* \"#utility.yul\":9877:9881   */\n      dup1\n        /* \"#utility.yul\":9871:9875   */\n      dup4\n        /* \"#utility.yul\":9867:9882   */\n      and\n        /* \"#utility.yul\":9857:9882   */\n      swap2\n      pop\n        /* \"#utility.yul\":9770:9888   */\n      pop\n        /* \"#utility.yul\":9719:9888   */\n      swap3\n      swap2\n      pop\n      pop\n      jump\t// out\n        /* \"#utility.yul\":9893:10188   */\n    tag_84:\n        /* \"#utility.yul\":9969:9973   */\n      0x00\n        /* \"#utility.yul\":10115:10144   */\n      tag_207\n        /* \"#utility.yul\":10140:10143   */\n      dup4\n        /* \"#utility.yul\":10134:10138   */\n      dup4\n        /* \"#utility.yul\":10115:10144   */\n      tag_83\n      jump\t// in\n    tag_207:\n        /* \"#utility.yul\":10107:10144   */\n      swap2\n      pop\n        /* \"#utility.yul\":10177:10180   */\n      dup3\n        /* \"#utility.yul\":10174:10175   */\n      0x02\n        /* \"#utility.yul\":10170:10181   */\n      mul\n        /* \"#utility.yul\":10164:10168   */\n      dup3\n        /* \"#utility.yul\":10161:10182   */\n      or\n        /* \"#utility.yul\":10153:10182   */\n      swap1\n      pop\n        /* \"#utility.yul\":9893:10188   */\n      swap3\n      swap2\n      pop\n      pop\n      jump\t// out\n        /* \"#utility.yul\":10193:11588   */\n    tag_41:\n        /* \"#utility.yul\":10310:10347   */\n      tag_209\n        /* \"#utility.yul\":10343:10346   */\n      dup3\n        /* \"#utility.yul\":10310:10347   */\n      tag_53\n      jump\t// in\n    tag_209:\n        /* \"#utility.yul\":10412:10430   */\n      0xffffffffffffffff\n        /* \"#utility.yul\":10404:10410   */\n      dup2\n        /* \"#utility.yul\":10401:10431   */\n      gt\n        /* \"#utility.yul\":10398:10454   */\n      iszero\n      tag_210\n      jumpi\n        /* \"#utility.yul\":10434:10452   */\n      tag_211\n      tag_60\n      jump\t// in\n    tag_211:\n        /* \"#utility.yul\":10398:10454   */\n    tag_210:\n        /* \"#utility.yul\":10478:10516   */\n      tag_212\n        /* \"#utility.yul\":10510:10514   */\n      dup3\n        /* \"#utility.yul\":10504:10515   */\n      sload\n        /* \"#utility.yul\":10478:10516   */\n      tag_32\n      jump\t// in\n    tag_212:\n        /* \"#utility.yul\":10563:10630   */\n      tag_213\n        /* \"#utility.yul\":10623:10629   */\n      dup3\n        /* \"#utility.yul\":10615:10621   */\n      dup3\n        /* \"#utility.yul\":10609:10613   */\n      dup6\n        /* \"#utility.yul\":10563:10630   */\n      tag_81\n      jump\t// in\n    tag_213:\n        /* \"#utility.yul\":10657:10658   */\n      0x00\n        /* \"#utility.yul\":10681:10685   */\n      0x20\n        /* \"#utility.yul\":10668:10685   */\n      swap1\n      pop\n        /* \"#utility.yul\":10713:10715   */\n      0x1f\n        /* \"#utility.yul\":10705:10711   */\n      dup4\n        /* \"#utility.yul\":10702:10716   */\n      gt\n        /* \"#utility.yul\":10730:10731   */\n      0x01\n        /* \"#utility.yul\":10725:11343   */\n      dup2\n      eq\n      tag_215\n      jumpi\n        /* \"#utility.yul\":11387:11388   */\n      0x00\n        /* \"#utility.yul\":11404:11410   */\n      dup5\n        /* \"#utility.yul\":11401:11478   */\n      iszero\n      tag_216\n      jumpi\n        /* \"#utility.yul\":11453:11462   */\n      dup3\n        /* \"#utility.yul\":11448:11451   */\n      dup8\n        /* \"#utility.yul\":11444:11463   */\n      add\n        /* \"#utility.yul\":11438:11464   */\n      mload\n        /* \"#utility.yul\":11429:11464   */\n      swap1\n      pop\n        /* \"#utility.yul\":11401:11478   */\n    tag_216:\n        /* \"#utility.yul\":11504:11571   */\n      tag_217\n        /* \"#utility.yul\":11564:11570   */\n      dup6\n        /* \"#utility.yul\":11557:11562   */\n      dup3\n        /* \"#utility.yul\":11504:11571   */\n      tag_84\n      jump\t// in\n    tag_217:\n        /* \"#utility.yul\":11498:11502   */\n      dup7\n        /* \"#utility.yul\":11491:11572   */\n      sstore\n        /* \"#utility.yul\":11360:11582   */\n      pop\n        /* \"#utility.yul\":10695:11582   */\n      jump(tag_214)\n        /* \"#utility.yul\":10725:11343   */\n    tag_215:\n        /* \"#utility.yul\":10777:10781   */\n      0x1f\n        /* \"#utility.yul\":10773:10782   */\n      not\n        /* \"#utility.yul\":10765:10771   */\n      dup5\n        /* \"#utility.yul\":10761:10783   */\n      and\n        /* \"#utility.yul\":10811:10848   */\n      tag_218\n        /* \"#utility.yul\":10843:10847   */\n      dup7\n        /* \"#utility.yul\":10811:10848   */\n      tag_69\n      jump\t// in\n    tag_218:\n        /* \"#utility.yul\":10870:10871   */\n      0x00\n        /* \"#utility.yul\":10884:11092   */\n    tag_219:\n        /* \"#utility.yul\":10898:10905   */\n      dup3\n        /* \"#utility.yul\":10895:10896   */\n      dup2\n        /* \"#utility.yul\":10892:10906   */\n      lt\n        /* \"#utility.yul\":10884:11092   */\n      iszero\n      tag_221\n      jumpi\n        /* \"#utility.yul\":10977:10986   */\n      dup5\n        /* \"#utility.yul\":10972:10975   */\n      dup10\n        /* \"#utility.yul\":10968:10987   */\n      add\n        /* \"#utility.yul\":10962:10988   */\n      mload\n        /* \"#utility.yul\":10954:10960   */\n      dup3\n        /* \"#utility.yul\":10947:10989   */\n      sstore\n        /* \"#utility.yul\":11028:11029   */\n      0x01\n        /* \"#utility.yul\":11020:11026   */\n      dup3\n        /* \"#utility.yul\":11016:11030   */\n      add\n        /* \"#utility.yul\":11006:11030   */\n      swap2\n      pop\n        /* \"#utility.yul\":11075:11077   */\n      0x20\n        /* \"#utility.yul\":11064:11073   */\n      dup6\n        /* \"#utility.yul\":11060:11078   */\n      add\n        /* \"#utility.yul\":11047:11078   */\n      swap5\n      pop\n        /* \"#utility.yul\":10921:10925   */\n      0x20\n        /* \"#utility.yul\":10918:10919   */\n      dup2\n        /* \"#utility.yul\":10914:10926   */\n      add\n        /* \"#utility.yul\":10909:10926   */\n      swap1\n      pop\n        /* \"#utility.yul\":10884:11092   */\n      jump(tag_219)\n    tag_221:\n        /* \"#utility.yul\":11120:11126   */\n      dup7\n        /* \"#utility.yul\":11111:11118   */\n      dup4\n        /* \"#utility.yul\":11108:11127   */\n      lt\n        /* \"#utility.yul\":11105:11284   */\n      iszero\n      tag_222\n      jumpi\n        /* \"#utility.yul\":11178:11187   */\n      dup5\n        /* \"#utility.yul\":11173:11176   */\n      dup10\n        /* \"#utility.yul\":11169:11188   */\n      add\n        /* \"#utility.yul\":11163:11189   */\n      mload\n        /* \"#utility.yul\":11221:11269   */\n      tag_223\n        /* \"#utility.yul\":11263:11267   */\n      0x1f\n        /* \"#utility.yul\":11255:11261   */\n      dup10\n        /* \"#utility.yul\":11251:11268   */\n      and\n        /* \"#utility.yul\":11240:11249   */\n      dup3\n        /* \"#utility.yul\":11221:11269   */\n      tag_83\n      jump\t// in\n    tag_223:\n        /* \"#utility.yul\":11213:11219   */\n      dup4\n        /* \"#utility.yul\":11206:11270   */\n      sstore\n        /* \"#utility.yul\":11128:11284   */\n      pop\n        /* \"#utility.yul\":11105:11284   */\n    tag_222:\n        /* \"#utility.yul\":11330:11331   */\n      0x01\n        /* \"#utility.yul\":11326:11327   */\n      0x02\n        /* \"#utility.yul\":11318:11324   */\n      dup9\n        /* \"#utility.yul\":11314:11328   */\n      mul\n        /* \"#utility.yul\":11310:11332   */\n      add\n        /* \"#utility.yul\":11304:11308   */\n      dup9\n        /* \"#utility.yul\":11297:11333   */\n      sstore\n        /* \"#utility.yul\":10732:11343   */\n      pop\n      pop\n      pop\n        /* \"#utility.yul\":10695:11582   */\n    tag_214:\n      pop\n        /* \"#utility.yul\":10285:11588   */\n      pop\n      pop\n      pop\n        /* \"#utility.yul\":10193:11588   */\n      pop\n      pop\n      jump\t// out\n\n    auxdata: 0xa2646970667358221220e954ef142ce35898ffb6b879c310dc84b9dd5478b0cc8ef8d569e54c7fc86e7364736f6c63430008140033\n}\n",
				"bytecode": {
					"linkReferences": {},
					"object": "608060405234801562000010575f80fd5b50335f806101000a81548173ffffffffffffffffffffffffffffffffffffffff021916908373ffffffffffffffffffffffffffffffffffffffff1602179055506040518060400160405280600d81526020017f65737361206d656e736167656e000000000000000000000000000000000000008152506001908162000096919062000301565b50620003e5565b5f81519050919050565b7f4e487b71000000000000000000000000000000000000000000000000000000005f52604160045260245ffd5b7f4e487b71000000000000000000000000000000000000000000000000000000005f52602260045260245ffd5b5f60028204905060018216806200011957607f821691505b6020821081036200012f576200012e620000d4565b5b50919050565b5f819050815f5260205f209050919050565b5f6020601f8301049050919050565b5f82821b905092915050565b5f60088302620001937fffffffffffffffffffffffffffffffffffffffffffffffffffffffffffffffff8262000156565b6200019f868362000156565b95508019841693508086168417925050509392505050565b5f819050919050565b5f819050919050565b5f620001e9620001e3620001dd84620001b7565b620001c0565b620001b7565b9050919050565b5f819050919050565b6200020483620001c9565b6200021c6200021382620001f0565b84845462000162565b825550505050565b5f90565b6200023262000224565b6200023f818484620001f9565b505050565b5b8181101562000266576200025a5f8262000228565b60018101905062000245565b5050565b601f821115620002b5576200027f8162000135565b6200028a8462000147565b810160208510156200029a578190505b620002b2620002a98562000147565b83018262000244565b50505b505050565b5f82821c905092915050565b5f620002d75f1984600802620002ba565b1980831691505092915050565b5f620002f18383620002c6565b9150826002028217905092915050565b6200030c826200009d565b67ffffffffffffffff811115620003285762000327620000a7565b5b62000334825462000101565b620003418282856200026a565b5f60209050601f83116001811462000377575f841562000362578287015190505b6200036e8582620002e4565b865550620003dd565b601f198416620003878662000135565b5f5b82811015620003b05784890151825560018201915060208501945060208101905062000389565b86831015620003d05784890151620003cc601f891682620002c6565b8355505b6001600288020188555050505b505050505050565b61096080620003f35f395ff3fe608060405234801561000f575f80fd5b5060043610610054575f3560e01c80622d4da61461005857806316c8d41e1461008857806372c6649b146100a4578063e2f162b7146100c2578063e3978240146100de575b5f80fd5b610072600480360381019061006d919061034d565b6100fc565b60405161007f9190610392565b60405180910390f35b6100a2600480360381019061009d91906103d5565b610119565b005b6100ac610171565b6040516100b9919061049d565b60405180910390f35b6100dc60048036038101906100d791906105e9565b6101fd565b005b6100e66102bf565b6040516100f3919061063f565b60405180910390f35b6002602052805f5260405f205f915054906101000a900460ff1681565b8060025f8473ffffffffffffffffffffffffffffffffffffffff1673ffffffffffffffffffffffffffffffffffffffff1681526020019081526020015f205f6101000a81548160ff0219169083151502179055505050565b6001805461017e90610685565b80601f01602080910402602001604051908101604052809291908181526020018280546101aa90610685565b80156101f55780601f106101cc576101008083540402835291602001916101f5565b820191905f5260205f20905b8154815290600101906020018083116101d857829003601f168201915b505050505081565b3373ffffffffffffffffffffffffffffffffffffffff165f8054906101000a900473ffffffffffffffffffffffffffffffffffffffff1673ffffffffffffffffffffffffffffffffffffffff161415806102a357505f151560025f3373ffffffffffffffffffffffffffffffffffffffff1673ffffffffffffffffffffffffffffffffffffffff1681526020019081526020015f205f9054906101000a900460ff161515145b156102ac575f80fd5b80600190816102bb919061085b565b5050565b5f8054906101000a900473ffffffffffffffffffffffffffffffffffffffff1681565b5f604051905090565b5f80fd5b5f80fd5b5f73ffffffffffffffffffffffffffffffffffffffff82169050919050565b5f61031c826102f3565b9050919050565b61032c81610312565b8114610336575f80fd5b50565b5f8135905061034781610323565b92915050565b5f60208284031215610362576103616102eb565b5b5f61036f84828501610339565b91505092915050565b5f8115159050919050565b61038c81610378565b82525050565b5f6020820190506103a55f830184610383565b92915050565b6103b481610378565b81146103be575f80fd5b50565b5f813590506103cf816103ab565b92915050565b5f80604083850312156103eb576103ea6102eb565b5b5f6103f885828601610339565b9250506020610409858286016103c1565b9150509250929050565b5f81519050919050565b5f82825260208201905092915050565b5f5b8381101561044a57808201518184015260208101905061042f565b5f8484015250505050565b5f601f19601f8301169050919050565b5f61046f82610413565b610479818561041d565b935061048981856020860161042d565b61049281610455565b840191505092915050565b5f6020820190508181035f8301526104b58184610465565b905092915050565b5f80fd5b5f80fd5b7f4e487b71000000000000000000000000000000000000000000000000000000005f52604160045260245ffd5b6104fb82610455565b810181811067ffffffffffffffff8211171561051a576105196104c5565b5b80604052505050565b5f61052c6102e2565b905061053882826104f2565b919050565b5f67ffffffffffffffff821115610557576105566104c5565b5b61056082610455565b9050602081019050919050565b828183375f83830152505050565b5f61058d6105888461053d565b610523565b9050828152602081018484840111156105a9576105a86104c1565b5b6105b484828561056d565b509392505050565b5f82601f8301126105d0576105cf6104bd565b5b81356105e084826020860161057b565b91505092915050565b5f602082840312156105fe576105fd6102eb565b5b5f82013567ffffffffffffffff81111561061b5761061a6102ef565b5b610627848285016105bc565b91505092915050565b61063981610312565b82525050565b5f6020820190506106525f830184610630565b92915050565b7f4e487b71000000000000000000000000000000000000000000000000000000005f52602260045260245ffd5b5f600282049050600182168061069c57607f821691505b6020821081036106af576106ae610658565b5b50919050565b5f819050815f5260205f209050919050565b5f6020601f8301049050919050565b5f82821b905092915050565b5f600883026107117fffffffffffffffffffffffffffffffffffffffffffffffffffffffffffffffff826106d6565b61071b86836106d6565b95508019841693508086168417925050509392505050565b5f819050919050565b5f819050919050565b5f61075f61075a61075584610733565b61073c565b610733565b9050919050565b5f819050919050565b61077883610745565b61078c61078482610766565b8484546106e2565b825550505050565b5f90565b6107a0610794565b6107ab81848461076f565b505050565b5b818110156107ce576107c35f82610798565b6001810190506107b1565b5050565b601f821115610813576107e4816106b5565b6107ed846106c7565b810160208510156107fc578190505b610810610808856106c7565b8301826107b0565b50505b505050565b5f82821c905092915050565b5f6108335f1984600802610818565b1980831691505092915050565b5f61084b8383610824565b9150826002028217905092915050565b61086482610413565b67ffffffffffffffff81111561087d5761087c6104c5565b5b6108878254610685565b6108928282856107d2565b5f60209050601f8311600181146108c3575f84156108b1578287015190505b6108bb8582610840565b865550610922565b601f1984166108d1866106b5565b5f5b828110156108f8578489015182556001820191506020850194506020810190506108d3565b868310156109155784890151610911601f891682610824565b8355505b6001600288020188555050505b50505050505056fea2646970667358221220e954ef142ce35898ffb6b879c310dc84b9dd5478b0cc8ef8d569e54c7fc86e7364736f6c63430008140033",
					"opcodes": "PUSH1 0x80 PUSH1 0x40 MSTORE CALLVALUE DUP1 ISZERO PUSH3 0x10 JUMPI PUSH0 DUP1 REVERT JUMPDEST POP CALLER PUSH0 DUP1 PUSH2 0x100 EXP DUP2 SLOAD DUP2 PUSH20 0xFFFFFFFFFFFFFFFFFFFFFFFFFFFFFFFFFFFFFFFF MUL NOT AND SWAP1 DUP4 PUSH20 0xFFFFFFFFFFFFFFFFFFFFFFFFFFFFFFFFFFFFFFFF AND MUL OR SWAP1 SSTORE POP PUSH1 0x40 MLOAD DUP1 PUSH1 0x40 ADD PUSH1 0x40 MSTORE DUP1 PUSH1 0xD DUP2 MSTORE PUSH1 0x20 ADD PUSH32 0x65737361206D656E736167656E00000000000000000000000000000000000000 DUP2 MSTORE POP PUSH1 0x1 SWAP1 DUP2 PUSH3 0x96 SWAP2 SWAP1 PUSH3 0x301 JUMP JUMPDEST POP PUSH3 0x3E5 JUMP JUMPDEST PUSH0 DUP2 MLOAD SWAP1 POP SWAP2 SWAP1 POP JUMP JUMPDEST PUSH32 0x4E487B7100000000000000000000000000000000000000000000000000000000 PUSH0 MSTORE PUSH1 0x41 PUSH1 0x4 MSTORE PUSH1 0x24 PUSH0 REVERT JUMPDEST PUSH32 0x4E487B7100000000000000000000000000000000000000000000000000000000 PUSH0 MSTORE PUSH1 0x22 PUSH1 0x4 MSTORE PUSH1 0x24 PUSH0 REVERT JUMPDEST PUSH0 PUSH1 0x2 DUP3 DIV SWAP1 POP PUSH1 0x1 DUP3 AND DUP1 PUSH3 0x119 JUMPI PUSH1 0x7F DUP3 AND SWAP2 POP JUMPDEST PUSH1 0x20 DUP3 LT DUP2 SUB PUSH3 0x12F JUMPI PUSH3 0x12E PUSH3 0xD4 JUMP JUMPDEST JUMPDEST POP SWAP2 SWAP1 POP JUMP JUMPDEST PUSH0 DUP2 SWAP1 POP DUP2 PUSH0 MSTORE PUSH1 0x20 PUSH0 KECCAK256 SWAP1 POP SWAP2 SWAP1 POP JUMP JUMPDEST PUSH0 PUSH1 0x20 PUSH1 0x1F DUP4 ADD DIV SWAP1 POP SWAP2 SWAP1 POP JUMP JUMPDEST PUSH0 DUP3 DUP3 SHL SWAP1 POP SWAP3 SWAP2 POP POP JUMP JUMPDEST PUSH0 PUSH1 0x8 DUP4 MUL PUSH3 0x193 PUSH32 0xFFFFFFFFFFFFFFFFFFFFFFFFFFFFFFFFFFFFFFFFFFFFFFFFFFFFFFFFFFFFFFFF DUP3 PUSH3 0x156 JUMP JUMPDEST PUSH3 0x19F DUP7 DUP4 PUSH3 0x156 JUMP JUMPDEST SWAP6 POP DUP1 NOT DUP5 AND SWAP4 POP DUP1 DUP7 AND DUP5 OR SWAP3 POP POP POP SWAP4 SWAP3 POP POP POP JUMP JUMPDEST PUSH0 DUP2 SWAP1 POP SWAP2 SWAP1 POP JUMP JUMPDEST PUSH0 DUP2 SWAP1 POP SWAP2 SWAP1 POP JUMP JUMPDEST PUSH0 PUSH3 0x1E9 PUSH3 0x1E3 PUSH3 0x1DD DUP5 PUSH3 0x1B7 JUMP JUMPDEST PUSH3 0x1C0 JUMP JUMPDEST PUSH3 0x1B7 JUMP JUMPDEST SWAP1 POP SWAP2 SWAP1 POP JUMP JUMPDEST PUSH0 DUP2 SWAP1 POP SWAP2 SWAP1 POP JUMP JUMPDEST PUSH3 0x204 DUP4 PUSH3 0x1C9 JUMP JUMPDEST PUSH3 0x21C PUSH3 0x213 DUP3 PUSH3 0x1F0 JUMP JUMPDEST DUP5 DUP5 SLOAD PUSH3 0x162 JUMP JUMPDEST DUP3 SSTORE POP POP POP POP JUMP JUMPDEST PUSH0 SWAP1 JUMP JUMPDEST PUSH3 0x232 PUSH3 0x224 JUMP JUMPDEST PUSH3 0x23F DUP2 DUP5 DUP5 PUSH3 0x1F9 JUMP JUMPDEST POP POP POP JUMP JUMPDEST JUMPDEST DUP2 DUP2 LT ISZERO PUSH3 0x266 JUMPI PUSH3 0x25A PUSH0 DUP3 PUSH3 0x228 JUMP JUMPDEST PUSH1 0x1 DUP2 ADD SWAP1 POP PUSH3 0x245 JUMP JUMPDEST POP POP JUMP JUMPDEST PUSH1 0x1F DUP3 GT ISZERO PUSH3 0x2B5 JUMPI PUSH3 0x27F DUP2 PUSH3 0x135 JUMP JUMPDEST PUSH3 0x28A DUP5 PUSH3 0x147 JUMP JUMPDEST DUP2 ADD PUSH1 0x20 DUP6 LT ISZERO PUSH3 0x29A JUMPI DUP2 SWAP1 POP JUMPDEST PUSH3 0x2B2 PUSH3 0x2A9 DUP6 PUSH3 0x147 JUMP JUMPDEST DUP4 ADD DUP3 PUSH3 0x244 JUMP JUMPDEST POP POP JUMPDEST POP POP POP JUMP JUMPDEST PUSH0 DUP3 DUP3 SHR SWAP1 POP SWAP3 SWAP2 POP POP JUMP JUMPDEST PUSH0 PUSH3 0x2D7 PUSH0 NOT DUP5 PUSH1 0x8 MUL PUSH3 0x2BA JUMP JUMPDEST NOT DUP1 DUP4 AND SWAP2 POP POP SWAP3 SWAP2 POP POP JUMP JUMPDEST PUSH0 PUSH3 0x2F1 DUP4 DUP4 PUSH3 0x2C6 JUMP JUMPDEST SWAP2 POP DUP3 PUSH1 0x2 MUL DUP3 OR SWAP1 POP SWAP3 SWAP2 POP POP JUMP JUMPDEST PUSH3 0x30C DUP3 PUSH3 0x9D JUMP JUMPDEST PUSH8 0xFFFFFFFFFFFFFFFF DUP2 GT ISZERO PUSH3 0x328 JUMPI PUSH3 0x327 PUSH3 0xA7 JUMP JUMPDEST JUMPDEST PUSH3 0x334 DUP3 SLOAD PUSH3 0x101 JUMP JUMPDEST PUSH3 0x341 DUP3 DUP3 DUP6 PUSH3 0x26A JUMP JUMPDEST PUSH0 PUSH1 0x20 SWAP1 POP PUSH1 0x1F DUP4 GT PUSH1 0x1 DUP2 EQ PUSH3 0x377 JUMPI PUSH0 DUP5 ISZERO PUSH3 0x362 JUMPI DUP3 DUP8 ADD MLOAD SWAP1 POP JUMPDEST PUSH3 0x36E DUP6 DUP3 PUSH3 0x2E4 JUMP JUMPDEST DUP7 SSTORE POP PUSH3 0x3DD JUMP JUMPDEST PUSH1 0x1F NOT DUP5 AND PUSH3 0x387 DUP7 PUSH3 0x135 JUMP JUMPDEST PUSH0 JUMPDEST DUP3 DUP2 LT ISZERO PUSH3 0x3B0 JUMPI DUP5 DUP10 ADD MLOAD DUP3 SSTORE PUSH1 0x1 DUP3 ADD SWAP2 POP PUSH1 0x20 DUP6 ADD SWAP5 POP PUSH1 0x20 DUP2 ADD SWAP1 POP PUSH3 0x389 JUMP JUMPDEST DUP7 DUP4 LT ISZERO PUSH3 0x3D0 JUMPI DUP5 DUP10 ADD MLOAD PUSH3 0x3CC PUSH1 0x1F DUP10 AND DUP3 PUSH3 0x2C6 JUMP JUMPDEST DUP4 SSTORE POP JUMPDEST PUSH1 0x1 PUSH1 0x2 DUP9 MUL ADD DUP9 SSTORE POP POP POP JUMPDEST POP POP POP POP POP POP JUMP JUMPDEST PUSH2 0x960 DUP1 PUSH3 0x3F3 PUSH0 CODECOPY PUSH0 RETURN INVALID PUSH1 0x80 PUSH1 0x40 MSTORE CALLVALUE DUP1 ISZERO PUSH2 0xF JUMPI PUSH0 DUP1 REVERT JUMPDEST POP PUSH1 0x4 CALLDATASIZE LT PUSH2 0x54 JUMPI PUSH0 CALLDATALOAD PUSH1 0xE0 SHR DUP1 PUSH3 0x2D4DA6 EQ PUSH2 0x58 JUMPI DUP1 PUSH4 0x16C8D41E EQ PUSH2 0x88 JUMPI DUP1 PUSH4 0x72C6649B EQ PUSH2 0xA4 JUMPI DUP1 PUSH4 0xE2F162B7 EQ PUSH2 0xC2 JUMPI DUP1 PUSH4 0xE3978240 EQ PUSH2 0xDE JUMPI JUMPDEST PUSH0 DUP1 REVERT JUMPDEST PUSH2 0x72 PUSH1 0x4 DUP1 CALLDATASIZE SUB DUP2 ADD SWAP1 PUSH2 0x6D SWAP2 SWAP1 PUSH2 0x34D JUMP JUMPDEST PUSH2 0xFC JUMP JUMPDEST PUSH1 0x40 MLOAD PUSH2 0x7F SWAP2 SWAP1 PUSH2 0x392 JUMP JUMPDEST PUSH1 0x40 MLOAD DUP1 SWAP2 SUB SWAP1 RETURN JUMPDEST PUSH2 0xA2 PUSH1 0x4 DUP1 CALLDATASIZE SUB DUP2 ADD SWAP1 PUSH2 0x9D SWAP2 SWAP1 PUSH2 0x3D5 JUMP JUMPDEST PUSH2 0x119 JUMP JUMPDEST STOP JUMPDEST PUSH2 0xAC PUSH2 0x171 JUMP JUMPDEST PUSH1 0x40 MLOAD PUSH2 0xB9 SWAP2 SWAP1 PUSH2 0x49D JUMP JUMPDEST PUSH1 0x40 MLOAD DUP1 SWAP2 SUB SWAP1 RETURN JUMPDEST PUSH2 0xDC PUSH1 0x4 DUP1 CALLDATASIZE SUB DUP2 ADD SWAP1 PUSH2 0xD7 SWAP2 SWAP1 PUSH2 0x5E9 JUMP JUMPDEST PUSH2 0x1FD JUMP JUMPDEST STOP JUMPDEST PUSH2 0xE6 PUSH2 0x2BF JUMP JUMPDEST PUSH1 0x40 MLOAD PUSH2 0xF3 SWAP2 SWAP1 PUSH2 0x63F JUMP JUMPDEST PUSH1 0x40 MLOAD DUP1 SWAP2 SUB SWAP1 RETURN JUMPDEST PUSH1 0x2 PUSH1 0x20 MSTORE DUP1 PUSH0 MSTORE PUSH1 0x40 PUSH0 KECCAK256 PUSH0 SWAP2 POP SLOAD SWAP1 PUSH2 0x100 EXP SWAP1 DIV PUSH1 0xFF AND DUP2 JUMP JUMPDEST DUP1 PUSH1 0x2 PUSH0 DUP5 PUSH20 0xFFFFFFFFFFFFFFFFFFFFFFFFFFFFFFFFFFFFFFFF AND PUSH20 0xFFFFFFFFFFFFFFFFFFFFFFFFFFFFFFFFFFFFFFFF AND DUP2 MSTORE PUSH1 0x20 ADD SWAP1 DUP2 MSTORE PUSH1 0x20 ADD PUSH0 KECCAK256 PUSH0 PUSH2 0x100 EXP DUP2 SLOAD DUP2 PUSH1 0xFF MUL NOT AND SWAP1 DUP4 ISZERO ISZERO MUL OR SWAP1 SSTORE POP POP POP JUMP JUMPDEST PUSH1 0x1 DUP1 SLOAD PUSH2 0x17E SWAP1 PUSH2 0x685 JUMP JUMPDEST DUP1 PUSH1 0x1F ADD PUSH1 0x20 DUP1 SWAP2 DIV MUL PUSH1 0x20 ADD PUSH1 0x40 MLOAD SWAP1 DUP2 ADD PUSH1 0x40 MSTORE DUP1 SWAP3 SWAP2 SWAP1 DUP2 DUP2 MSTORE PUSH1 0x20 ADD DUP3 DUP1 SLOAD PUSH2 0x1AA SWAP1 PUSH2 0x685 JUMP JUMPDEST DUP1 ISZERO PUSH2 0x1F5 JUMPI DUP1 PUSH1 0x1F LT PUSH2 0x1CC JUMPI PUSH2 0x100 DUP1 DUP4 SLOAD DIV MUL DUP4 MSTORE SWAP2 PUSH1 0x20 ADD SWAP2 PUSH2 0x1F5 JUMP JUMPDEST DUP3 ADD SWAP2 SWAP1 PUSH0 MSTORE PUSH1 0x20 PUSH0 KECCAK256 SWAP1 JUMPDEST DUP2 SLOAD DUP2 MSTORE SWAP1 PUSH1 0x1 ADD SWAP1 PUSH1 0x20 ADD DUP1 DUP4 GT PUSH2 0x1D8 JUMPI DUP3 SWAP1 SUB PUSH1 0x1F AND DUP3 ADD SWAP2 JUMPDEST POP POP POP POP POP DUP2 JUMP JUMPDEST CALLER PUSH20 0xFFFFFFFFFFFFFFFFFFFFFFFFFFFFFFFFFFFFFFFF AND PUSH0 DUP1 SLOAD SWAP1 PUSH2 0x100 EXP SWAP1 DIV PUSH20 0xFFFFFFFFFFFFFFFFFFFFFFFFFFFFFFFFFFFFFFFF AND PUSH20 0xFFFFFFFFFFFFFFFFFFFFFFFFFFFFFFFFFFFFFFFF AND EQ ISZERO DUP1 PUSH2 0x2A3 JUMPI POP PUSH0 ISZERO ISZERO PUSH1 0x2 PUSH0 CALLER PUSH20 0xFFFFFFFFFFFFFFFFFFFFFFFFFFFFFFFFFFFFFFFF AND PUSH20 0xFFFFFFFFFFFFFFFFFFFFFFFFFFFFFFFFFFFFFFFF AND DUP2 MSTORE PUSH1 0x20 ADD SWAP1 DUP2 MSTORE PUSH1 0x20 ADD PUSH0 KECCAK256 PUSH0 SWAP1 SLOAD SWAP1 PUSH2 0x100 EXP SWAP1 DIV PUSH1 0xFF AND ISZERO ISZERO EQ JUMPDEST ISZERO PUSH2 0x2AC JUMPI PUSH0 DUP1 REVERT JUMPDEST DUP1 PUSH1 0x1 SWAP1 DUP2 PUSH2 0x2BB SWAP2 SWAP1 PUSH2 0x85B JUMP JUMPDEST POP POP JUMP JUMPDEST PUSH0 DUP1 SLOAD SWAP1 PUSH2 0x100 EXP SWAP1 DIV PUSH20 0xFFFFFFFFFFFFFFFFFFFFFFFFFFFFFFFFFFFFFFFF AND DUP2 JUMP JUMPDEST PUSH0 PUSH1 0x40 MLOAD SWAP1 POP SWAP1 JUMP JUMPDEST PUSH0 DUP1 REVERT JUMPDEST PUSH0 DUP1 REVERT JUMPDEST PUSH0 PUSH20 0xFFFFFFFFFFFFFFFFFFFFFFFFFFFFFFFFFFFFFFFF DUP3 AND SWAP1 POP SWAP2 SWAP1 POP JUMP JUMPDEST PUSH0 PUSH2 0x31C DUP3 PUSH2 0x2F3 JUMP JUMPDEST SWAP1 POP SWAP2 SWAP1 POP JUMP JUMPDEST PUSH2 0x32C DUP2 PUSH2 0x312 JUMP JUMPDEST DUP2 EQ PUSH2 0x336 JUMPI PUSH0 DUP1 REVERT JUMPDEST POP JUMP JUMPDEST PUSH0 DUP2 CALLDATALOAD SWAP1 POP PUSH2 0x347 DUP2 PUSH2 0x323 JUMP JUMPDEST SWAP3 SWAP2 POP POP JUMP JUMPDEST PUSH0 PUSH1 0x20 DUP3 DUP5 SUB SLT ISZERO PUSH2 0x362 JUMPI PUSH2 0x361 PUSH2 0x2EB JUMP JUMPDEST JUMPDEST PUSH0 PUSH2 0x36F DUP5 DUP3 DUP6 ADD PUSH2 0x339 JUMP JUMPDEST SWAP2 POP POP SWAP3 SWAP2 POP POP JUMP JUMPDEST PUSH0 DUP2 ISZERO ISZERO SWAP1 POP SWAP2 SWAP1 POP JUMP JUMPDEST PUSH2 0x38C DUP2 PUSH2 0x378 JUMP JUMPDEST DUP3 MSTORE POP POP JUMP JUMPDEST PUSH0 PUSH1 0x20 DUP3 ADD SWAP1 POP PUSH2 0x3A5 PUSH0 DUP4 ADD DUP5 PUSH2 0x383 JUMP JUMPDEST SWAP3 SWAP2 POP POP JUMP JUMPDEST PUSH2 0x3B4 DUP2 PUSH2 0x378 JUMP JUMPDEST DUP2 EQ PUSH2 0x3BE JUMPI PUSH0 DUP1 REVERT JUMPDEST POP JUMP JUMPDEST PUSH0 DUP2 CALLDATALOAD SWAP1 POP PUSH2 0x3CF DUP2 PUSH2 0x3AB JUMP JUMPDEST SWAP3 SWAP2 POP POP JUMP JUMPDEST PUSH0 DUP1 PUSH1 0x40 DUP4 DUP6 SUB SLT ISZERO PUSH2 0x3EB JUMPI PUSH2 0x3EA PUSH2 0x2EB JUMP JUMPDEST JUMPDEST PUSH0 PUSH2 0x3F8 DUP6 DUP3 DUP7 ADD PUSH2 0x339 JUMP JUMPDEST SWAP3 POP POP PUSH1 0x20 PUSH2 0x409 DUP6 DUP3 DUP7 ADD PUSH2 0x3C1 JUMP JUMPDEST SWAP2 POP POP SWAP3 POP SWAP3 SWAP1 POP JUMP JUMPDEST PUSH0 DUP2 MLOAD SWAP1 POP SWAP2 SWAP1 POP JUMP JUMPDEST PUSH0 DUP3 DUP3 MSTORE PUSH1 0x20 DUP3 ADD SWAP1 POP SWAP3 SWAP2 POP POP JUMP JUMPDEST PUSH0 JUMPDEST DUP4 DUP2 LT ISZERO PUSH2 0x44A JUMPI DUP1 DUP3 ADD MLOAD DUP2 DUP5 ADD MSTORE PUSH1 0x20 DUP2 ADD SWAP1 POP PUSH2 0x42F JUMP JUMPDEST PUSH0 DUP5 DUP5 ADD MSTORE POP POP POP POP JUMP JUMPDEST PUSH0 PUSH1 0x1F NOT PUSH1 0x1F DUP4 ADD AND SWAP1 POP SWAP2 SWAP1 POP JUMP JUMPDEST PUSH0 PUSH2 0x46F DUP3 PUSH2 0x413 JUMP JUMPDEST PUSH2 0x479 DUP2 DUP6 PUSH2 0x41D JUMP JUMPDEST SWAP4 POP PUSH2 0x489 DUP2 DUP6 PUSH1 0x20 DUP7 ADD PUSH2 0x42D JUMP JUMPDEST PUSH2 0x492 DUP2 PUSH2 0x455 JUMP JUMPDEST DUP5 ADD SWAP2 POP POP SWAP3 SWAP2 POP POP JUMP JUMPDEST PUSH0 PUSH1 0x20 DUP3 ADD SWAP1 POP DUP2 DUP2 SUB PUSH0 DUP4 ADD MSTORE PUSH2 0x4B5 DUP2 DUP5 PUSH2 0x465 JUMP JUMPDEST SWAP1 POP SWAP3 SWAP2 POP POP JUMP JUMPDEST PUSH0 DUP1 REVERT JUMPDEST PUSH0 DUP1 REVERT JUMPDEST PUSH32 0x4E487B7100000000000000000000000000000000000000000000000000000000 PUSH0 MSTORE PUSH1 0x41 PUSH1 0x4 MSTORE PUSH1 0x24 PUSH0 REVERT JUMPDEST PUSH2 0x4FB DUP3 PUSH2 0x455 JUMP JUMPDEST DUP2 ADD DUP2 DUP2 LT PUSH8 0xFFFFFFFFFFFFFFFF DUP3 GT OR ISZERO PUSH2 0x51A JUMPI PUSH2 0x519 PUSH2 0x4C5 JUMP JUMPDEST JUMPDEST DUP1 PUSH1 0x40 MSTORE POP POP POP JUMP JUMPDEST PUSH0 PUSH2 0x52C PUSH2 0x2E2 JUMP JUMPDEST SWAP1 POP PUSH2 0x538 DUP3 DUP3 PUSH2 0x4F2 JUMP JUMPDEST SWAP2 SWAP1 POP JUMP JUMPDEST PUSH0 PUSH8 0xFFFFFFFFFFFFFFFF DUP3 GT ISZERO PUSH2 0x557 JUMPI PUSH2 0x556 PUSH2 0x4C5 JUMP JUMPDEST JUMPDEST PUSH2 0x560 DUP3 PUSH2 0x455 JUMP JUMPDEST SWAP1 POP PUSH1 0x20 DUP2 ADD SWAP1 POP SWAP2 SWAP1 POP JUMP JUMPDEST DUP3 DUP2 DUP4 CALLDATACOPY PUSH0 DUP4 DUP4 ADD MSTORE POP POP POP JUMP JUMPDEST PUSH0 PUSH2 0x58D PUSH2 0x588 DUP5 PUSH2 0x53D JUMP JUMPDEST PUSH2 0x523 JUMP JUMPDEST SWAP1 POP DUP3 DUP2 MSTORE PUSH1 0x20 DUP2 ADD DUP5 DUP5 DUP5 ADD GT ISZERO PUSH2 0x5A9 JUMPI PUSH2 0x5A8 PUSH2 0x4C1 JUMP JUMPDEST JUMPDEST PUSH2 0x5B4 DUP5 DUP3 DUP6 PUSH2 0x56D JUMP JUMPDEST POP SWAP4 SWAP3 POP POP POP JUMP JUMPDEST PUSH0 DUP3 PUSH1 0x1F DUP4 ADD SLT PUSH2 0x5D0 JUMPI PUSH2 0x5CF PUSH2 0x4BD JUMP JUMPDEST JUMPDEST DUP2 CALLDATALOAD PUSH2 0x5E0 DUP5 DUP3 PUSH1 0x20 DUP7 ADD PUSH2 0x57B JUMP JUMPDEST SWAP2 POP POP SWAP3 SWAP2 POP POP JUMP JUMPDEST PUSH0 PUSH1 0x20 DUP3 DUP5 SUB SLT ISZERO PUSH2 0x5FE JUMPI PUSH2 0x5FD PUSH2 0x2EB JUMP JUMPDEST JUMPDEST PUSH0 DUP3 ADD CALLDATALOAD PUSH8 0xFFFFFFFFFFFFFFFF DUP2 GT ISZERO PUSH2 0x61B JUMPI PUSH2 0x61A PUSH2 0x2EF JUMP JUMPDEST JUMPDEST PUSH2 0x627 DUP5 DUP3 DUP6 ADD PUSH2 0x5BC JUMP JUMPDEST SWAP2 POP POP SWAP3 SWAP2 POP POP JUMP JUMPDEST PUSH2 0x639 DUP2 PUSH2 0x312 JUMP JUMPDEST DUP3 MSTORE POP POP JUMP JUMPDEST PUSH0 PUSH1 0x20 DUP3 ADD SWAP1 POP PUSH2 0x652 PUSH0 DUP4 ADD DUP5 PUSH2 0x630 JUMP JUMPDEST SWAP3 SWAP2 POP POP JUMP JUMPDEST PUSH32 0x4E487B7100000000000000000000000000000000000000000000000000000000 PUSH0 MSTORE PUSH1 0x22 PUSH1 0x4 MSTORE PUSH1 0x24 PUSH0 REVERT JUMPDEST PUSH0 PUSH1 0x2 DUP3 DIV SWAP1 POP PUSH1 0x1 DUP3 AND DUP1 PUSH2 0x69C JUMPI PUSH1 0x7F DUP3 AND SWAP2 POP JUMPDEST PUSH1 0x20 DUP3 LT DUP2 SUB PUSH2 0x6AF JUMPI PUSH2 0x6AE PUSH2 0x658 JUMP JUMPDEST JUMPDEST POP SWAP2 SWAP1 POP JUMP JUMPDEST PUSH0 DUP2 SWAP1 POP DUP2 PUSH0 MSTORE PUSH1 0x20 PUSH0 KECCAK256 SWAP1 POP SWAP2 SWAP1 POP JUMP JUMPDEST PUSH0 PUSH1 0x20 PUSH1 0x1F DUP4 ADD DIV SWAP1 POP SWAP2 SWAP1 POP JUMP JUMPDEST PUSH0 DUP3 DUP3 SHL SWAP1 POP SWAP3 SWAP2 POP POP JUMP JUMPDEST PUSH0 PUSH1 0x8 DUP4 MUL PUSH2 0x711 PUSH32 0xFFFFFFFFFFFFFFFFFFFFFFFFFFFFFFFFFFFFFFFFFFFFFFFFFFFFFFFFFFFFFFFF DUP3 PUSH2 0x6D6 JUMP JUMPDEST PUSH2 0x71B DUP7 DUP4 PUSH2 0x6D6 JUMP JUMPDEST SWAP6 POP DUP1 NOT DUP5 AND SWAP4 POP DUP1 DUP7 AND DUP5 OR SWAP3 POP POP POP SWAP4 SWAP3 POP POP POP JUMP JUMPDEST PUSH0 DUP2 SWAP1 POP SWAP2 SWAP1 POP JUMP JUMPDEST PUSH0 DUP2 SWAP1 POP SWAP2 SWAP1 POP JUMP JUMPDEST PUSH0 PUSH2 0x75F PUSH2 0x75A PUSH2 0x755 DUP5 PUSH2 0x733 JUMP JUMPDEST PUSH2 0x73C JUMP JUMPDEST PUSH2 0x733 JUMP JUMPDEST SWAP1 POP SWAP2 SWAP1 POP JUMP JUMPDEST PUSH0 DUP2 SWAP1 POP SWAP2 SWAP1 POP JUMP JUMPDEST PUSH2 0x778 DUP4 PUSH2 0x745 JUMP JUMPDEST PUSH2 0x78C PUSH2 0x784 DUP3 PUSH2 0x766 JUMP JUMPDEST DUP5 DUP5 SLOAD PUSH2 0x6E2 JUMP JUMPDEST DUP3 SSTORE POP POP POP POP JUMP JUMPDEST PUSH0 SWAP1 JUMP JUMPDEST PUSH2 0x7A0 PUSH2 0x794 JUMP JUMPDEST PUSH2 0x7AB DUP2 DUP5 DUP5 PUSH2 0x76F JUMP JUMPDEST POP POP POP JUMP JUMPDEST JUMPDEST DUP2 DUP2 LT ISZERO PUSH2 0x7CE JUMPI PUSH2 0x7C3 PUSH0 DUP3 PUSH2 0x798 JUMP JUMPDEST PUSH1 0x1 DUP2 ADD SWAP1 POP PUSH2 0x7B1 JUMP JUMPDEST POP POP JUMP JUMPDEST PUSH1 0x1F DUP3 GT ISZERO PUSH2 0x813 JUMPI PUSH2 0x7E4 DUP2 PUSH2 0x6B5 JUMP JUMPDEST PUSH2 0x7ED DUP5 PUSH2 0x6C7 JUMP JUMPDEST DUP2 ADD PUSH1 0x20 DUP6 LT ISZERO PUSH2 0x7FC JUMPI DUP2 SWAP1 POP JUMPDEST PUSH2 0x810 PUSH2 0x808 DUP6 PUSH2 0x6C7 JUMP JUMPDEST DUP4 ADD DUP3 PUSH2 0x7B0 JUMP JUMPDEST POP POP JUMPDEST POP POP POP JUMP JUMPDEST PUSH0 DUP3 DUP3 SHR SWAP1 POP SWAP3 SWAP2 POP POP JUMP JUMPDEST PUSH0 PUSH2 0x833 PUSH0 NOT DUP5 PUSH1 0x8 MUL PUSH2 0x818 JUMP JUMPDEST NOT DUP1 DUP4 AND SWAP2 POP POP SWAP3 SWAP2 POP POP JUMP JUMPDEST PUSH0 PUSH2 0x84B DUP4 DUP4 PUSH2 0x824 JUMP JUMPDEST SWAP2 POP DUP3 PUSH1 0x2 MUL DUP3 OR SWAP1 POP SWAP3 SWAP2 POP POP JUMP JUMPDEST PUSH2 0x864 DUP3 PUSH2 0x413 JUMP JUMPDEST PUSH8 0xFFFFFFFFFFFFFFFF DUP2 GT ISZERO PUSH2 0x87D JUMPI PUSH2 0x87C PUSH2 0x4C5 JUMP JUMPDEST JUMPDEST PUSH2 0x887 DUP3 SLOAD PUSH2 0x685 JUMP JUMPDEST PUSH2 0x892 DUP3 DUP3 DUP6 PUSH2 0x7D2 JUMP JUMPDEST PUSH0 PUSH1 0x20 SWAP1 POP PUSH1 0x1F DUP4 GT PUSH1 0x1 DUP2 EQ PUSH2 0x8C3 JUMPI PUSH0 DUP5 ISZERO PUSH2 0x8B1 JUMPI DUP3 DUP8 ADD MLOAD SWAP1 POP JUMPDEST PUSH2 0x8BB DUP6 DUP3 PUSH2 0x840 JUMP JUMPDEST DUP7 SSTORE POP PUSH2 0x922 JUMP JUMPDEST PUSH1 0x1F NOT DUP5 AND PUSH2 0x8D1 DUP7 PUSH2 0x6B5 JUMP JUMPDEST PUSH0 JUMPDEST DUP3 DUP2 LT ISZERO PUSH2 0x8F8 JUMPI DUP5 DUP10 ADD MLOAD DUP3 SSTORE PUSH1 0x1 DUP3 ADD SWAP2 POP PUSH1 0x20 DUP6 ADD SWAP5 POP PUSH1 0x20 DUP2 ADD SWAP1 POP PUSH2 0x8D3 JUMP JUMPDEST DUP7 DUP4 LT ISZERO PUSH2 0x915 JUMPI DUP5 DUP10 ADD MLOAD PUSH2 0x911 PUSH1 0x1F DUP10 AND DUP3 PUSH2 0x824 JUMP JUMPDEST DUP4 SSTORE POP JUMPDEST PUSH1 0x1 PUSH1 0x2 DUP9 MUL ADD DUP9 SSTORE POP POP POP JUMPDEST POP POP POP POP POP POP JUMP INVALID LOG2 PUSH5 0x6970667358 0x22 SLT KECCAK256 0xE9 SLOAD 0xEF EQ 0x2C 0xE3 PC SWAP9 SELFDESTRUCT 0xB6 0xB8 PUSH26 0xC310DC84B9DD5478B0CC8EF8D569E54C7FC86E7364736F6C6343 STOP ADDMOD EQ STOP CALLER "
				},
				"gasEstimates": {
					"creation": {
						"codeDepositCost": "480000",
						"executionCost": "infinite",
						"totalCost": "infinite"
					},
					"external": {
						"addValueWhitelist(address,bool)": "24980",
						"s_owner()": "2571",
						"s_storedInfo()": "infinite",
						"s_whitelist(address)": "2811",
						"setStoredInfo(string)": "infinite"
					}
				},
				"methodIdentifiers": {
					"addValueWhitelist(address,bool)": "16c8d41e",
					"s_owner()": "e3978240",
					"s_storedInfo()": "72c6649b",
					"s_whitelist(address)": "002d4da6",
					"setStoredInfo(string)": "e2f162b7"
				}
			},
			"storageLayout": {
				"storage": [
					{
						"astId": 9,
						"contract": "ExercicioMapping.sol:ExercicioMapping",
						"label": "s_owner",
						"offset": 0,
						"slot": "0",
						"type": "t_address"
					},
					{
						"astId": 11,
						"contract": "ExercicioMapping.sol:ExercicioMapping",
						"label": "s_storedInfo",
						"offset": 0,
						"slot": "1",
						"type": "t_string_storage"
					},
					{
						"astId": 15,
						"contract": "ExercicioMapping.sol:ExercicioMapping",
						"label": "s_whitelist",
						"offset": 0,
						"slot": "2",
						"type": "t_mapping(t_address,t_bool)"
					}
				],
				"types": {
					"t_address": {
						"encoding": "inplace",
						"label": "address",
						"numberOfBytes": "20"
					},
					"t_bool": {
						"encoding": "inplace",
						"label": "bool",
						"numberOfBytes": "1"
					},
					"t_mapping(t_address,t_bool)": {
						"encoding": "mapping",
						"key": "t_address",
						"label": "mapping(address => bool)",
						"numberOfBytes": "32",
						"value": "t_bool"
					},
					"t_string_storage": {
						"encoding": "bytes",
						"label": "string",
						"numberOfBytes": "32"
					}
				}
			},
			"userdoc": {
				"kind": "user",
				"methods": {},
				"version": 1
			}
		}
	}
}