{
	"ExercicioEvento.sol": {
		"ExercicioEvento": {
			"abi": [
				{
					"inputs": [],
					"stateMutability": "nonpayable",
					"type": "constructor"
				},
				{
					"anonymous": false,
					"inputs": [
						{
							"indexed": false,
							"internalType": "string",
							"name": "newInfo",
							"type": "string"
						}
					],
					"name": "ExercicoEvento_setInfoChanged",
					"type": "event"
				},
				{
					"inputs": [
						{
							"internalType": "string",
							"name": "newValue",
							"type": "string"
						}
					],
					"name": "setInfo",
					"outputs": [],
					"stateMutability": "nonpayable",
					"type": "function"
				}
			],
			"devdoc": {
				"kind": "dev",
				"methods": {},
				"version": 1
			},
			"evm": {
				"assembly": "    /* \"ExercicioEvento.sol\":124:683  contract ExercicioEvento {... */\n  mstore(0x40, 0x80)\n    /* \"ExercicioEvento.sol\":296:389  constructor (){... */\n  callvalue\n  dup1\n  iszero\n  tag_1\n  jumpi\n  0x00\n  dup1\n  revert\ntag_1:\n  pop\n    /* \"ExercicioEvento.sol\":330:340  msg.sender */\n  caller\n    /* \"ExercicioEvento.sol\":321:327  _owner */\n  0x01\n  0x00\n    /* \"ExercicioEvento.sol\":321:340  _owner = msg.sender */\n  0x0100\n  exp\n  dup2\n  sload\n  dup2\n  0xffffffffffffffffffffffffffffffffffffffff\n  mul\n  not\n  and\n  swap1\n  dup4\n  0xffffffffffffffffffffffffffffffffffffffff\n  and\n  mul\n  or\n  swap1\n  sstore\n  pop\n    /* \"ExercicioEvento.sol\":351:381  s_storedInfo = \"essa mensagem\" */\n  mload(0x40)\n  dup1\n  0x40\n  add\n  0x40\n  mstore\n  dup1\n  0x0d\n  dup2\n  mstore\n  0x20\n  add\n  0x65737361206d656e736167656d00000000000000000000000000000000000000\n  dup2\n  mstore\n  pop\n    /* \"ExercicioEvento.sol\":351:363  s_storedInfo */\n  0x00\n    /* \"ExercicioEvento.sol\":351:381  s_storedInfo = \"essa mensagem\" */\n  swap1\n  dup2\n  tag_4\n  swap2\n  swap1\n  tag_5\n  jump\t// in\ntag_4:\n  pop\n    /* \"ExercicioEvento.sol\":124:683  contract ExercicioEvento {... */\n  jump(tag_6)\n    /* \"#utility.yul\":7:106   */\ntag_7:\n    /* \"#utility.yul\":59:65   */\n  0x00\n    /* \"#utility.yul\":93:98   */\n  dup2\n    /* \"#utility.yul\":87:99   */\n  mload\n    /* \"#utility.yul\":77:99   */\n  swap1\n  pop\n    /* \"#utility.yul\":7:106   */\n  swap2\n  swap1\n  pop\n  jump\t// out\n    /* \"#utility.yul\":112:292   */\ntag_8:\n    /* \"#utility.yul\":160:237   */\n  0x4e487b7100000000000000000000000000000000000000000000000000000000\n    /* \"#utility.yul\":157:158   */\n  0x00\n    /* \"#utility.yul\":150:238   */\n  mstore\n    /* \"#utility.yul\":257:261   */\n  0x41\n    /* \"#utility.yul\":254:255   */\n  0x04\n    /* \"#utility.yul\":247:262   */\n  mstore\n    /* \"#utility.yul\":281:285   */\n  0x24\n    /* \"#utility.yul\":278:279   */\n  0x00\n    /* \"#utility.yul\":271:286   */\n  revert\n    /* \"#utility.yul\":298:478   */\ntag_9:\n    /* \"#utility.yul\":346:423   */\n  0x4e487b7100000000000000000000000000000000000000000000000000000000\n    /* \"#utility.yul\":343:344   */\n  0x00\n    /* \"#utility.yul\":336:424   */\n  mstore\n    /* \"#utility.yul\":443:447   */\n  0x22\n    /* \"#utility.yul\":440:441   */\n  0x04\n    /* \"#utility.yul\":433:448   */\n  mstore\n    /* \"#utility.yul\":467:471   */\n  0x24\n    /* \"#utility.yul\":464:465   */\n  0x00\n    /* \"#utility.yul\":457:472   */\n  revert\n    /* \"#utility.yul\":484:804   */\ntag_10:\n    /* \"#utility.yul\":528:534   */\n  0x00\n    /* \"#utility.yul\":565:566   */\n  0x02\n    /* \"#utility.yul\":559:563   */\n  dup3\n    /* \"#utility.yul\":555:567   */\n  div\n    /* \"#utility.yul\":545:567   */\n  swap1\n  pop\n    /* \"#utility.yul\":612:613   */\n  0x01\n    /* \"#utility.yul\":606:610   */\n  dup3\n    /* \"#utility.yul\":602:614   */\n  and\n    /* \"#utility.yul\":633:651   */\n  dup1\n    /* \"#utility.yul\":623:704   */\n  tag_32\n  jumpi\n    /* \"#utility.yul\":689:693   */\n  0x7f\n    /* \"#utility.yul\":681:687   */\n  dup3\n    /* \"#utility.yul\":677:694   */\n  and\n    /* \"#utility.yul\":667:694   */\n  swap2\n  pop\n    /* \"#utility.yul\":623:704   */\ntag_32:\n    /* \"#utility.yul\":751:753   */\n  0x20\n    /* \"#utility.yul\":743:749   */\n  dup3\n    /* \"#utility.yul\":740:754   */\n  lt\n    /* \"#utility.yul\":720:738   */\n  dup2\n    /* \"#utility.yul\":717:755   */\n  sub\n    /* \"#utility.yul\":714:798   */\n  tag_33\n  jumpi\n    /* \"#utility.yul\":770:788   */\n  tag_34\n  tag_9\n  jump\t// in\ntag_34:\n    /* \"#utility.yul\":714:798   */\ntag_33:\n    /* \"#utility.yul\":535:804   */\n  pop\n    /* \"#utility.yul\":484:804   */\n  swap2\n  swap1\n  pop\n  jump\t// out\n    /* \"#utility.yul\":810:951   */\ntag_11:\n    /* \"#utility.yul\":859:863   */\n  0x00\n    /* \"#utility.yul\":882:885   */\n  dup2\n    /* \"#utility.yul\":874:885   */\n  swap1\n  pop\n    /* \"#utility.yul\":905:908   */\n  dup2\n    /* \"#utility.yul\":902:903   */\n  0x00\n    /* \"#utility.yul\":895:909   */\n  mstore\n    /* \"#utility.yul\":939:943   */\n  0x20\n    /* \"#utility.yul\":936:937   */\n  0x00\n    /* \"#utility.yul\":926:944   */\n  keccak256\n    /* \"#utility.yul\":918:944   */\n  swap1\n  pop\n    /* \"#utility.yul\":810:951   */\n  swap2\n  swap1\n  pop\n  jump\t// out\n    /* \"#utility.yul\":957:1050   */\ntag_12:\n    /* \"#utility.yul\":994:1000   */\n  0x00\n    /* \"#utility.yul\":1041:1043   */\n  0x20\n    /* \"#utility.yul\":1036:1038   */\n  0x1f\n    /* \"#utility.yul\":1029:1034   */\n  dup4\n    /* \"#utility.yul\":1025:1039   */\n  add\n    /* \"#utility.yul\":1021:1044   */\n  div\n    /* \"#utility.yul\":1011:1044   */\n  swap1\n  pop\n    /* \"#utility.yul\":957:1050   */\n  swap2\n  swap1\n  pop\n  jump\t// out\n    /* \"#utility.yul\":1056:1163   */\ntag_13:\n    /* \"#utility.yul\":1100:1108   */\n  0x00\n    /* \"#utility.yul\":1150:1155   */\n  dup3\n    /* \"#utility.yul\":1144:1148   */\n  dup3\n    /* \"#utility.yul\":1140:1156   */\n  shl\n    /* \"#utility.yul\":1119:1156   */\n  swap1\n  pop\n    /* \"#utility.yul\":1056:1163   */\n  swap3\n  swap2\n  pop\n  pop\n  jump\t// out\n    /* \"#utility.yul\":1169:1562   */\ntag_14:\n    /* \"#utility.yul\":1238:1244   */\n  0x00\n    /* \"#utility.yul\":1288:1289   */\n  0x08\n    /* \"#utility.yul\":1276:1286   */\n  dup4\n    /* \"#utility.yul\":1272:1290   */\n  mul\n    /* \"#utility.yul\":1311:1408   */\n  tag_39\n    /* \"#utility.yul\":1341:1407   */\n  0xffffffffffffffffffffffffffffffffffffffffffffffffffffffffffffffff\n    /* \"#utility.yul\":1330:1339   */\n  dup3\n    /* \"#utility.yul\":1311:1408   */\n  tag_13\n  jump\t// in\ntag_39:\n    /* \"#utility.yul\":1429:1468   */\n  tag_40\n    /* \"#utility.yul\":1459:1467   */\n  dup7\n    /* \"#utility.yul\":1448:1457   */\n  dup4\n    /* \"#utility.yul\":1429:1468   */\n  tag_13\n  jump\t// in\ntag_40:\n    /* \"#utility.yul\":1417:1468   */\n  swap6\n  pop\n    /* \"#utility.yul\":1501:1505   */\n  dup1\n    /* \"#utility.yul\":1497:1506   */\n  not\n    /* \"#utility.yul\":1490:1495   */\n  dup5\n    /* \"#utility.yul\":1486:1507   */\n  and\n    /* \"#utility.yul\":1477:1507   */\n  swap4\n  pop\n    /* \"#utility.yul\":1550:1554   */\n  dup1\n    /* \"#utility.yul\":1540:1548   */\n  dup7\n    /* \"#utility.yul\":1536:1555   */\n  and\n    /* \"#utility.yul\":1529:1534   */\n  dup5\n    /* \"#utility.yul\":1526:1556   */\n  or\n    /* \"#utility.yul\":1516:1556   */\n  swap3\n  pop\n    /* \"#utility.yul\":1245:1562   */\n  pop\n  pop\n    /* \"#utility.yul\":1169:1562   */\n  swap4\n  swap3\n  pop\n  pop\n  pop\n  jump\t// out\n    /* \"#utility.yul\":1568:1645   */\ntag_15:\n    /* \"#utility.yul\":1605:1612   */\n  0x00\n    /* \"#utility.yul\":1634:1639   */\n  dup2\n    /* \"#utility.yul\":1623:1639   */\n  swap1\n  pop\n    /* \"#utility.yul\":1568:1645   */\n  swap2\n  swap1\n  pop\n  jump\t// out\n    /* \"#utility.yul\":1651:1711   */\ntag_16:\n    /* \"#utility.yul\":1679:1682   */\n  0x00\n    /* \"#utility.yul\":1700:1705   */\n  dup2\n    /* \"#utility.yul\":1693:1705   */\n  swap1\n  pop\n    /* \"#utility.yul\":1651:1711   */\n  swap2\n  swap1\n  pop\n  jump\t// out\n    /* \"#utility.yul\":1717:1859   */\ntag_17:\n    /* \"#utility.yul\":1767:1776   */\n  0x00\n    /* \"#utility.yul\":1800:1853   */\n  tag_44\n    /* \"#utility.yul\":1818:1852   */\n  tag_45\n    /* \"#utility.yul\":1827:1851   */\n  tag_46\n    /* \"#utility.yul\":1845:1850   */\n  dup5\n    /* \"#utility.yul\":1827:1851   */\n  tag_15\n  jump\t// in\ntag_46:\n    /* \"#utility.yul\":1818:1852   */\n  tag_16\n  jump\t// in\ntag_45:\n    /* \"#utility.yul\":1800:1853   */\n  tag_15\n  jump\t// in\ntag_44:\n    /* \"#utility.yul\":1787:1853   */\n  swap1\n  pop\n    /* \"#utility.yul\":1717:1859   */\n  swap2\n  swap1\n  pop\n  jump\t// out\n    /* \"#utility.yul\":1865:1940   */\ntag_18:\n    /* \"#utility.yul\":1908:1911   */\n  0x00\n    /* \"#utility.yul\":1929:1934   */\n  dup2\n    /* \"#utility.yul\":1922:1934   */\n  swap1\n  pop\n    /* \"#utility.yul\":1865:1940   */\n  swap2\n  swap1\n  pop\n  jump\t// out\n    /* \"#utility.yul\":1946:2215   */\ntag_19:\n    /* \"#utility.yul\":2056:2095   */\n  tag_49\n    /* \"#utility.yul\":2087:2094   */\n  dup4\n    /* \"#utility.yul\":2056:2095   */\n  tag_17\n  jump\t// in\ntag_49:\n    /* \"#utility.yul\":2117:2208   */\n  tag_50\n    /* \"#utility.yul\":2166:2207   */\n  tag_51\n    /* \"#utility.yul\":2190:2206   */\n  dup3\n    /* \"#utility.yul\":2166:2207   */\n  tag_18\n  jump\t// in\ntag_51:\n    /* \"#utility.yul\":2158:2164   */\n  dup5\n    /* \"#utility.yul\":2151:2155   */\n  dup5\n    /* \"#utility.yul\":2145:2156   */\n  sload\n    /* \"#utility.yul\":2117:2208   */\n  tag_14\n  jump\t// in\ntag_50:\n    /* \"#utility.yul\":2111:2115   */\n  dup3\n    /* \"#utility.yul\":2104:2209   */\n  sstore\n    /* \"#utility.yul\":2022:2215   */\n  pop\n    /* \"#utility.yul\":1946:2215   */\n  pop\n  pop\n  pop\n  jump\t// out\n    /* \"#utility.yul\":2221:2294   */\ntag_20:\n    /* \"#utility.yul\":2266:2269   */\n  0x00\n    /* \"#utility.yul\":2221:2294   */\n  swap1\n  jump\t// out\n    /* \"#utility.yul\":2300:2489   */\ntag_21:\n    /* \"#utility.yul\":2377:2409   */\n  tag_54\n  tag_20\n  jump\t// in\ntag_54:\n    /* \"#utility.yul\":2418:2483   */\n  tag_55\n    /* \"#utility.yul\":2476:2482   */\n  dup2\n    /* \"#utility.yul\":2468:2474   */\n  dup5\n    /* \"#utility.yul\":2462:2466   */\n  dup5\n    /* \"#utility.yul\":2418:2483   */\n  tag_19\n  jump\t// in\ntag_55:\n    /* \"#utility.yul\":2353:2489   */\n  pop\n    /* \"#utility.yul\":2300:2489   */\n  pop\n  pop\n  jump\t// out\n    /* \"#utility.yul\":2495:2681   */\ntag_22:\n    /* \"#utility.yul\":2555:2675   */\ntag_57:\n    /* \"#utility.yul\":2572:2575   */\n  dup2\n    /* \"#utility.yul\":2565:2570   */\n  dup2\n    /* \"#utility.yul\":2562:2576   */\n  lt\n    /* \"#utility.yul\":2555:2675   */\n  iszero\n  tag_59\n  jumpi\n    /* \"#utility.yul\":2626:2665   */\n  tag_60\n    /* \"#utility.yul\":2663:2664   */\n  0x00\n    /* \"#utility.yul\":2656:2661   */\n  dup3\n    /* \"#utility.yul\":2626:2665   */\n  tag_21\n  jump\t// in\ntag_60:\n    /* \"#utility.yul\":2599:2600   */\n  0x01\n    /* \"#utility.yul\":2592:2597   */\n  dup2\n    /* \"#utility.yul\":2588:2601   */\n  add\n    /* \"#utility.yul\":2579:2601   */\n  swap1\n  pop\n    /* \"#utility.yul\":2555:2675   */\n  jump(tag_57)\ntag_59:\n    /* \"#utility.yul\":2495:2681   */\n  pop\n  pop\n  jump\t// out\n    /* \"#utility.yul\":2687:3230   */\ntag_23:\n    /* \"#utility.yul\":2788:2790   */\n  0x1f\n    /* \"#utility.yul\":2783:2786   */\n  dup3\n    /* \"#utility.yul\":2780:2791   */\n  gt\n    /* \"#utility.yul\":2777:3223   */\n  iszero\n  tag_62\n  jumpi\n    /* \"#utility.yul\":2822:2860   */\n  tag_63\n    /* \"#utility.yul\":2854:2859   */\n  dup2\n    /* \"#utility.yul\":2822:2860   */\n  tag_11\n  jump\t// in\ntag_63:\n    /* \"#utility.yul\":2906:2935   */\n  tag_64\n    /* \"#utility.yul\":2924:2934   */\n  dup5\n    /* \"#utility.yul\":2906:2935   */\n  tag_12\n  jump\t// in\ntag_64:\n    /* \"#utility.yul\":2896:2904   */\n  dup2\n    /* \"#utility.yul\":2892:2936   */\n  add\n    /* \"#utility.yul\":3089:3091   */\n  0x20\n    /* \"#utility.yul\":3077:3087   */\n  dup6\n    /* \"#utility.yul\":3074:3092   */\n  lt\n    /* \"#utility.yul\":3071:3120   */\n  iszero\n  tag_65\n  jumpi\n    /* \"#utility.yul\":3110:3118   */\n  dup2\n    /* \"#utility.yul\":3095:3118   */\n  swap1\n  pop\n    /* \"#utility.yul\":3071:3120   */\ntag_65:\n    /* \"#utility.yul\":3133:3213   */\n  tag_66\n    /* \"#utility.yul\":3189:3211   */\n  tag_67\n    /* \"#utility.yul\":3207:3210   */\n  dup6\n    /* \"#utility.yul\":3189:3211   */\n  tag_12\n  jump\t// in\ntag_67:\n    /* \"#utility.yul\":3179:3187   */\n  dup4\n    /* \"#utility.yul\":3175:3212   */\n  add\n    /* \"#utility.yul\":3162:3173   */\n  dup3\n    /* \"#utility.yul\":3133:3213   */\n  tag_22\n  jump\t// in\ntag_66:\n    /* \"#utility.yul\":2792:3223   */\n  pop\n  pop\n    /* \"#utility.yul\":2777:3223   */\ntag_62:\n    /* \"#utility.yul\":2687:3230   */\n  pop\n  pop\n  pop\n  jump\t// out\n    /* \"#utility.yul\":3236:3353   */\ntag_24:\n    /* \"#utility.yul\":3290:3298   */\n  0x00\n    /* \"#utility.yul\":3340:3345   */\n  dup3\n    /* \"#utility.yul\":3334:3338   */\n  dup3\n    /* \"#utility.yul\":3330:3346   */\n  shr\n    /* \"#utility.yul\":3309:3346   */\n  swap1\n  pop\n    /* \"#utility.yul\":3236:3353   */\n  swap3\n  swap2\n  pop\n  pop\n  jump\t// out\n    /* \"#utility.yul\":3359:3528   */\ntag_25:\n    /* \"#utility.yul\":3403:3409   */\n  0x00\n    /* \"#utility.yul\":3436:3487   */\n  tag_70\n    /* \"#utility.yul\":3484:3485   */\n  0x00\n    /* \"#utility.yul\":3480:3486   */\n  not\n    /* \"#utility.yul\":3472:3477   */\n  dup5\n    /* \"#utility.yul\":3469:3470   */\n  0x08\n    /* \"#utility.yul\":3465:3478   */\n  mul\n    /* \"#utility.yul\":3436:3487   */\n  tag_24\n  jump\t// in\ntag_70:\n    /* \"#utility.yul\":3432:3488   */\n  not\n    /* \"#utility.yul\":3517:3521   */\n  dup1\n    /* \"#utility.yul\":3511:3515   */\n  dup4\n    /* \"#utility.yul\":3507:3522   */\n  and\n    /* \"#utility.yul\":3497:3522   */\n  swap2\n  pop\n    /* \"#utility.yul\":3410:3528   */\n  pop\n    /* \"#utility.yul\":3359:3528   */\n  swap3\n  swap2\n  pop\n  pop\n  jump\t// out\n    /* \"#utility.yul\":3533:3828   */\ntag_26:\n    /* \"#utility.yul\":3609:3613   */\n  0x00\n    /* \"#utility.yul\":3755:3784   */\n  tag_72\n    /* \"#utility.yul\":3780:3783   */\n  dup4\n    /* \"#utility.yul\":3774:3778   */\n  dup4\n    /* \"#utility.yul\":3755:3784   */\n  tag_25\n  jump\t// in\ntag_72:\n    /* \"#utility.yul\":3747:3784   */\n  swap2\n  pop\n    /* \"#utility.yul\":3817:3820   */\n  dup3\n    /* \"#utility.yul\":3814:3815   */\n  0x02\n    /* \"#utility.yul\":3810:3821   */\n  mul\n    /* \"#utility.yul\":3804:3808   */\n  dup3\n    /* \"#utility.yul\":3801:3822   */\n  or\n    /* \"#utility.yul\":3793:3822   */\n  swap1\n  pop\n    /* \"#utility.yul\":3533:3828   */\n  swap3\n  swap2\n  pop\n  pop\n  jump\t// out\n    /* \"#utility.yul\":3833:5228   */\ntag_5:\n    /* \"#utility.yul\":3950:3987   */\n  tag_74\n    /* \"#utility.yul\":3983:3986   */\n  dup3\n    /* \"#utility.yul\":3950:3987   */\n  tag_7\n  jump\t// in\ntag_74:\n    /* \"#utility.yul\":4052:4070   */\n  0xffffffffffffffff\n    /* \"#utility.yul\":4044:4050   */\n  dup2\n    /* \"#utility.yul\":4041:4071   */\n  gt\n    /* \"#utility.yul\":4038:4094   */\n  iszero\n  tag_75\n  jumpi\n    /* \"#utility.yul\":4074:4092   */\n  tag_76\n  tag_8\n  jump\t// in\ntag_76:\n    /* \"#utility.yul\":4038:4094   */\ntag_75:\n    /* \"#utility.yul\":4118:4156   */\n  tag_77\n    /* \"#utility.yul\":4150:4154   */\n  dup3\n    /* \"#utility.yul\":4144:4155   */\n  sload\n    /* \"#utility.yul\":4118:4156   */\n  tag_10\n  jump\t// in\ntag_77:\n    /* \"#utility.yul\":4203:4270   */\n  tag_78\n    /* \"#utility.yul\":4263:4269   */\n  dup3\n    /* \"#utility.yul\":4255:4261   */\n  dup3\n    /* \"#utility.yul\":4249:4253   */\n  dup6\n    /* \"#utility.yul\":4203:4270   */\n  tag_23\n  jump\t// in\ntag_78:\n    /* \"#utility.yul\":4297:4298   */\n  0x00\n    /* \"#utility.yul\":4321:4325   */\n  0x20\n    /* \"#utility.yul\":4308:4325   */\n  swap1\n  pop\n    /* \"#utility.yul\":4353:4355   */\n  0x1f\n    /* \"#utility.yul\":4345:4351   */\n  dup4\n    /* \"#utility.yul\":4342:4356   */\n  gt\n    /* \"#utility.yul\":4370:4371   */\n  0x01\n    /* \"#utility.yul\":4365:4983   */\n  dup2\n  eq\n  tag_80\n  jumpi\n    /* \"#utility.yul\":5027:5028   */\n  0x00\n    /* \"#utility.yul\":5044:5050   */\n  dup5\n    /* \"#utility.yul\":5041:5118   */\n  iszero\n  tag_81\n  jumpi\n    /* \"#utility.yul\":5093:5102   */\n  dup3\n    /* \"#utility.yul\":5088:5091   */\n  dup8\n    /* \"#utility.yul\":5084:5103   */\n  add\n    /* \"#utility.yul\":5078:5104   */\n  mload\n    /* \"#utility.yul\":5069:5104   */\n  swap1\n  pop\n    /* \"#utility.yul\":5041:5118   */\ntag_81:\n    /* \"#utility.yul\":5144:5211   */\n  tag_82\n    /* \"#utility.yul\":5204:5210   */\n  dup6\n    /* \"#utility.yul\":5197:5202   */\n  dup3\n    /* \"#utility.yul\":5144:5211   */\n  tag_26\n  jump\t// in\ntag_82:\n    /* \"#utility.yul\":5138:5142   */\n  dup7\n    /* \"#utility.yul\":5131:5212   */\n  sstore\n    /* \"#utility.yul\":5000:5222   */\n  pop\n    /* \"#utility.yul\":4335:5222   */\n  jump(tag_79)\n    /* \"#utility.yul\":4365:4983   */\ntag_80:\n    /* \"#utility.yul\":4417:4421   */\n  0x1f\n    /* \"#utility.yul\":4413:4422   */\n  not\n    /* \"#utility.yul\":4405:4411   */\n  dup5\n    /* \"#utility.yul\":4401:4423   */\n  and\n    /* \"#utility.yul\":4451:4488   */\n  tag_83\n    /* \"#utility.yul\":4483:4487   */\n  dup7\n    /* \"#utility.yul\":4451:4488   */\n  tag_11\n  jump\t// in\ntag_83:\n    /* \"#utility.yul\":4510:4511   */\n  0x00\n    /* \"#utility.yul\":4524:4732   */\ntag_84:\n    /* \"#utility.yul\":4538:4545   */\n  dup3\n    /* \"#utility.yul\":4535:4536   */\n  dup2\n    /* \"#utility.yul\":4532:4546   */\n  lt\n    /* \"#utility.yul\":4524:4732   */\n  iszero\n  tag_86\n  jumpi\n    /* \"#utility.yul\":4617:4626   */\n  dup5\n    /* \"#utility.yul\":4612:4615   */\n  dup10\n    /* \"#utility.yul\":4608:4627   */\n  add\n    /* \"#utility.yul\":4602:4628   */\n  mload\n    /* \"#utility.yul\":4594:4600   */\n  dup3\n    /* \"#utility.yul\":4587:4629   */\n  sstore\n    /* \"#utility.yul\":4668:4669   */\n  0x01\n    /* \"#utility.yul\":4660:4666   */\n  dup3\n    /* \"#utility.yul\":4656:4670   */\n  add\n    /* \"#utility.yul\":4646:4670   */\n  swap2\n  pop\n    /* \"#utility.yul\":4715:4717   */\n  0x20\n    /* \"#utility.yul\":4704:4713   */\n  dup6\n    /* \"#utility.yul\":4700:4718   */\n  add\n    /* \"#utility.yul\":4687:4718   */\n  swap5\n  pop\n    /* \"#utility.yul\":4561:4565   */\n  0x20\n    /* \"#utility.yul\":4558:4559   */\n  dup2\n    /* \"#utility.yul\":4554:4566   */\n  add\n    /* \"#utility.yul\":4549:4566   */\n  swap1\n  pop\n    /* \"#utility.yul\":4524:4732   */\n  jump(tag_84)\ntag_86:\n    /* \"#utility.yul\":4760:4766   */\n  dup7\n    /* \"#utility.yul\":4751:4758   */\n  dup4\n    /* \"#utility.yul\":4748:4767   */\n  lt\n    /* \"#utility.yul\":4745:4924   */\n  iszero\n  tag_87\n  jumpi\n    /* \"#utility.yul\":4818:4827   */\n  dup5\n    /* \"#utility.yul\":4813:4816   */\n  dup10\n    /* \"#utility.yul\":4809:4828   */\n  add\n    /* \"#utility.yul\":4803:4829   */\n  mload\n    /* \"#utility.yul\":4861:4909   */\n  tag_88\n    /* \"#utility.yul\":4903:4907   */\n  0x1f\n    /* \"#utility.yul\":4895:4901   */\n  dup10\n    /* \"#utility.yul\":4891:4908   */\n  and\n    /* \"#utility.yul\":4880:4889   */\n  dup3\n    /* \"#utility.yul\":4861:4909   */\n  tag_25\n  jump\t// in\ntag_88:\n    /* \"#utility.yul\":4853:4859   */\n  dup4\n    /* \"#utility.yul\":4846:4910   */\n  sstore\n    /* \"#utility.yul\":4768:4924   */\n  pop\n    /* \"#utility.yul\":4745:4924   */\ntag_87:\n    /* \"#utility.yul\":4970:4971   */\n  0x01\n    /* \"#utility.yul\":4966:4967   */\n  0x02\n    /* \"#utility.yul\":4958:4964   */\n  dup9\n    /* \"#utility.yul\":4954:4968   */\n  mul\n    /* \"#utility.yul\":4950:4972   */\n  add\n    /* \"#utility.yul\":4944:4948   */\n  dup9\n    /* \"#utility.yul\":4937:4973   */\n  sstore\n    /* \"#utility.yul\":4372:4983   */\n  pop\n  pop\n  pop\n    /* \"#utility.yul\":4335:5222   */\ntag_79:\n  pop\n    /* \"#utility.yul\":3925:5228   */\n  pop\n  pop\n  pop\n    /* \"#utility.yul\":3833:5228   */\n  pop\n  pop\n  jump\t// out\n    /* \"ExercicioEvento.sol\":124:683  contract ExercicioEvento {... */\ntag_6:\n  dataSize(sub_0)\n  dup1\n  dataOffset(sub_0)\n  0x00\n  codecopy\n  0x00\n  return\nstop\n\nsub_0: assembly {\n        /* \"ExercicioEvento.sol\":124:683  contract ExercicioEvento {... */\n      mstore(0x40, 0x80)\n      callvalue\n      dup1\n      iszero\n      tag_1\n      jumpi\n      0x00\n      dup1\n      revert\n    tag_1:\n      pop\n      jumpi(tag_2, lt(calldatasize, 0x04))\n      shr(0xe0, calldataload(0x00))\n      dup1\n      0x937f6e77\n      eq\n      tag_3\n      jumpi\n    tag_2:\n      0x00\n      dup1\n      revert\n        /* \"ExercicioEvento.sol\":414:677  function setInfo(string  memory newValue) external {... */\n    tag_3:\n      tag_4\n      0x04\n      dup1\n      calldatasize\n      sub\n      dup2\n      add\n      swap1\n      tag_5\n      swap2\n      swap1\n      tag_6\n      jump\t// in\n    tag_5:\n      tag_7\n      jump\t// in\n    tag_4:\n      stop\n    tag_7:\n        /* \"ExercicioEvento.sol\":497:503  _owner */\n      0x01\n      0x00\n      swap1\n      sload\n      swap1\n      0x0100\n      exp\n      swap1\n      div\n      0xffffffffffffffffffffffffffffffffffffffff\n      and\n        /* \"ExercicioEvento.sol\":484:503  msg.sender !=_owner */\n      0xffffffffffffffffffffffffffffffffffffffff\n      and\n        /* \"ExercicioEvento.sol\":484:494  msg.sender */\n      caller\n        /* \"ExercicioEvento.sol\":484:503  msg.sender !=_owner */\n      0xffffffffffffffffffffffffffffffffffffffff\n      and\n      sub\n        /* \"ExercicioEvento.sol\":476:523  require(msg.sender !=_owner, \"you are not ADM\") */\n      tag_9\n      jumpi\n      mload(0x40)\n      0x08c379a000000000000000000000000000000000000000000000000000000000\n      dup2\n      mstore\n      0x04\n      add\n      tag_10\n      swap1\n      tag_11\n      jump\t// in\n    tag_10:\n      mload(0x40)\n      dup1\n      swap2\n      sub\n      swap1\n      revert\n    tag_9:\n        /* \"ExercicioEvento.sol\":551:557  _owner */\n      0x01\n      0x00\n      swap1\n      sload\n      swap1\n      0x0100\n      exp\n      swap1\n      div\n      0xffffffffffffffffffffffffffffffffffffffff\n      and\n        /* \"ExercicioEvento.sol\":537:557  msg.sender == _owner */\n      0xffffffffffffffffffffffffffffffffffffffff\n      and\n        /* \"ExercicioEvento.sol\":537:547  msg.sender */\n      caller\n        /* \"ExercicioEvento.sol\":537:557  msg.sender == _owner */\n      0xffffffffffffffffffffffffffffffffffffffff\n      and\n      sub\n        /* \"ExercicioEvento.sol\":534:608  if(msg.sender == _owner){... */\n      tag_12\n      jumpi\n        /* \"ExercicioEvento.sol\":588:596  newValue */\n      dup1\n        /* \"ExercicioEvento.sol\":573:585  s_storedInfo */\n      0x00\n        /* \"ExercicioEvento.sol\":573:596  s_storedInfo = newValue */\n      swap1\n      dup2\n      tag_13\n      swap2\n      swap1\n      tag_14\n      jump\t// in\n    tag_13:\n      pop\n        /* \"ExercicioEvento.sol\":534:608  if(msg.sender == _owner){... */\n    tag_12:\n        /* \"ExercicioEvento.sol\":623:666  ExercicoEvento_setInfoChanged(s_storedInfo) */\n      0x21b83cbdd9df6a04e9ab35fa27a03331df930c676c0035679394de1f564f6632\n        /* \"ExercicioEvento.sol\":653:665  s_storedInfo */\n      0x00\n        /* \"ExercicioEvento.sol\":623:666  ExercicoEvento_setInfoChanged(s_storedInfo) */\n      mload(0x40)\n      tag_15\n      swap2\n      swap1\n      tag_16\n      jump\t// in\n    tag_15:\n      mload(0x40)\n      dup1\n      swap2\n      sub\n      swap1\n      log1\n        /* \"ExercicioEvento.sol\":414:677  function setInfo(string  memory newValue) external {... */\n      pop\n      jump\t// out\n        /* \"#utility.yul\":7:82   */\n    tag_17:\n        /* \"#utility.yul\":40:46   */\n      0x00\n        /* \"#utility.yul\":73:75   */\n      0x40\n        /* \"#utility.yul\":67:76   */\n      mload\n        /* \"#utility.yul\":57:76   */\n      swap1\n      pop\n        /* \"#utility.yul\":7:82   */\n      swap1\n      jump\t// out\n        /* \"#utility.yul\":88:205   */\n    tag_18:\n        /* \"#utility.yul\":197:198   */\n      0x00\n        /* \"#utility.yul\":194:195   */\n      dup1\n        /* \"#utility.yul\":187:199   */\n      revert\n        /* \"#utility.yul\":211:328   */\n    tag_19:\n        /* \"#utility.yul\":320:321   */\n      0x00\n        /* \"#utility.yul\":317:318   */\n      dup1\n        /* \"#utility.yul\":310:322   */\n      revert\n        /* \"#utility.yul\":334:451   */\n    tag_20:\n        /* \"#utility.yul\":443:444   */\n      0x00\n        /* \"#utility.yul\":440:441   */\n      dup1\n        /* \"#utility.yul\":433:445   */\n      revert\n        /* \"#utility.yul\":457:574   */\n    tag_21:\n        /* \"#utility.yul\":566:567   */\n      0x00\n        /* \"#utility.yul\":563:564   */\n      dup1\n        /* \"#utility.yul\":556:568   */\n      revert\n        /* \"#utility.yul\":580:682   */\n    tag_22:\n        /* \"#utility.yul\":621:627   */\n      0x00\n        /* \"#utility.yul\":672:674   */\n      0x1f\n        /* \"#utility.yul\":668:675   */\n      not\n        /* \"#utility.yul\":663:665   */\n      0x1f\n        /* \"#utility.yul\":656:661   */\n      dup4\n        /* \"#utility.yul\":652:666   */\n      add\n        /* \"#utility.yul\":648:676   */\n      and\n        /* \"#utility.yul\":638:676   */\n      swap1\n      pop\n        /* \"#utility.yul\":580:682   */\n      swap2\n      swap1\n      pop\n      jump\t// out\n        /* \"#utility.yul\":688:868   */\n    tag_23:\n        /* \"#utility.yul\":736:813   */\n      0x4e487b7100000000000000000000000000000000000000000000000000000000\n        /* \"#utility.yul\":733:734   */\n      0x00\n        /* \"#utility.yul\":726:814   */\n      mstore\n        /* \"#utility.yul\":833:837   */\n      0x41\n        /* \"#utility.yul\":830:831   */\n      0x04\n        /* \"#utility.yul\":823:838   */\n      mstore\n        /* \"#utility.yul\":857:861   */\n      0x24\n        /* \"#utility.yul\":854:855   */\n      0x00\n        /* \"#utility.yul\":847:862   */\n      revert\n        /* \"#utility.yul\":874:1155   */\n    tag_24:\n        /* \"#utility.yul\":957:984   */\n      tag_62\n        /* \"#utility.yul\":979:983   */\n      dup3\n        /* \"#utility.yul\":957:984   */\n      tag_22\n      jump\t// in\n    tag_62:\n        /* \"#utility.yul\":949:955   */\n      dup2\n        /* \"#utility.yul\":945:985   */\n      add\n        /* \"#utility.yul\":1087:1093   */\n      dup2\n        /* \"#utility.yul\":1075:1085   */\n      dup2\n        /* \"#utility.yul\":1072:1094   */\n      lt\n        /* \"#utility.yul\":1051:1069   */\n      0xffffffffffffffff\n        /* \"#utility.yul\":1039:1049   */\n      dup3\n        /* \"#utility.yul\":1036:1070   */\n      gt\n        /* \"#utility.yul\":1033:1095   */\n      or\n        /* \"#utility.yul\":1030:1118   */\n      iszero\n      tag_63\n      jumpi\n        /* \"#utility.yul\":1098:1116   */\n      tag_64\n      tag_23\n      jump\t// in\n    tag_64:\n        /* \"#utility.yul\":1030:1118   */\n    tag_63:\n        /* \"#utility.yul\":1138:1148   */\n      dup1\n        /* \"#utility.yul\":1134:1136   */\n      0x40\n        /* \"#utility.yul\":1127:1149   */\n      mstore\n        /* \"#utility.yul\":917:1155   */\n      pop\n        /* \"#utility.yul\":874:1155   */\n      pop\n      pop\n      jump\t// out\n        /* \"#utility.yul\":1161:1290   */\n    tag_25:\n        /* \"#utility.yul\":1195:1201   */\n      0x00\n        /* \"#utility.yul\":1222:1242   */\n      tag_66\n      tag_17\n      jump\t// in\n    tag_66:\n        /* \"#utility.yul\":1212:1242   */\n      swap1\n      pop\n        /* \"#utility.yul\":1251:1284   */\n      tag_67\n        /* \"#utility.yul\":1279:1283   */\n      dup3\n        /* \"#utility.yul\":1271:1277   */\n      dup3\n        /* \"#utility.yul\":1251:1284   */\n      tag_24\n      jump\t// in\n    tag_67:\n        /* \"#utility.yul\":1161:1290   */\n      swap2\n      swap1\n      pop\n      jump\t// out\n        /* \"#utility.yul\":1296:1604   */\n    tag_26:\n        /* \"#utility.yul\":1358:1362   */\n      0x00\n        /* \"#utility.yul\":1448:1466   */\n      0xffffffffffffffff\n        /* \"#utility.yul\":1440:1446   */\n      dup3\n        /* \"#utility.yul\":1437:1467   */\n      gt\n        /* \"#utility.yul\":1434:1490   */\n      iszero\n      tag_69\n      jumpi\n        /* \"#utility.yul\":1470:1488   */\n      tag_70\n      tag_23\n      jump\t// in\n    tag_70:\n        /* \"#utility.yul\":1434:1490   */\n    tag_69:\n        /* \"#utility.yul\":1508:1537   */\n      tag_71\n        /* \"#utility.yul\":1530:1536   */\n      dup3\n        /* \"#utility.yul\":1508:1537   */\n      tag_22\n      jump\t// in\n    tag_71:\n        /* \"#utility.yul\":1500:1537   */\n      swap1\n      pop\n        /* \"#utility.yul\":1592:1596   */\n      0x20\n        /* \"#utility.yul\":1586:1590   */\n      dup2\n        /* \"#utility.yul\":1582:1597   */\n      add\n        /* \"#utility.yul\":1574:1597   */\n      swap1\n      pop\n        /* \"#utility.yul\":1296:1604   */\n      swap2\n      swap1\n      pop\n      jump\t// out\n        /* \"#utility.yul\":1610:1756   */\n    tag_27:\n        /* \"#utility.yul\":1707:1713   */\n      dup3\n        /* \"#utility.yul\":1702:1705   */\n      dup2\n        /* \"#utility.yul\":1697:1700   */\n      dup4\n        /* \"#utility.yul\":1684:1714   */\n      calldatacopy\n        /* \"#utility.yul\":1748:1749   */\n      0x00\n        /* \"#utility.yul\":1739:1745   */\n      dup4\n        /* \"#utility.yul\":1734:1737   */\n      dup4\n        /* \"#utility.yul\":1730:1746   */\n      add\n        /* \"#utility.yul\":1723:1750   */\n      mstore\n        /* \"#utility.yul\":1610:1756   */\n      pop\n      pop\n      pop\n      jump\t// out\n        /* \"#utility.yul\":1762:2187   */\n    tag_28:\n        /* \"#utility.yul\":1840:1845   */\n      0x00\n        /* \"#utility.yul\":1865:1931   */\n      tag_74\n        /* \"#utility.yul\":1881:1930   */\n      tag_75\n        /* \"#utility.yul\":1923:1929   */\n      dup5\n        /* \"#utility.yul\":1881:1930   */\n      tag_26\n      jump\t// in\n    tag_75:\n        /* \"#utility.yul\":1865:1931   */\n      tag_25\n      jump\t// in\n    tag_74:\n        /* \"#utility.yul\":1856:1931   */\n      swap1\n      pop\n        /* \"#utility.yul\":1954:1960   */\n      dup3\n        /* \"#utility.yul\":1947:1952   */\n      dup2\n        /* \"#utility.yul\":1940:1961   */\n      mstore\n        /* \"#utility.yul\":1992:1996   */\n      0x20\n        /* \"#utility.yul\":1985:1990   */\n      dup2\n        /* \"#utility.yul\":1981:1997   */\n      add\n        /* \"#utility.yul\":2030:2033   */\n      dup5\n        /* \"#utility.yul\":2021:2027   */\n      dup5\n        /* \"#utility.yul\":2016:2019   */\n      dup5\n        /* \"#utility.yul\":2012:2028   */\n      add\n        /* \"#utility.yul\":2009:2034   */\n      gt\n        /* \"#utility.yul\":2006:2118   */\n      iszero\n      tag_76\n      jumpi\n        /* \"#utility.yul\":2037:2116   */\n      tag_77\n      tag_21\n      jump\t// in\n    tag_77:\n        /* \"#utility.yul\":2006:2118   */\n    tag_76:\n        /* \"#utility.yul\":2127:2181   */\n      tag_78\n        /* \"#utility.yul\":2174:2180   */\n      dup5\n        /* \"#utility.yul\":2169:2172   */\n      dup3\n        /* \"#utility.yul\":2164:2167   */\n      dup6\n        /* \"#utility.yul\":2127:2181   */\n      tag_27\n      jump\t// in\n    tag_78:\n        /* \"#utility.yul\":1846:2187   */\n      pop\n        /* \"#utility.yul\":1762:2187   */\n      swap4\n      swap3\n      pop\n      pop\n      pop\n      jump\t// out\n        /* \"#utility.yul\":2207:2547   */\n    tag_29:\n        /* \"#utility.yul\":2263:2268   */\n      0x00\n        /* \"#utility.yul\":2312:2315   */\n      dup3\n        /* \"#utility.yul\":2305:2309   */\n      0x1f\n        /* \"#utility.yul\":2297:2303   */\n      dup4\n        /* \"#utility.yul\":2293:2310   */\n      add\n        /* \"#utility.yul\":2289:2316   */\n      slt\n        /* \"#utility.yul\":2279:2401   */\n      tag_80\n      jumpi\n        /* \"#utility.yul\":2320:2399   */\n      tag_81\n      tag_20\n      jump\t// in\n    tag_81:\n        /* \"#utility.yul\":2279:2401   */\n    tag_80:\n        /* \"#utility.yul\":2437:2443   */\n      dup2\n        /* \"#utility.yul\":2424:2444   */\n      calldataload\n        /* \"#utility.yul\":2462:2541   */\n      tag_82\n        /* \"#utility.yul\":2537:2540   */\n      dup5\n        /* \"#utility.yul\":2529:2535   */\n      dup3\n        /* \"#utility.yul\":2522:2526   */\n      0x20\n        /* \"#utility.yul\":2514:2520   */\n      dup7\n        /* \"#utility.yul\":2510:2527   */\n      add\n        /* \"#utility.yul\":2462:2541   */\n      tag_28\n      jump\t// in\n    tag_82:\n        /* \"#utility.yul\":2453:2541   */\n      swap2\n      pop\n        /* \"#utility.yul\":2269:2547   */\n      pop\n        /* \"#utility.yul\":2207:2547   */\n      swap3\n      swap2\n      pop\n      pop\n      jump\t// out\n        /* \"#utility.yul\":2553:3062   */\n    tag_6:\n        /* \"#utility.yul\":2622:2628   */\n      0x00\n        /* \"#utility.yul\":2671:2673   */\n      0x20\n        /* \"#utility.yul\":2659:2668   */\n      dup3\n        /* \"#utility.yul\":2650:2657   */\n      dup5\n        /* \"#utility.yul\":2646:2669   */\n      sub\n        /* \"#utility.yul\":2642:2674   */\n      slt\n        /* \"#utility.yul\":2639:2758   */\n      iszero\n      tag_84\n      jumpi\n        /* \"#utility.yul\":2677:2756   */\n      tag_85\n      tag_18\n      jump\t// in\n    tag_85:\n        /* \"#utility.yul\":2639:2758   */\n    tag_84:\n        /* \"#utility.yul\":2825:2826   */\n      0x00\n        /* \"#utility.yul\":2814:2823   */\n      dup3\n        /* \"#utility.yul\":2810:2827   */\n      add\n        /* \"#utility.yul\":2797:2828   */\n      calldataload\n        /* \"#utility.yul\":2855:2873   */\n      0xffffffffffffffff\n        /* \"#utility.yul\":2847:2853   */\n      dup2\n        /* \"#utility.yul\":2844:2874   */\n      gt\n        /* \"#utility.yul\":2841:2958   */\n      iszero\n      tag_86\n      jumpi\n        /* \"#utility.yul\":2877:2956   */\n      tag_87\n      tag_19\n      jump\t// in\n    tag_87:\n        /* \"#utility.yul\":2841:2958   */\n    tag_86:\n        /* \"#utility.yul\":2982:3045   */\n      tag_88\n        /* \"#utility.yul\":3037:3044   */\n      dup5\n        /* \"#utility.yul\":3028:3034   */\n      dup3\n        /* \"#utility.yul\":3017:3026   */\n      dup6\n        /* \"#utility.yul\":3013:3035   */\n      add\n        /* \"#utility.yul\":2982:3045   */\n      tag_29\n      jump\t// in\n    tag_88:\n        /* \"#utility.yul\":2972:3045   */\n      swap2\n      pop\n        /* \"#utility.yul\":2768:3055   */\n      pop\n        /* \"#utility.yul\":2553:3062   */\n      swap3\n      swap2\n      pop\n      pop\n      jump\t// out\n        /* \"#utility.yul\":3068:3237   */\n    tag_30:\n        /* \"#utility.yul\":3152:3163   */\n      0x00\n        /* \"#utility.yul\":3186:3192   */\n      dup3\n        /* \"#utility.yul\":3181:3184   */\n      dup3\n        /* \"#utility.yul\":3174:3193   */\n      mstore\n        /* \"#utility.yul\":3226:3230   */\n      0x20\n        /* \"#utility.yul\":3221:3224   */\n      dup3\n        /* \"#utility.yul\":3217:3231   */\n      add\n        /* \"#utility.yul\":3202:3231   */\n      swap1\n      pop\n        /* \"#utility.yul\":3068:3237   */\n      swap3\n      swap2\n      pop\n      pop\n      jump\t// out\n        /* \"#utility.yul\":3243:3408   */\n    tag_31:\n        /* \"#utility.yul\":3383:3400   */\n      0x796f7520617265206e6f742041444d0000000000000000000000000000000000\n        /* \"#utility.yul\":3379:3380   */\n      0x00\n        /* \"#utility.yul\":3371:3377   */\n      dup3\n        /* \"#utility.yul\":3367:3381   */\n      add\n        /* \"#utility.yul\":3360:3401   */\n      mstore\n        /* \"#utility.yul\":3243:3408   */\n      pop\n      jump\t// out\n        /* \"#utility.yul\":3414:3780   */\n    tag_32:\n        /* \"#utility.yul\":3556:3559   */\n      0x00\n        /* \"#utility.yul\":3577:3644   */\n      tag_92\n        /* \"#utility.yul\":3641:3643   */\n      0x0f\n        /* \"#utility.yul\":3636:3639   */\n      dup4\n        /* \"#utility.yul\":3577:3644   */\n      tag_30\n      jump\t// in\n    tag_92:\n        /* \"#utility.yul\":3570:3644   */\n      swap2\n      pop\n        /* \"#utility.yul\":3653:3746   */\n      tag_93\n        /* \"#utility.yul\":3742:3745   */\n      dup3\n        /* \"#utility.yul\":3653:3746   */\n      tag_31\n      jump\t// in\n    tag_93:\n        /* \"#utility.yul\":3771:3773   */\n      0x20\n        /* \"#utility.yul\":3766:3769   */\n      dup3\n        /* \"#utility.yul\":3762:3774   */\n      add\n        /* \"#utility.yul\":3755:3774   */\n      swap1\n      pop\n        /* \"#utility.yul\":3414:3780   */\n      swap2\n      swap1\n      pop\n      jump\t// out\n        /* \"#utility.yul\":3786:4205   */\n    tag_11:\n        /* \"#utility.yul\":3952:3956   */\n      0x00\n        /* \"#utility.yul\":3990:3992   */\n      0x20\n        /* \"#utility.yul\":3979:3988   */\n      dup3\n        /* \"#utility.yul\":3975:3993   */\n      add\n        /* \"#utility.yul\":3967:3993   */\n      swap1\n      pop\n        /* \"#utility.yul\":4039:4048   */\n      dup2\n        /* \"#utility.yul\":4033:4037   */\n      dup2\n        /* \"#utility.yul\":4029:4049   */\n      sub\n        /* \"#utility.yul\":4025:4026   */\n      0x00\n        /* \"#utility.yul\":4014:4023   */\n      dup4\n        /* \"#utility.yul\":4010:4027   */\n      add\n        /* \"#utility.yul\":4003:4050   */\n      mstore\n        /* \"#utility.yul\":4067:4198   */\n      tag_95\n        /* \"#utility.yul\":4193:4197   */\n      dup2\n        /* \"#utility.yul\":4067:4198   */\n      tag_32\n      jump\t// in\n    tag_95:\n        /* \"#utility.yul\":4059:4198   */\n      swap1\n      pop\n        /* \"#utility.yul\":3786:4205   */\n      swap2\n      swap1\n      pop\n      jump\t// out\n        /* \"#utility.yul\":4211:4310   */\n    tag_33:\n        /* \"#utility.yul\":4263:4269   */\n      0x00\n        /* \"#utility.yul\":4297:4302   */\n      dup2\n        /* \"#utility.yul\":4291:4303   */\n      mload\n        /* \"#utility.yul\":4281:4303   */\n      swap1\n      pop\n        /* \"#utility.yul\":4211:4310   */\n      swap2\n      swap1\n      pop\n      jump\t// out\n        /* \"#utility.yul\":4316:4496   */\n    tag_34:\n        /* \"#utility.yul\":4364:4441   */\n      0x4e487b7100000000000000000000000000000000000000000000000000000000\n        /* \"#utility.yul\":4361:4362   */\n      0x00\n        /* \"#utility.yul\":4354:4442   */\n      mstore\n        /* \"#utility.yul\":4461:4465   */\n      0x22\n        /* \"#utility.yul\":4458:4459   */\n      0x04\n        /* \"#utility.yul\":4451:4466   */\n      mstore\n        /* \"#utility.yul\":4485:4489   */\n      0x24\n        /* \"#utility.yul\":4482:4483   */\n      0x00\n        /* \"#utility.yul\":4475:4490   */\n      revert\n        /* \"#utility.yul\":4502:4822   */\n    tag_35:\n        /* \"#utility.yul\":4546:4552   */\n      0x00\n        /* \"#utility.yul\":4583:4584   */\n      0x02\n        /* \"#utility.yul\":4577:4581   */\n      dup3\n        /* \"#utility.yul\":4573:4585   */\n      div\n        /* \"#utility.yul\":4563:4585   */\n      swap1\n      pop\n        /* \"#utility.yul\":4630:4631   */\n      0x01\n        /* \"#utility.yul\":4624:4628   */\n      dup3\n        /* \"#utility.yul\":4620:4632   */\n      and\n        /* \"#utility.yul\":4651:4669   */\n      dup1\n        /* \"#utility.yul\":4641:4722   */\n      tag_99\n      jumpi\n        /* \"#utility.yul\":4707:4711   */\n      0x7f\n        /* \"#utility.yul\":4699:4705   */\n      dup3\n        /* \"#utility.yul\":4695:4712   */\n      and\n        /* \"#utility.yul\":4685:4712   */\n      swap2\n      pop\n        /* \"#utility.yul\":4641:4722   */\n    tag_99:\n        /* \"#utility.yul\":4769:4771   */\n      0x20\n        /* \"#utility.yul\":4761:4767   */\n      dup3\n        /* \"#utility.yul\":4758:4772   */\n      lt\n        /* \"#utility.yul\":4738:4756   */\n      dup2\n        /* \"#utility.yul\":4735:4773   */\n      sub\n        /* \"#utility.yul\":4732:4816   */\n      tag_100\n      jumpi\n        /* \"#utility.yul\":4788:4806   */\n      tag_101\n      tag_34\n      jump\t// in\n    tag_101:\n        /* \"#utility.yul\":4732:4816   */\n    tag_100:\n        /* \"#utility.yul\":4553:4822   */\n      pop\n        /* \"#utility.yul\":4502:4822   */\n      swap2\n      swap1\n      pop\n      jump\t// out\n        /* \"#utility.yul\":4828:4969   */\n    tag_36:\n        /* \"#utility.yul\":4877:4881   */\n      0x00\n        /* \"#utility.yul\":4900:4903   */\n      dup2\n        /* \"#utility.yul\":4892:4903   */\n      swap1\n      pop\n        /* \"#utility.yul\":4923:4926   */\n      dup2\n        /* \"#utility.yul\":4920:4921   */\n      0x00\n        /* \"#utility.yul\":4913:4927   */\n      mstore\n        /* \"#utility.yul\":4957:4961   */\n      0x20\n        /* \"#utility.yul\":4954:4955   */\n      0x00\n        /* \"#utility.yul\":4944:4962   */\n      keccak256\n        /* \"#utility.yul\":4936:4962   */\n      swap1\n      pop\n        /* \"#utility.yul\":4828:4969   */\n      swap2\n      swap1\n      pop\n      jump\t// out\n        /* \"#utility.yul\":4975:5068   */\n    tag_37:\n        /* \"#utility.yul\":5012:5018   */\n      0x00\n        /* \"#utility.yul\":5059:5061   */\n      0x20\n        /* \"#utility.yul\":5054:5056   */\n      0x1f\n        /* \"#utility.yul\":5047:5052   */\n      dup4\n        /* \"#utility.yul\":5043:5057   */\n      add\n        /* \"#utility.yul\":5039:5062   */\n      div\n        /* \"#utility.yul\":5029:5062   */\n      swap1\n      pop\n        /* \"#utility.yul\":4975:5068   */\n      swap2\n      swap1\n      pop\n      jump\t// out\n        /* \"#utility.yul\":5074:5181   */\n    tag_38:\n        /* \"#utility.yul\":5118:5126   */\n      0x00\n        /* \"#utility.yul\":5168:5173   */\n      dup3\n        /* \"#utility.yul\":5162:5166   */\n      dup3\n        /* \"#utility.yul\":5158:5174   */\n      shl\n        /* \"#utility.yul\":5137:5174   */\n      swap1\n      pop\n        /* \"#utility.yul\":5074:5181   */\n      swap3\n      swap2\n      pop\n      pop\n      jump\t// out\n        /* \"#utility.yul\":5187:5580   */\n    tag_39:\n        /* \"#utility.yul\":5256:5262   */\n      0x00\n        /* \"#utility.yul\":5306:5307   */\n      0x08\n        /* \"#utility.yul\":5294:5304   */\n      dup4\n        /* \"#utility.yul\":5290:5308   */\n      mul\n        /* \"#utility.yul\":5329:5426   */\n      tag_106\n        /* \"#utility.yul\":5359:5425   */\n      0xffffffffffffffffffffffffffffffffffffffffffffffffffffffffffffffff\n        /* \"#utility.yul\":5348:5357   */\n      dup3\n        /* \"#utility.yul\":5329:5426   */\n      tag_38\n      jump\t// in\n    tag_106:\n        /* \"#utility.yul\":5447:5486   */\n      tag_107\n        /* \"#utility.yul\":5477:5485   */\n      dup7\n        /* \"#utility.yul\":5466:5475   */\n      dup4\n        /* \"#utility.yul\":5447:5486   */\n      tag_38\n      jump\t// in\n    tag_107:\n        /* \"#utility.yul\":5435:5486   */\n      swap6\n      pop\n        /* \"#utility.yul\":5519:5523   */\n      dup1\n        /* \"#utility.yul\":5515:5524   */\n      not\n        /* \"#utility.yul\":5508:5513   */\n      dup5\n        /* \"#utility.yul\":5504:5525   */\n      and\n        /* \"#utility.yul\":5495:5525   */\n      swap4\n      pop\n        /* \"#utility.yul\":5568:5572   */\n      dup1\n        /* \"#utility.yul\":5558:5566   */\n      dup7\n        /* \"#utility.yul\":5554:5573   */\n      and\n        /* \"#utility.yul\":5547:5552   */\n      dup5\n        /* \"#utility.yul\":5544:5574   */\n      or\n        /* \"#utility.yul\":5534:5574   */\n      swap3\n      pop\n        /* \"#utility.yul\":5263:5580   */\n      pop\n      pop\n        /* \"#utility.yul\":5187:5580   */\n      swap4\n      swap3\n      pop\n      pop\n      pop\n      jump\t// out\n        /* \"#utility.yul\":5586:5663   */\n    tag_40:\n        /* \"#utility.yul\":5623:5630   */\n      0x00\n        /* \"#utility.yul\":5652:5657   */\n      dup2\n        /* \"#utility.yul\":5641:5657   */\n      swap1\n      pop\n        /* \"#utility.yul\":5586:5663   */\n      swap2\n      swap1\n      pop\n      jump\t// out\n        /* \"#utility.yul\":5669:5729   */\n    tag_41:\n        /* \"#utility.yul\":5697:5700   */\n      0x00\n        /* \"#utility.yul\":5718:5723   */\n      dup2\n        /* \"#utility.yul\":5711:5723   */\n      swap1\n      pop\n        /* \"#utility.yul\":5669:5729   */\n      swap2\n      swap1\n      pop\n      jump\t// out\n        /* \"#utility.yul\":5735:5877   */\n    tag_42:\n        /* \"#utility.yul\":5785:5794   */\n      0x00\n        /* \"#utility.yul\":5818:5871   */\n      tag_111\n        /* \"#utility.yul\":5836:5870   */\n      tag_112\n        /* \"#utility.yul\":5845:5869   */\n      tag_113\n        /* \"#utility.yul\":5863:5868   */\n      dup5\n        /* \"#utility.yul\":5845:5869   */\n      tag_40\n      jump\t// in\n    tag_113:\n        /* \"#utility.yul\":5836:5870   */\n      tag_41\n      jump\t// in\n    tag_112:\n        /* \"#utility.yul\":5818:5871   */\n      tag_40\n      jump\t// in\n    tag_111:\n        /* \"#utility.yul\":5805:5871   */\n      swap1\n      pop\n        /* \"#utility.yul\":5735:5877   */\n      swap2\n      swap1\n      pop\n      jump\t// out\n        /* \"#utility.yul\":5883:5958   */\n    tag_43:\n        /* \"#utility.yul\":5926:5929   */\n      0x00\n        /* \"#utility.yul\":5947:5952   */\n      dup2\n        /* \"#utility.yul\":5940:5952   */\n      swap1\n      pop\n        /* \"#utility.yul\":5883:5958   */\n      swap2\n      swap1\n      pop\n      jump\t// out\n        /* \"#utility.yul\":5964:6233   */\n    tag_44:\n        /* \"#utility.yul\":6074:6113   */\n      tag_116\n        /* \"#utility.yul\":6105:6112   */\n      dup4\n        /* \"#utility.yul\":6074:6113   */\n      tag_42\n      jump\t// in\n    tag_116:\n        /* \"#utility.yul\":6135:6226   */\n      tag_117\n        /* \"#utility.yul\":6184:6225   */\n      tag_118\n        /* \"#utility.yul\":6208:6224   */\n      dup3\n        /* \"#utility.yul\":6184:6225   */\n      tag_43\n      jump\t// in\n    tag_118:\n        /* \"#utility.yul\":6176:6182   */\n      dup5\n        /* \"#utility.yul\":6169:6173   */\n      dup5\n        /* \"#utility.yul\":6163:6174   */\n      sload\n        /* \"#utility.yul\":6135:6226   */\n      tag_39\n      jump\t// in\n    tag_117:\n        /* \"#utility.yul\":6129:6133   */\n      dup3\n        /* \"#utility.yul\":6122:6227   */\n      sstore\n        /* \"#utility.yul\":6040:6233   */\n      pop\n        /* \"#utility.yul\":5964:6233   */\n      pop\n      pop\n      pop\n      jump\t// out\n        /* \"#utility.yul\":6239:6312   */\n    tag_45:\n        /* \"#utility.yul\":6284:6287   */\n      0x00\n        /* \"#utility.yul\":6239:6312   */\n      swap1\n      jump\t// out\n        /* \"#utility.yul\":6318:6507   */\n    tag_46:\n        /* \"#utility.yul\":6395:6427   */\n      tag_121\n      tag_45\n      jump\t// in\n    tag_121:\n        /* \"#utility.yul\":6436:6501   */\n      tag_122\n        /* \"#utility.yul\":6494:6500   */\n      dup2\n        /* \"#utility.yul\":6486:6492   */\n      dup5\n        /* \"#utility.yul\":6480:6484   */\n      dup5\n        /* \"#utility.yul\":6436:6501   */\n      tag_44\n      jump\t// in\n    tag_122:\n        /* \"#utility.yul\":6371:6507   */\n      pop\n        /* \"#utility.yul\":6318:6507   */\n      pop\n      pop\n      jump\t// out\n        /* \"#utility.yul\":6513:6699   */\n    tag_47:\n        /* \"#utility.yul\":6573:6693   */\n    tag_124:\n        /* \"#utility.yul\":6590:6593   */\n      dup2\n        /* \"#utility.yul\":6583:6588   */\n      dup2\n        /* \"#utility.yul\":6580:6594   */\n      lt\n        /* \"#utility.yul\":6573:6693   */\n      iszero\n      tag_126\n      jumpi\n        /* \"#utility.yul\":6644:6683   */\n      tag_127\n        /* \"#utility.yul\":6681:6682   */\n      0x00\n        /* \"#utility.yul\":6674:6679   */\n      dup3\n        /* \"#utility.yul\":6644:6683   */\n      tag_46\n      jump\t// in\n    tag_127:\n        /* \"#utility.yul\":6617:6618   */\n      0x01\n        /* \"#utility.yul\":6610:6615   */\n      dup2\n        /* \"#utility.yul\":6606:6619   */\n      add\n        /* \"#utility.yul\":6597:6619   */\n      swap1\n      pop\n        /* \"#utility.yul\":6573:6693   */\n      jump(tag_124)\n    tag_126:\n        /* \"#utility.yul\":6513:6699   */\n      pop\n      pop\n      jump\t// out\n        /* \"#utility.yul\":6705:7248   */\n    tag_48:\n        /* \"#utility.yul\":6806:6808   */\n      0x1f\n        /* \"#utility.yul\":6801:6804   */\n      dup3\n        /* \"#utility.yul\":6798:6809   */\n      gt\n        /* \"#utility.yul\":6795:7241   */\n      iszero\n      tag_129\n      jumpi\n        /* \"#utility.yul\":6840:6878   */\n      tag_130\n        /* \"#utility.yul\":6872:6877   */\n      dup2\n        /* \"#utility.yul\":6840:6878   */\n      tag_36\n      jump\t// in\n    tag_130:\n        /* \"#utility.yul\":6924:6953   */\n      tag_131\n        /* \"#utility.yul\":6942:6952   */\n      dup5\n        /* \"#utility.yul\":6924:6953   */\n      tag_37\n      jump\t// in\n    tag_131:\n        /* \"#utility.yul\":6914:6922   */\n      dup2\n        /* \"#utility.yul\":6910:6954   */\n      add\n        /* \"#utility.yul\":7107:7109   */\n      0x20\n        /* \"#utility.yul\":7095:7105   */\n      dup6\n        /* \"#utility.yul\":7092:7110   */\n      lt\n        /* \"#utility.yul\":7089:7138   */\n      iszero\n      tag_132\n      jumpi\n        /* \"#utility.yul\":7128:7136   */\n      dup2\n        /* \"#utility.yul\":7113:7136   */\n      swap1\n      pop\n        /* \"#utility.yul\":7089:7138   */\n    tag_132:\n        /* \"#utility.yul\":7151:7231   */\n      tag_133\n        /* \"#utility.yul\":7207:7229   */\n      tag_134\n        /* \"#utility.yul\":7225:7228   */\n      dup6\n        /* \"#utility.yul\":7207:7229   */\n      tag_37\n      jump\t// in\n    tag_134:\n        /* \"#utility.yul\":7197:7205   */\n      dup4\n        /* \"#utility.yul\":7193:7230   */\n      add\n        /* \"#utility.yul\":7180:7191   */\n      dup3\n        /* \"#utility.yul\":7151:7231   */\n      tag_47\n      jump\t// in\n    tag_133:\n        /* \"#utility.yul\":6810:7241   */\n      pop\n      pop\n        /* \"#utility.yul\":6795:7241   */\n    tag_129:\n        /* \"#utility.yul\":6705:7248   */\n      pop\n      pop\n      pop\n      jump\t// out\n        /* \"#utility.yul\":7254:7371   */\n    tag_49:\n        /* \"#utility.yul\":7308:7316   */\n      0x00\n        /* \"#utility.yul\":7358:7363   */\n      dup3\n        /* \"#utility.yul\":7352:7356   */\n      dup3\n        /* \"#utility.yul\":7348:7364   */\n      shr\n        /* \"#utility.yul\":7327:7364   */\n      swap1\n      pop\n        /* \"#utility.yul\":7254:7371   */\n      swap3\n      swap2\n      pop\n      pop\n      jump\t// out\n        /* \"#utility.yul\":7377:7546   */\n    tag_50:\n        /* \"#utility.yul\":7421:7427   */\n      0x00\n        /* \"#utility.yul\":7454:7505   */\n      tag_137\n        /* \"#utility.yul\":7502:7503   */\n      0x00\n        /* \"#utility.yul\":7498:7504   */\n      not\n        /* \"#utility.yul\":7490:7495   */\n      dup5\n        /* \"#utility.yul\":7487:7488   */\n      0x08\n        /* \"#utility.yul\":7483:7496   */\n      mul\n        /* \"#utility.yul\":7454:7505   */\n      tag_49\n      jump\t// in\n    tag_137:\n        /* \"#utility.yul\":7450:7506   */\n      not\n        /* \"#utility.yul\":7535:7539   */\n      dup1\n        /* \"#utility.yul\":7529:7533   */\n      dup4\n        /* \"#utility.yul\":7525:7540   */\n      and\n        /* \"#utility.yul\":7515:7540   */\n      swap2\n      pop\n        /* \"#utility.yul\":7428:7546   */\n      pop\n        /* \"#utility.yul\":7377:7546   */\n      swap3\n      swap2\n      pop\n      pop\n      jump\t// out\n        /* \"#utility.yul\":7551:7846   */\n    tag_51:\n        /* \"#utility.yul\":7627:7631   */\n      0x00\n        /* \"#utility.yul\":7773:7802   */\n      tag_139\n        /* \"#utility.yul\":7798:7801   */\n      dup4\n        /* \"#utility.yul\":7792:7796   */\n      dup4\n        /* \"#utility.yul\":7773:7802   */\n      tag_50\n      jump\t// in\n    tag_139:\n        /* \"#utility.yul\":7765:7802   */\n      swap2\n      pop\n        /* \"#utility.yul\":7835:7838   */\n      dup3\n        /* \"#utility.yul\":7832:7833   */\n      0x02\n        /* \"#utility.yul\":7828:7839   */\n      mul\n        /* \"#utility.yul\":7822:7826   */\n      dup3\n        /* \"#utility.yul\":7819:7840   */\n      or\n        /* \"#utility.yul\":7811:7840   */\n      swap1\n      pop\n        /* \"#utility.yul\":7551:7846   */\n      swap3\n      swap2\n      pop\n      pop\n      jump\t// out\n        /* \"#utility.yul\":7851:9246   */\n    tag_14:\n        /* \"#utility.yul\":7968:8005   */\n      tag_141\n        /* \"#utility.yul\":8001:8004   */\n      dup3\n        /* \"#utility.yul\":7968:8005   */\n      tag_33\n      jump\t// in\n    tag_141:\n        /* \"#utility.yul\":8070:8088   */\n      0xffffffffffffffff\n        /* \"#utility.yul\":8062:8068   */\n      dup2\n        /* \"#utility.yul\":8059:8089   */\n      gt\n        /* \"#utility.yul\":8056:8112   */\n      iszero\n      tag_142\n      jumpi\n        /* \"#utility.yul\":8092:8110   */\n      tag_143\n      tag_23\n      jump\t// in\n    tag_143:\n        /* \"#utility.yul\":8056:8112   */\n    tag_142:\n        /* \"#utility.yul\":8136:8174   */\n      tag_144\n        /* \"#utility.yul\":8168:8172   */\n      dup3\n        /* \"#utility.yul\":8162:8173   */\n      sload\n        /* \"#utility.yul\":8136:8174   */\n      tag_35\n      jump\t// in\n    tag_144:\n        /* \"#utility.yul\":8221:8288   */\n      tag_145\n        /* \"#utility.yul\":8281:8287   */\n      dup3\n        /* \"#utility.yul\":8273:8279   */\n      dup3\n        /* \"#utility.yul\":8267:8271   */\n      dup6\n        /* \"#utility.yul\":8221:8288   */\n      tag_48\n      jump\t// in\n    tag_145:\n        /* \"#utility.yul\":8315:8316   */\n      0x00\n        /* \"#utility.yul\":8339:8343   */\n      0x20\n        /* \"#utility.yul\":8326:8343   */\n      swap1\n      pop\n        /* \"#utility.yul\":8371:8373   */\n      0x1f\n        /* \"#utility.yul\":8363:8369   */\n      dup4\n        /* \"#utility.yul\":8360:8374   */\n      gt\n        /* \"#utility.yul\":8388:8389   */\n      0x01\n        /* \"#utility.yul\":8383:9001   */\n      dup2\n      eq\n      tag_147\n      jumpi\n        /* \"#utility.yul\":9045:9046   */\n      0x00\n        /* \"#utility.yul\":9062:9068   */\n      dup5\n        /* \"#utility.yul\":9059:9136   */\n      iszero\n      tag_148\n      jumpi\n        /* \"#utility.yul\":9111:9120   */\n      dup3\n        /* \"#utility.yul\":9106:9109   */\n      dup8\n        /* \"#utility.yul\":9102:9121   */\n      add\n        /* \"#utility.yul\":9096:9122   */\n      mload\n        /* \"#utility.yul\":9087:9122   */\n      swap1\n      pop\n        /* \"#utility.yul\":9059:9136   */\n    tag_148:\n        /* \"#utility.yul\":9162:9229   */\n      tag_149\n        /* \"#utility.yul\":9222:9228   */\n      dup6\n        /* \"#utility.yul\":9215:9220   */\n      dup3\n        /* \"#utility.yul\":9162:9229   */\n      tag_51\n      jump\t// in\n    tag_149:\n        /* \"#utility.yul\":9156:9160   */\n      dup7\n        /* \"#utility.yul\":9149:9230   */\n      sstore\n        /* \"#utility.yul\":9018:9240   */\n      pop\n        /* \"#utility.yul\":8353:9240   */\n      jump(tag_146)\n        /* \"#utility.yul\":8383:9001   */\n    tag_147:\n        /* \"#utility.yul\":8435:8439   */\n      0x1f\n        /* \"#utility.yul\":8431:8440   */\n      not\n        /* \"#utility.yul\":8423:8429   */\n      dup5\n        /* \"#utility.yul\":8419:8441   */\n      and\n        /* \"#utility.yul\":8469:8506   */\n      tag_150\n        /* \"#utility.yul\":8501:8505   */\n      dup7\n        /* \"#utility.yul\":8469:8506   */\n      tag_36\n      jump\t// in\n    tag_150:\n        /* \"#utility.yul\":8528:8529   */\n      0x00\n        /* \"#utility.yul\":8542:8750   */\n    tag_151:\n        /* \"#utility.yul\":8556:8563   */\n      dup3\n        /* \"#utility.yul\":8553:8554   */\n      dup2\n        /* \"#utility.yul\":8550:8564   */\n      lt\n        /* \"#utility.yul\":8542:8750   */\n      iszero\n      tag_153\n      jumpi\n        /* \"#utility.yul\":8635:8644   */\n      dup5\n        /* \"#utility.yul\":8630:8633   */\n      dup10\n        /* \"#utility.yul\":8626:8645   */\n      add\n        /* \"#utility.yul\":8620:8646   */\n      mload\n        /* \"#utility.yul\":8612:8618   */\n      dup3\n        /* \"#utility.yul\":8605:8647   */\n      sstore\n        /* \"#utility.yul\":8686:8687   */\n      0x01\n        /* \"#utility.yul\":8678:8684   */\n      dup3\n        /* \"#utility.yul\":8674:8688   */\n      add\n        /* \"#utility.yul\":8664:8688   */\n      swap2\n      pop\n        /* \"#utility.yul\":8733:8735   */\n      0x20\n        /* \"#utility.yul\":8722:8731   */\n      dup6\n        /* \"#utility.yul\":8718:8736   */\n      add\n        /* \"#utility.yul\":8705:8736   */\n      swap5\n      pop\n        /* \"#utility.yul\":8579:8583   */\n      0x20\n        /* \"#utility.yul\":8576:8577   */\n      dup2\n        /* \"#utility.yul\":8572:8584   */\n      add\n        /* \"#utility.yul\":8567:8584   */\n      swap1\n      pop\n        /* \"#utility.yul\":8542:8750   */\n      jump(tag_151)\n    tag_153:\n        /* \"#utility.yul\":8778:8784   */\n      dup7\n        /* \"#utility.yul\":8769:8776   */\n      dup4\n        /* \"#utility.yul\":8766:8785   */\n      lt\n        /* \"#utility.yul\":8763:8942   */\n      iszero\n      tag_154\n      jumpi\n        /* \"#utility.yul\":8836:8845   */\n      dup5\n        /* \"#utility.yul\":8831:8834   */\n      dup10\n        /* \"#utility.yul\":8827:8846   */\n      add\n        /* \"#utility.yul\":8821:8847   */\n      mload\n        /* \"#utility.yul\":8879:8927   */\n      tag_155\n        /* \"#utility.yul\":8921:8925   */\n      0x1f\n        /* \"#utility.yul\":8913:8919   */\n      dup10\n        /* \"#utility.yul\":8909:8926   */\n      and\n        /* \"#utility.yul\":8898:8907   */\n      dup3\n        /* \"#utility.yul\":8879:8927   */\n      tag_50\n      jump\t// in\n    tag_155:\n        /* \"#utility.yul\":8871:8877   */\n      dup4\n        /* \"#utility.yul\":8864:8928   */\n      sstore\n        /* \"#utility.yul\":8786:8942   */\n      pop\n        /* \"#utility.yul\":8763:8942   */\n    tag_154:\n        /* \"#utility.yul\":8988:8989   */\n      0x01\n        /* \"#utility.yul\":8984:8985   */\n      0x02\n        /* \"#utility.yul\":8976:8982   */\n      dup9\n        /* \"#utility.yul\":8972:8986   */\n      mul\n        /* \"#utility.yul\":8968:8990   */\n      add\n        /* \"#utility.yul\":8962:8966   */\n      dup9\n        /* \"#utility.yul\":8955:8991   */\n      sstore\n        /* \"#utility.yul\":8390:9001   */\n      pop\n      pop\n      pop\n        /* \"#utility.yul\":8353:9240   */\n    tag_146:\n      pop\n        /* \"#utility.yul\":7943:9246   */\n      pop\n      pop\n      pop\n        /* \"#utility.yul\":7851:9246   */\n      pop\n      pop\n      jump\t// out\n        /* \"#utility.yul\":9276:10107   */\n    tag_52:\n        /* \"#utility.yul\":9361:9364   */\n      0x00\n        /* \"#utility.yul\":9398:9403   */\n      dup2\n        /* \"#utility.yul\":9392:9404   */\n      sload\n        /* \"#utility.yul\":9427:9463   */\n      tag_157\n        /* \"#utility.yul\":9453:9462   */\n      dup2\n        /* \"#utility.yul\":9427:9463   */\n      tag_35\n      jump\t// in\n    tag_157:\n        /* \"#utility.yul\":9479:9550   */\n      tag_158\n        /* \"#utility.yul\":9543:9549   */\n      dup2\n        /* \"#utility.yul\":9538:9541   */\n      dup7\n        /* \"#utility.yul\":9479:9550   */\n      tag_30\n      jump\t// in\n    tag_158:\n        /* \"#utility.yul\":9472:9550   */\n      swap5\n      pop\n        /* \"#utility.yul\":9581:9582   */\n      0x01\n        /* \"#utility.yul\":9570:9579   */\n      dup3\n        /* \"#utility.yul\":9566:9583   */\n      and\n        /* \"#utility.yul\":9597:9598   */\n      0x00\n        /* \"#utility.yul\":9592:9756   */\n      dup2\n      eq\n      tag_160\n      jumpi\n        /* \"#utility.yul\":9770:9771   */\n      0x01\n        /* \"#utility.yul\":9765:10101   */\n      dup2\n      eq\n      tag_161\n      jumpi\n        /* \"#utility.yul\":9559:10101   */\n      jump(tag_159)\n        /* \"#utility.yul\":9592:9756   */\n    tag_160:\n        /* \"#utility.yul\":9676:9680   */\n      0xff\n        /* \"#utility.yul\":9672:9681   */\n      not\n        /* \"#utility.yul\":9661:9670   */\n      dup4\n        /* \"#utility.yul\":9657:9682   */\n      and\n        /* \"#utility.yul\":9652:9655   */\n      dup7\n        /* \"#utility.yul\":9645:9683   */\n      mstore\n        /* \"#utility.yul\":9736:9742   */\n      dup2\n        /* \"#utility.yul\":9729:9743   */\n      iszero\n        /* \"#utility.yul\":9722:9744   */\n      iszero\n        /* \"#utility.yul\":9716:9720   */\n      0x20\n        /* \"#utility.yul\":9712:9745   */\n      mul\n        /* \"#utility.yul\":9707:9710   */\n      dup7\n        /* \"#utility.yul\":9703:9746   */\n      add\n        /* \"#utility.yul\":9696:9746   */\n      swap4\n      pop\n        /* \"#utility.yul\":9592:9756   */\n      jump(tag_159)\n        /* \"#utility.yul\":9765:10101   */\n    tag_161:\n        /* \"#utility.yul\":9832:9870   */\n      tag_162\n        /* \"#utility.yul\":9864:9869   */\n      dup6\n        /* \"#utility.yul\":9832:9870   */\n      tag_36\n      jump\t// in\n    tag_162:\n        /* \"#utility.yul\":9892:9893   */\n      0x00\n        /* \"#utility.yul\":9906:10060   */\n    tag_163:\n        /* \"#utility.yul\":9920:9926   */\n      dup4\n        /* \"#utility.yul\":9917:9918   */\n      dup2\n        /* \"#utility.yul\":9914:9927   */\n      lt\n        /* \"#utility.yul\":9906:10060   */\n      iszero\n      tag_165\n      jumpi\n        /* \"#utility.yul\":9994:10001   */\n      dup2\n        /* \"#utility.yul\":9988:10002   */\n      sload\n        /* \"#utility.yul\":9984:9985   */\n      dup2\n        /* \"#utility.yul\":9979:9982   */\n      dup10\n        /* \"#utility.yul\":9975:9986   */\n      add\n        /* \"#utility.yul\":9968:10003   */\n      mstore\n        /* \"#utility.yul\":10044:10045   */\n      0x01\n        /* \"#utility.yul\":10035:10042   */\n      dup3\n        /* \"#utility.yul\":10031:10046   */\n      add\n        /* \"#utility.yul\":10020:10046   */\n      swap2\n      pop\n        /* \"#utility.yul\":9942:9946   */\n      0x20\n        /* \"#utility.yul\":9939:9940   */\n      dup2\n        /* \"#utility.yul\":9935:9947   */\n      add\n        /* \"#utility.yul\":9930:9947   */\n      swap1\n      pop\n        /* \"#utility.yul\":9906:10060   */\n      jump(tag_163)\n    tag_165:\n        /* \"#utility.yul\":10089:10090   */\n      dup1\n        /* \"#utility.yul\":10084:10087   */\n      dup9\n        /* \"#utility.yul\":10080:10091   */\n      add\n        /* \"#utility.yul\":10073:10091   */\n      swap6\n      pop\n        /* \"#utility.yul\":9772:10101   */\n      pop\n      pop\n        /* \"#utility.yul\":9559:10101   */\n    tag_159:\n      pop\n        /* \"#utility.yul\":9365:10107   */\n      pop\n      pop\n        /* \"#utility.yul\":9276:10107   */\n      swap3\n      swap2\n      pop\n      pop\n      jump\t// out\n        /* \"#utility.yul\":10113:10420   */\n    tag_16:\n        /* \"#utility.yul\":10223:10227   */\n      0x00\n        /* \"#utility.yul\":10261:10263   */\n      0x20\n        /* \"#utility.yul\":10250:10259   */\n      dup3\n        /* \"#utility.yul\":10246:10264   */\n      add\n        /* \"#utility.yul\":10238:10264   */\n      swap1\n      pop\n        /* \"#utility.yul\":10310:10319   */\n      dup2\n        /* \"#utility.yul\":10304:10308   */\n      dup2\n        /* \"#utility.yul\":10300:10320   */\n      sub\n        /* \"#utility.yul\":10296:10297   */\n      0x00\n        /* \"#utility.yul\":10285:10294   */\n      dup4\n        /* \"#utility.yul\":10281:10298   */\n      add\n        /* \"#utility.yul\":10274:10321   */\n      mstore\n        /* \"#utility.yul\":10338:10413   */\n      tag_167\n        /* \"#utility.yul\":10408:10412   */\n      dup2\n        /* \"#utility.yul\":10399:10405   */\n      dup5\n        /* \"#utility.yul\":10338:10413   */\n      tag_52\n      jump\t// in\n    tag_167:\n        /* \"#utility.yul\":10330:10413   */\n      swap1\n      pop\n        /* \"#utility.yul\":10113:10420   */\n      swap3\n      swap2\n      pop\n      pop\n      jump\t// out\n\n    auxdata: 0xa26469706673582212205614e0b38b1666f81c2fbbebdf4acf55664411a1d56df6e7f1569aca19b9af3864736f6c63430008140033\n}\n",
				"bytecode": {
					"linkReferences": {},
					"object": "608060405234801562000010575f80fd5b503360015f6101000a81548173ffffffffffffffffffffffffffffffffffffffff021916908373ffffffffffffffffffffffffffffffffffffffff1602179055506040518060400160405280600d81526020017f65737361206d656e736167656d000000000000000000000000000000000000008152505f908162000096919062000301565b50620003e5565b5f81519050919050565b7f4e487b71000000000000000000000000000000000000000000000000000000005f52604160045260245ffd5b7f4e487b71000000000000000000000000000000000000000000000000000000005f52602260045260245ffd5b5f60028204905060018216806200011957607f821691505b6020821081036200012f576200012e620000d4565b5b50919050565b5f819050815f5260205f209050919050565b5f6020601f8301049050919050565b5f82821b905092915050565b5f60088302620001937fffffffffffffffffffffffffffffffffffffffffffffffffffffffffffffffff8262000156565b6200019f868362000156565b95508019841693508086168417925050509392505050565b5f819050919050565b5f819050919050565b5f620001e9620001e3620001dd84620001b7565b620001c0565b620001b7565b9050919050565b5f819050919050565b6200020483620001c9565b6200021c6200021382620001f0565b84845462000162565b825550505050565b5f90565b6200023262000224565b6200023f818484620001f9565b505050565b5b8181101562000266576200025a5f8262000228565b60018101905062000245565b5050565b601f821115620002b5576200027f8162000135565b6200028a8462000147565b810160208510156200029a578190505b620002b2620002a98562000147565b83018262000244565b50505b505050565b5f82821c905092915050565b5f620002d75f1984600802620002ba565b1980831691505092915050565b5f620002f18383620002c6565b9150826002028217905092915050565b6200030c826200009d565b67ffffffffffffffff811115620003285762000327620000a7565b5b62000334825462000101565b620003418282856200026a565b5f60209050601f83116001811462000377575f841562000362578287015190505b6200036e8582620002e4565b865550620003dd565b601f198416620003878662000135565b5f5b82811015620003b05784890151825560018201915060208501945060208101905062000389565b86831015620003d05784890151620003cc601f891682620002c6565b8355505b6001600288020188555050505b505050505050565b61073580620003f35f395ff3fe608060405234801561000f575f80fd5b5060043610610029575f3560e01c8063937f6e771461002d575b5f80fd5b610047600480360381019061004291906102c3565b610049565b005b60015f9054906101000a900473ffffffffffffffffffffffffffffffffffffffff1673ffffffffffffffffffffffffffffffffffffffff163373ffffffffffffffffffffffffffffffffffffffff16036100d8576040517f08c379a00000000000000000000000000000000000000000000000000000000081526004016100cf90610364565b60405180910390fd5b60015f9054906101000a900473ffffffffffffffffffffffffffffffffffffffff1673ffffffffffffffffffffffffffffffffffffffff163373ffffffffffffffffffffffffffffffffffffffff160361013c57805f908161013a919061058f565b505b7f21b83cbdd9df6a04e9ab35fa27a03331df930c676c0035679394de1f564f66325f60405161016b91906106df565b60405180910390a150565b5f604051905090565b5f80fd5b5f80fd5b5f80fd5b5f80fd5b5f601f19601f8301169050919050565b7f4e487b71000000000000000000000000000000000000000000000000000000005f52604160045260245ffd5b6101d58261018f565b810181811067ffffffffffffffff821117156101f4576101f361019f565b5b80604052505050565b5f610206610176565b905061021282826101cc565b919050565b5f67ffffffffffffffff8211156102315761023061019f565b5b61023a8261018f565b9050602081019050919050565b828183375f83830152505050565b5f61026761026284610217565b6101fd565b9050828152602081018484840111156102835761028261018b565b5b61028e848285610247565b509392505050565b5f82601f8301126102aa576102a9610187565b5b81356102ba848260208601610255565b91505092915050565b5f602082840312156102d8576102d761017f565b5b5f82013567ffffffffffffffff8111156102f5576102f4610183565b5b61030184828501610296565b91505092915050565b5f82825260208201905092915050565b7f796f7520617265206e6f742041444d00000000000000000000000000000000005f82015250565b5f61034e600f8361030a565b91506103598261031a565b602082019050919050565b5f6020820190508181035f83015261037b81610342565b9050919050565b5f81519050919050565b7f4e487b71000000000000000000000000000000000000000000000000000000005f52602260045260245ffd5b5f60028204905060018216806103d057607f821691505b6020821081036103e3576103e261038c565b5b50919050565b5f819050815f5260205f209050919050565b5f6020601f8301049050919050565b5f82821b905092915050565b5f600883026104457fffffffffffffffffffffffffffffffffffffffffffffffffffffffffffffffff8261040a565b61044f868361040a565b95508019841693508086168417925050509392505050565b5f819050919050565b5f819050919050565b5f61049361048e61048984610467565b610470565b610467565b9050919050565b5f819050919050565b6104ac83610479565b6104c06104b88261049a565b848454610416565b825550505050565b5f90565b6104d46104c8565b6104df8184846104a3565b505050565b5b81811015610502576104f75f826104cc565b6001810190506104e5565b5050565b601f82111561054757610518816103e9565b610521846103fb565b81016020851015610530578190505b61054461053c856103fb565b8301826104e4565b50505b505050565b5f82821c905092915050565b5f6105675f198460080261054c565b1980831691505092915050565b5f61057f8383610558565b9150826002028217905092915050565b61059882610382565b67ffffffffffffffff8111156105b1576105b061019f565b5b6105bb82546103b9565b6105c6828285610506565b5f60209050601f8311600181146105f7575f84156105e5578287015190505b6105ef8582610574565b865550610656565b601f198416610605866103e9565b5f5b8281101561062c57848901518255600182019150602085019450602081019050610607565b868310156106495784890151610645601f891682610558565b8355505b6001600288020188555050505b505050505050565b5f815461066a816103b9565b610674818661030a565b9450600182165f811461068e57600181146106a4576106d6565b60ff1983168652811515602002860193506106d6565b6106ad856103e9565b5f5b838110156106ce578154818901526001820191506020810190506106af565b808801955050505b50505092915050565b5f6020820190508181035f8301526106f7818461065e565b90509291505056fea26469706673582212205614e0b38b1666f81c2fbbebdf4acf55664411a1d56df6e7f1569aca19b9af3864736f6c63430008140033",
					"opcodes": "PUSH1 0x80 PUSH1 0x40 MSTORE CALLVALUE DUP1 ISZERO PUSH3 0x10 JUMPI PUSH0 DUP1 REVERT JUMPDEST POP CALLER PUSH1 0x1 PUSH0 PUSH2 0x100 EXP DUP2 SLOAD DUP2 PUSH20 0xFFFFFFFFFFFFFFFFFFFFFFFFFFFFFFFFFFFFFFFF MUL NOT AND SWAP1 DUP4 PUSH20 0xFFFFFFFFFFFFFFFFFFFFFFFFFFFFFFFFFFFFFFFF AND MUL OR SWAP1 SSTORE POP PUSH1 0x40 MLOAD DUP1 PUSH1 0x40 ADD PUSH1 0x40 MSTORE DUP1 PUSH1 0xD DUP2 MSTORE PUSH1 0x20 ADD PUSH32 0x65737361206D656E736167656D00000000000000000000000000000000000000 DUP2 MSTORE POP PUSH0 SWAP1 DUP2 PUSH3 0x96 SWAP2 SWAP1 PUSH3 0x301 JUMP JUMPDEST POP PUSH3 0x3E5 JUMP JUMPDEST PUSH0 DUP2 MLOAD SWAP1 POP SWAP2 SWAP1 POP JUMP JUMPDEST PUSH32 0x4E487B7100000000000000000000000000000000000000000000000000000000 PUSH0 MSTORE PUSH1 0x41 PUSH1 0x4 MSTORE PUSH1 0x24 PUSH0 REVERT JUMPDEST PUSH32 0x4E487B7100000000000000000000000000000000000000000000000000000000 PUSH0 MSTORE PUSH1 0x22 PUSH1 0x4 MSTORE PUSH1 0x24 PUSH0 REVERT JUMPDEST PUSH0 PUSH1 0x2 DUP3 DIV SWAP1 POP PUSH1 0x1 DUP3 AND DUP1 PUSH3 0x119 JUMPI PUSH1 0x7F DUP3 AND SWAP2 POP JUMPDEST PUSH1 0x20 DUP3 LT DUP2 SUB PUSH3 0x12F JUMPI PUSH3 0x12E PUSH3 0xD4 JUMP JUMPDEST JUMPDEST POP SWAP2 SWAP1 POP JUMP JUMPDEST PUSH0 DUP2 SWAP1 POP DUP2 PUSH0 MSTORE PUSH1 0x20 PUSH0 KECCAK256 SWAP1 POP SWAP2 SWAP1 POP JUMP JUMPDEST PUSH0 PUSH1 0x20 PUSH1 0x1F DUP4 ADD DIV SWAP1 POP SWAP2 SWAP1 POP JUMP JUMPDEST PUSH0 DUP3 DUP3 SHL SWAP1 POP SWAP3 SWAP2 POP POP JUMP JUMPDEST PUSH0 PUSH1 0x8 DUP4 MUL PUSH3 0x193 PUSH32 0xFFFFFFFFFFFFFFFFFFFFFFFFFFFFFFFFFFFFFFFFFFFFFFFFFFFFFFFFFFFFFFFF DUP3 PUSH3 0x156 JUMP JUMPDEST PUSH3 0x19F DUP7 DUP4 PUSH3 0x156 JUMP JUMPDEST SWAP6 POP DUP1 NOT DUP5 AND SWAP4 POP DUP1 DUP7 AND DUP5 OR SWAP3 POP POP POP SWAP4 SWAP3 POP POP POP JUMP JUMPDEST PUSH0 DUP2 SWAP1 POP SWAP2 SWAP1 POP JUMP JUMPDEST PUSH0 DUP2 SWAP1 POP SWAP2 SWAP1 POP JUMP JUMPDEST PUSH0 PUSH3 0x1E9 PUSH3 0x1E3 PUSH3 0x1DD DUP5 PUSH3 0x1B7 JUMP JUMPDEST PUSH3 0x1C0 JUMP JUMPDEST PUSH3 0x1B7 JUMP JUMPDEST SWAP1 POP SWAP2 SWAP1 POP JUMP JUMPDEST PUSH0 DUP2 SWAP1 POP SWAP2 SWAP1 POP JUMP JUMPDEST PUSH3 0x204 DUP4 PUSH3 0x1C9 JUMP JUMPDEST PUSH3 0x21C PUSH3 0x213 DUP3 PUSH3 0x1F0 JUMP JUMPDEST DUP5 DUP5 SLOAD PUSH3 0x162 JUMP JUMPDEST DUP3 SSTORE POP POP POP POP JUMP JUMPDEST PUSH0 SWAP1 JUMP JUMPDEST PUSH3 0x232 PUSH3 0x224 JUMP JUMPDEST PUSH3 0x23F DUP2 DUP5 DUP5 PUSH3 0x1F9 JUMP JUMPDEST POP POP POP JUMP JUMPDEST JUMPDEST DUP2 DUP2 LT ISZERO PUSH3 0x266 JUMPI PUSH3 0x25A PUSH0 DUP3 PUSH3 0x228 JUMP JUMPDEST PUSH1 0x1 DUP2 ADD SWAP1 POP PUSH3 0x245 JUMP JUMPDEST POP POP JUMP JUMPDEST PUSH1 0x1F DUP3 GT ISZERO PUSH3 0x2B5 JUMPI PUSH3 0x27F DUP2 PUSH3 0x135 JUMP JUMPDEST PUSH3 0x28A DUP5 PUSH3 0x147 JUMP JUMPDEST DUP2 ADD PUSH1 0x20 DUP6 LT ISZERO PUSH3 0x29A JUMPI DUP2 SWAP1 POP JUMPDEST PUSH3 0x2B2 PUSH3 0x2A9 DUP6 PUSH3 0x147 JUMP JUMPDEST DUP4 ADD DUP3 PUSH3 0x244 JUMP JUMPDEST POP POP JUMPDEST POP POP POP JUMP JUMPDEST PUSH0 DUP3 DUP3 SHR SWAP1 POP SWAP3 SWAP2 POP POP JUMP JUMPDEST PUSH0 PUSH3 0x2D7 PUSH0 NOT DUP5 PUSH1 0x8 MUL PUSH3 0x2BA JUMP JUMPDEST NOT DUP1 DUP4 AND SWAP2 POP POP SWAP3 SWAP2 POP POP JUMP JUMPDEST PUSH0 PUSH3 0x2F1 DUP4 DUP4 PUSH3 0x2C6 JUMP JUMPDEST SWAP2 POP DUP3 PUSH1 0x2 MUL DUP3 OR SWAP1 POP SWAP3 SWAP2 POP POP JUMP JUMPDEST PUSH3 0x30C DUP3 PUSH3 0x9D JUMP JUMPDEST PUSH8 0xFFFFFFFFFFFFFFFF DUP2 GT ISZERO PUSH3 0x328 JUMPI PUSH3 0x327 PUSH3 0xA7 JUMP JUMPDEST JUMPDEST PUSH3 0x334 DUP3 SLOAD PUSH3 0x101 JUMP JUMPDEST PUSH3 0x341 DUP3 DUP3 DUP6 PUSH3 0x26A JUMP JUMPDEST PUSH0 PUSH1 0x20 SWAP1 POP PUSH1 0x1F DUP4 GT PUSH1 0x1 DUP2 EQ PUSH3 0x377 JUMPI PUSH0 DUP5 ISZERO PUSH3 0x362 JUMPI DUP3 DUP8 ADD MLOAD SWAP1 POP JUMPDEST PUSH3 0x36E DUP6 DUP3 PUSH3 0x2E4 JUMP JUMPDEST DUP7 SSTORE POP PUSH3 0x3DD JUMP JUMPDEST PUSH1 0x1F NOT DUP5 AND PUSH3 0x387 DUP7 PUSH3 0x135 JUMP JUMPDEST PUSH0 JUMPDEST DUP3 DUP2 LT ISZERO PUSH3 0x3B0 JUMPI DUP5 DUP10 ADD MLOAD DUP3 SSTORE PUSH1 0x1 DUP3 ADD SWAP2 POP PUSH1 0x20 DUP6 ADD SWAP5 POP PUSH1 0x20 DUP2 ADD SWAP1 POP PUSH3 0x389 JUMP JUMPDEST DUP7 DUP4 LT ISZERO PUSH3 0x3D0 JUMPI DUP5 DUP10 ADD MLOAD PUSH3 0x3CC PUSH1 0x1F DUP10 AND DUP3 PUSH3 0x2C6 JUMP JUMPDEST DUP4 SSTORE POP JUMPDEST PUSH1 0x1 PUSH1 0x2 DUP9 MUL ADD DUP9 SSTORE POP POP POP JUMPDEST POP POP POP POP POP POP JUMP JUMPDEST PUSH2 0x735 DUP1 PUSH3 0x3F3 PUSH0 CODECOPY PUSH0 RETURN INVALID PUSH1 0x80 PUSH1 0x40 MSTORE CALLVALUE DUP1 ISZERO PUSH2 0xF JUMPI PUSH0 DUP1 REVERT JUMPDEST POP PUSH1 0x4 CALLDATASIZE LT PUSH2 0x29 JUMPI PUSH0 CALLDATALOAD PUSH1 0xE0 SHR DUP1 PUSH4 0x937F6E77 EQ PUSH2 0x2D JUMPI JUMPDEST PUSH0 DUP1 REVERT JUMPDEST PUSH2 0x47 PUSH1 0x4 DUP1 CALLDATASIZE SUB DUP2 ADD SWAP1 PUSH2 0x42 SWAP2 SWAP1 PUSH2 0x2C3 JUMP JUMPDEST PUSH2 0x49 JUMP JUMPDEST STOP JUMPDEST PUSH1 0x1 PUSH0 SWAP1 SLOAD SWAP1 PUSH2 0x100 EXP SWAP1 DIV PUSH20 0xFFFFFFFFFFFFFFFFFFFFFFFFFFFFFFFFFFFFFFFF AND PUSH20 0xFFFFFFFFFFFFFFFFFFFFFFFFFFFFFFFFFFFFFFFF AND CALLER PUSH20 0xFFFFFFFFFFFFFFFFFFFFFFFFFFFFFFFFFFFFFFFF AND SUB PUSH2 0xD8 JUMPI PUSH1 0x40 MLOAD PUSH32 0x8C379A000000000000000000000000000000000000000000000000000000000 DUP2 MSTORE PUSH1 0x4 ADD PUSH2 0xCF SWAP1 PUSH2 0x364 JUMP JUMPDEST PUSH1 0x40 MLOAD DUP1 SWAP2 SUB SWAP1 REVERT JUMPDEST PUSH1 0x1 PUSH0 SWAP1 SLOAD SWAP1 PUSH2 0x100 EXP SWAP1 DIV PUSH20 0xFFFFFFFFFFFFFFFFFFFFFFFFFFFFFFFFFFFFFFFF AND PUSH20 0xFFFFFFFFFFFFFFFFFFFFFFFFFFFFFFFFFFFFFFFF AND CALLER PUSH20 0xFFFFFFFFFFFFFFFFFFFFFFFFFFFFFFFFFFFFFFFF AND SUB PUSH2 0x13C JUMPI DUP1 PUSH0 SWAP1 DUP2 PUSH2 0x13A SWAP2 SWAP1 PUSH2 0x58F JUMP JUMPDEST POP JUMPDEST PUSH32 0x21B83CBDD9DF6A04E9AB35FA27A03331DF930C676C0035679394DE1F564F6632 PUSH0 PUSH1 0x40 MLOAD PUSH2 0x16B SWAP2 SWAP1 PUSH2 0x6DF JUMP JUMPDEST PUSH1 0x40 MLOAD DUP1 SWAP2 SUB SWAP1 LOG1 POP JUMP JUMPDEST PUSH0 PUSH1 0x40 MLOAD SWAP1 POP SWAP1 JUMP JUMPDEST PUSH0 DUP1 REVERT JUMPDEST PUSH0 DUP1 REVERT JUMPDEST PUSH0 DUP1 REVERT JUMPDEST PUSH0 DUP1 REVERT JUMPDEST PUSH0 PUSH1 0x1F NOT PUSH1 0x1F DUP4 ADD AND SWAP1 POP SWAP2 SWAP1 POP JUMP JUMPDEST PUSH32 0x4E487B7100000000000000000000000000000000000000000000000000000000 PUSH0 MSTORE PUSH1 0x41 PUSH1 0x4 MSTORE PUSH1 0x24 PUSH0 REVERT JUMPDEST PUSH2 0x1D5 DUP3 PUSH2 0x18F JUMP JUMPDEST DUP2 ADD DUP2 DUP2 LT PUSH8 0xFFFFFFFFFFFFFFFF DUP3 GT OR ISZERO PUSH2 0x1F4 JUMPI PUSH2 0x1F3 PUSH2 0x19F JUMP JUMPDEST JUMPDEST DUP1 PUSH1 0x40 MSTORE POP POP POP JUMP JUMPDEST PUSH0 PUSH2 0x206 PUSH2 0x176 JUMP JUMPDEST SWAP1 POP PUSH2 0x212 DUP3 DUP3 PUSH2 0x1CC JUMP JUMPDEST SWAP2 SWAP1 POP JUMP JUMPDEST PUSH0 PUSH8 0xFFFFFFFFFFFFFFFF DUP3 GT ISZERO PUSH2 0x231 JUMPI PUSH2 0x230 PUSH2 0x19F JUMP JUMPDEST JUMPDEST PUSH2 0x23A DUP3 PUSH2 0x18F JUMP JUMPDEST SWAP1 POP PUSH1 0x20 DUP2 ADD SWAP1 POP SWAP2 SWAP1 POP JUMP JUMPDEST DUP3 DUP2 DUP4 CALLDATACOPY PUSH0 DUP4 DUP4 ADD MSTORE POP POP POP JUMP JUMPDEST PUSH0 PUSH2 0x267 PUSH2 0x262 DUP5 PUSH2 0x217 JUMP JUMPDEST PUSH2 0x1FD JUMP JUMPDEST SWAP1 POP DUP3 DUP2 MSTORE PUSH1 0x20 DUP2 ADD DUP5 DUP5 DUP5 ADD GT ISZERO PUSH2 0x283 JUMPI PUSH2 0x282 PUSH2 0x18B JUMP JUMPDEST JUMPDEST PUSH2 0x28E DUP5 DUP3 DUP6 PUSH2 0x247 JUMP JUMPDEST POP SWAP4 SWAP3 POP POP POP JUMP JUMPDEST PUSH0 DUP3 PUSH1 0x1F DUP4 ADD SLT PUSH2 0x2AA JUMPI PUSH2 0x2A9 PUSH2 0x187 JUMP JUMPDEST JUMPDEST DUP2 CALLDATALOAD PUSH2 0x2BA DUP5 DUP3 PUSH1 0x20 DUP7 ADD PUSH2 0x255 JUMP JUMPDEST SWAP2 POP POP SWAP3 SWAP2 POP POP JUMP JUMPDEST PUSH0 PUSH1 0x20 DUP3 DUP5 SUB SLT ISZERO PUSH2 0x2D8 JUMPI PUSH2 0x2D7 PUSH2 0x17F JUMP JUMPDEST JUMPDEST PUSH0 DUP3 ADD CALLDATALOAD PUSH8 0xFFFFFFFFFFFFFFFF DUP2 GT ISZERO PUSH2 0x2F5 JUMPI PUSH2 0x2F4 PUSH2 0x183 JUMP JUMPDEST JUMPDEST PUSH2 0x301 DUP5 DUP3 DUP6 ADD PUSH2 0x296 JUMP JUMPDEST SWAP2 POP POP SWAP3 SWAP2 POP POP JUMP JUMPDEST PUSH0 DUP3 DUP3 MSTORE PUSH1 0x20 DUP3 ADD SWAP1 POP SWAP3 SWAP2 POP POP JUMP JUMPDEST PUSH32 0x796F7520617265206E6F742041444D0000000000000000000000000000000000 PUSH0 DUP3 ADD MSTORE POP JUMP JUMPDEST PUSH0 PUSH2 0x34E PUSH1 0xF DUP4 PUSH2 0x30A JUMP JUMPDEST SWAP2 POP PUSH2 0x359 DUP3 PUSH2 0x31A JUMP JUMPDEST PUSH1 0x20 DUP3 ADD SWAP1 POP SWAP2 SWAP1 POP JUMP JUMPDEST PUSH0 PUSH1 0x20 DUP3 ADD SWAP1 POP DUP2 DUP2 SUB PUSH0 DUP4 ADD MSTORE PUSH2 0x37B DUP2 PUSH2 0x342 JUMP JUMPDEST SWAP1 POP SWAP2 SWAP1 POP JUMP JUMPDEST PUSH0 DUP2 MLOAD SWAP1 POP SWAP2 SWAP1 POP JUMP JUMPDEST PUSH32 0x4E487B7100000000000000000000000000000000000000000000000000000000 PUSH0 MSTORE PUSH1 0x22 PUSH1 0x4 MSTORE PUSH1 0x24 PUSH0 REVERT JUMPDEST PUSH0 PUSH1 0x2 DUP3 DIV SWAP1 POP PUSH1 0x1 DUP3 AND DUP1 PUSH2 0x3D0 JUMPI PUSH1 0x7F DUP3 AND SWAP2 POP JUMPDEST PUSH1 0x20 DUP3 LT DUP2 SUB PUSH2 0x3E3 JUMPI PUSH2 0x3E2 PUSH2 0x38C JUMP JUMPDEST JUMPDEST POP SWAP2 SWAP1 POP JUMP JUMPDEST PUSH0 DUP2 SWAP1 POP DUP2 PUSH0 MSTORE PUSH1 0x20 PUSH0 KECCAK256 SWAP1 POP SWAP2 SWAP1 POP JUMP JUMPDEST PUSH0 PUSH1 0x20 PUSH1 0x1F DUP4 ADD DIV SWAP1 POP SWAP2 SWAP1 POP JUMP JUMPDEST PUSH0 DUP3 DUP3 SHL SWAP1 POP SWAP3 SWAP2 POP POP JUMP JUMPDEST PUSH0 PUSH1 0x8 DUP4 MUL PUSH2 0x445 PUSH32 0xFFFFFFFFFFFFFFFFFFFFFFFFFFFFFFFFFFFFFFFFFFFFFFFFFFFFFFFFFFFFFFFF DUP3 PUSH2 0x40A JUMP JUMPDEST PUSH2 0x44F DUP7 DUP4 PUSH2 0x40A JUMP JUMPDEST SWAP6 POP DUP1 NOT DUP5 AND SWAP4 POP DUP1 DUP7 AND DUP5 OR SWAP3 POP POP POP SWAP4 SWAP3 POP POP POP JUMP JUMPDEST PUSH0 DUP2 SWAP1 POP SWAP2 SWAP1 POP JUMP JUMPDEST PUSH0 DUP2 SWAP1 POP SWAP2 SWAP1 POP JUMP JUMPDEST PUSH0 PUSH2 0x493 PUSH2 0x48E PUSH2 0x489 DUP5 PUSH2 0x467 JUMP JUMPDEST PUSH2 0x470 JUMP JUMPDEST PUSH2 0x467 JUMP JUMPDEST SWAP1 POP SWAP2 SWAP1 POP JUMP JUMPDEST PUSH0 DUP2 SWAP1 POP SWAP2 SWAP1 POP JUMP JUMPDEST PUSH2 0x4AC DUP4 PUSH2 0x479 JUMP JUMPDEST PUSH2 0x4C0 PUSH2 0x4B8 DUP3 PUSH2 0x49A JUMP JUMPDEST DUP5 DUP5 SLOAD PUSH2 0x416 JUMP JUMPDEST DUP3 SSTORE POP POP POP POP JUMP JUMPDEST PUSH0 SWAP1 JUMP JUMPDEST PUSH2 0x4D4 PUSH2 0x4C8 JUMP JUMPDEST PUSH2 0x4DF DUP2 DUP5 DUP5 PUSH2 0x4A3 JUMP JUMPDEST POP POP POP JUMP JUMPDEST JUMPDEST DUP2 DUP2 LT ISZERO PUSH2 0x502 JUMPI PUSH2 0x4F7 PUSH0 DUP3 PUSH2 0x4CC JUMP JUMPDEST PUSH1 0x1 DUP2 ADD SWAP1 POP PUSH2 0x4E5 JUMP JUMPDEST POP POP JUMP JUMPDEST PUSH1 0x1F DUP3 GT ISZERO PUSH2 0x547 JUMPI PUSH2 0x518 DUP2 PUSH2 0x3E9 JUMP JUMPDEST PUSH2 0x521 DUP5 PUSH2 0x3FB JUMP JUMPDEST DUP2 ADD PUSH1 0x20 DUP6 LT ISZERO PUSH2 0x530 JUMPI DUP2 SWAP1 POP JUMPDEST PUSH2 0x544 PUSH2 0x53C DUP6 PUSH2 0x3FB JUMP JUMPDEST DUP4 ADD DUP3 PUSH2 0x4E4 JUMP JUMPDEST POP POP JUMPDEST POP POP POP JUMP JUMPDEST PUSH0 DUP3 DUP3 SHR SWAP1 POP SWAP3 SWAP2 POP POP JUMP JUMPDEST PUSH0 PUSH2 0x567 PUSH0 NOT DUP5 PUSH1 0x8 MUL PUSH2 0x54C JUMP JUMPDEST NOT DUP1 DUP4 AND SWAP2 POP POP SWAP3 SWAP2 POP POP JUMP JUMPDEST PUSH0 PUSH2 0x57F DUP4 DUP4 PUSH2 0x558 JUMP JUMPDEST SWAP2 POP DUP3 PUSH1 0x2 MUL DUP3 OR SWAP1 POP SWAP3 SWAP2 POP POP JUMP JUMPDEST PUSH2 0x598 DUP3 PUSH2 0x382 JUMP JUMPDEST PUSH8 0xFFFFFFFFFFFFFFFF DUP2 GT ISZERO PUSH2 0x5B1 JUMPI PUSH2 0x5B0 PUSH2 0x19F JUMP JUMPDEST JUMPDEST PUSH2 0x5BB DUP3 SLOAD PUSH2 0x3B9 JUMP JUMPDEST PUSH2 0x5C6 DUP3 DUP3 DUP6 PUSH2 0x506 JUMP JUMPDEST PUSH0 PUSH1 0x20 SWAP1 POP PUSH1 0x1F DUP4 GT PUSH1 0x1 DUP2 EQ PUSH2 0x5F7 JUMPI PUSH0 DUP5 ISZERO PUSH2 0x5E5 JUMPI DUP3 DUP8 ADD MLOAD SWAP1 POP JUMPDEST PUSH2 0x5EF DUP6 DUP3 PUSH2 0x574 JUMP JUMPDEST DUP7 SSTORE POP PUSH2 0x656 JUMP JUMPDEST PUSH1 0x1F NOT DUP5 AND PUSH2 0x605 DUP7 PUSH2 0x3E9 JUMP JUMPDEST PUSH0 JUMPDEST DUP3 DUP2 LT ISZERO PUSH2 0x62C JUMPI DUP5 DUP10 ADD MLOAD DUP3 SSTORE PUSH1 0x1 DUP3 ADD SWAP2 POP PUSH1 0x20 DUP6 ADD SWAP5 POP PUSH1 0x20 DUP2 ADD SWAP1 POP PUSH2 0x607 JUMP JUMPDEST DUP7 DUP4 LT ISZERO PUSH2 0x649 JUMPI DUP5 DUP10 ADD MLOAD PUSH2 0x645 PUSH1 0x1F DUP10 AND DUP3 PUSH2 0x558 JUMP JUMPDEST DUP4 SSTORE POP JUMPDEST PUSH1 0x1 PUSH1 0x2 DUP9 MUL ADD DUP9 SSTORE POP POP POP JUMPDEST POP POP POP POP POP POP JUMP JUMPDEST PUSH0 DUP2 SLOAD PUSH2 0x66A DUP2 PUSH2 0x3B9 JUMP JUMPDEST PUSH2 0x674 DUP2 DUP7 PUSH2 0x30A JUMP JUMPDEST SWAP5 POP PUSH1 0x1 DUP3 AND PUSH0 DUP2 EQ PUSH2 0x68E JUMPI PUSH1 0x1 DUP2 EQ PUSH2 0x6A4 JUMPI PUSH2 0x6D6 JUMP JUMPDEST PUSH1 0xFF NOT DUP4 AND DUP7 MSTORE DUP2 ISZERO ISZERO PUSH1 0x20 MUL DUP7 ADD SWAP4 POP PUSH2 0x6D6 JUMP JUMPDEST PUSH2 0x6AD DUP6 PUSH2 0x3E9 JUMP JUMPDEST PUSH0 JUMPDEST DUP4 DUP2 LT ISZERO PUSH2 0x6CE JUMPI DUP2 SLOAD DUP2 DUP10 ADD MSTORE PUSH1 0x1 DUP3 ADD SWAP2 POP PUSH1 0x20 DUP2 ADD SWAP1 POP PUSH2 0x6AF JUMP JUMPDEST DUP1 DUP9 ADD SWAP6 POP POP POP JUMPDEST POP POP POP SWAP3 SWAP2 POP POP JUMP JUMPDEST PUSH0 PUSH1 0x20 DUP3 ADD SWAP1 POP DUP2 DUP2 SUB PUSH0 DUP4 ADD MSTORE PUSH2 0x6F7 DUP2 DUP5 PUSH2 0x65E JUMP JUMPDEST SWAP1 POP SWAP3 SWAP2 POP POP JUMP INVALID LOG2 PUSH5 0x6970667358 0x22 SLT KECCAK256 JUMP EQ 0xE0 0xB3 DUP12 AND PUSH7 0xF81C2FBBEBDF4A 0xCF SSTORE PUSH7 0x4411A1D56DF6E7 CALL JUMP SWAP11 0xCA NOT 0xB9 0xAF CODESIZE PUSH5 0x736F6C6343 STOP ADDMOD EQ STOP CALLER "
				},
				"gasEstimates": {
					"creation": {
						"codeDepositCost": "369000",
						"executionCost": "infinite",
						"totalCost": "infinite"
					},
					"external": {
						"setInfo(string)": "infinite"
					}
				},
				"methodIdentifiers": {
					"setInfo(string)": "937f6e77"
				}
			},
			"storageLayout": {
				"storage": [
					{
						"astId": 9,
						"contract": "ExercicioEvento.sol:ExercicioEvento",
						"label": "s_storedInfo",
						"offset": 0,
						"slot": "0",
						"type": "t_string_storage"
					},
					{
						"astId": 11,
						"contract": "ExercicioEvento.sol:ExercicioEvento",
						"label": "_owner",
						"offset": 0,
						"slot": "1",
						"type": "t_address"
					}
				],
				"types": {
					"t_address": {
						"encoding": "inplace",
						"label": "address",
						"numberOfBytes": "20"
					},
					"t_string_storage": {
						"encoding": "bytes",
						"label": "string",
						"numberOfBytes": "32"
					}
				}
			},
			"userdoc": {
				"kind": "user",
				"methods": {},
				"version": 1
			}
		}
	}
}